
videowifi.elf:     file format elf32-littlearm

Sections:
Idx Name          Size      VMA       LMA       File off  Algn
  0 .isr_vector   0000010c  08000000  08000000  00010000  2**0
                  CONTENTS, ALLOC, LOAD, READONLY, DATA
  1 .text         000018d4  0800010c  0800010c  0001010c  2**2
                  CONTENTS, ALLOC, LOAD, READONLY, CODE
  2 .rodata       00000034  080019e0  080019e0  000119e0  2**2
                  CONTENTS, ALLOC, LOAD, READONLY, DATA
  3 .ARM.extab    00000000  08001a14  08001a14  0002000c  2**0
                  CONTENTS
  4 .ARM          00000000  08001a14  08001a14  0002000c  2**0
                  CONTENTS
  5 .preinit_array 00000000  08001a14  08001a14  0002000c  2**0
                  CONTENTS, ALLOC, LOAD, DATA
  6 .init_array   00000004  08001a14  08001a14  00011a14  2**2
                  CONTENTS, ALLOC, LOAD, DATA
  7 .fini_array   00000004  08001a18  08001a18  00011a18  2**2
                  CONTENTS, ALLOC, LOAD, DATA
  8 .data         0000000c  20000000  08001a1c  00020000  2**2
                  CONTENTS, ALLOC, LOAD, DATA
  9 .bss          00000060  2000000c  08001a28  0002000c  2**2
                  ALLOC
 10 ._user_heap_stack 00000604  2000006c  08001a28  0002006c  2**0
                  ALLOC
 11 .ARM.attributes 00000029  00000000  00000000  0002000c  2**0
                  CONTENTS, READONLY
 12 .debug_info   00004a6c  00000000  00000000  00020035  2**0
                  CONTENTS, READONLY, DEBUGGING
 13 .debug_abbrev 00001078  00000000  00000000  00024aa1  2**0
                  CONTENTS, READONLY, DEBUGGING
 14 .debug_aranges 000005b8  00000000  00000000  00025b20  2**3
                  CONTENTS, READONLY, DEBUGGING
 15 .debug_ranges 00000520  00000000  00000000  000260d8  2**3
                  CONTENTS, READONLY, DEBUGGING
 16 .debug_macro  00012d83  00000000  00000000  000265f8  2**0
                  CONTENTS, READONLY, DEBUGGING
 17 .debug_line   000049f6  00000000  00000000  0003937b  2**0
                  CONTENTS, READONLY, DEBUGGING
 18 .debug_str    000679e5  00000000  00000000  0003dd71  2**0
                  CONTENTS, READONLY, DEBUGGING
 19 .comment      0000007b  00000000  00000000  000a5756  2**0
                  CONTENTS, READONLY
 20 .debug_frame  000015fc  00000000  00000000  000a57d4  2**2
                  CONTENTS, READONLY, DEBUGGING

Disassembly of section .text:

0800010c <__do_global_dtors_aux>:
 800010c:	b510      	push	{r4, lr}
 800010e:	4c05      	ldr	r4, [pc, #20]	; (8000124 <__do_global_dtors_aux+0x18>)
 8000110:	7823      	ldrb	r3, [r4, #0]
 8000112:	b933      	cbnz	r3, 8000122 <__do_global_dtors_aux+0x16>
 8000114:	4b04      	ldr	r3, [pc, #16]	; (8000128 <__do_global_dtors_aux+0x1c>)
 8000116:	b113      	cbz	r3, 800011e <__do_global_dtors_aux+0x12>
 8000118:	4804      	ldr	r0, [pc, #16]	; (800012c <__do_global_dtors_aux+0x20>)
 800011a:	f3af 8000 	nop.w
 800011e:	2301      	movs	r3, #1
 8000120:	7023      	strb	r3, [r4, #0]
 8000122:	bd10      	pop	{r4, pc}
 8000124:	2000000c 	.word	0x2000000c
 8000128:	00000000 	.word	0x00000000
 800012c:	080019c8 	.word	0x080019c8

08000130 <frame_dummy>:
 8000130:	b508      	push	{r3, lr}
 8000132:	4b03      	ldr	r3, [pc, #12]	; (8000140 <frame_dummy+0x10>)
 8000134:	b11b      	cbz	r3, 800013e <frame_dummy+0xe>
 8000136:	4903      	ldr	r1, [pc, #12]	; (8000144 <frame_dummy+0x14>)
 8000138:	4803      	ldr	r0, [pc, #12]	; (8000148 <frame_dummy+0x18>)
 800013a:	f3af 8000 	nop.w
 800013e:	bd08      	pop	{r3, pc}
 8000140:	00000000 	.word	0x00000000
 8000144:	20000010 	.word	0x20000010
 8000148:	080019c8 	.word	0x080019c8

0800014c <main>:
/**
 * @brief  The application entry point.
 * @retval int
 */
int main(void)
{
 800014c:	b580      	push	{r7, lr}
 800014e:	b0a2      	sub	sp, #136	; 0x88
 8000150:	af00      	add	r7, sp, #0
	/* USER CODE END 1 */

	/* MCU Configuration--------------------------------------------------------*/

	/* Reset of all peripherals, Initializes the Flash interface and the Systick. */
	HAL_Init();
 8000152:	f000 fa33 	bl	80005bc <HAL_Init>
	/* USER CODE BEGIN Init */

	/* USER CODE END Init */

	/* Configure the system clock */
	SystemClock_Config();
 8000156:	f000 f841 	bl	80001dc <SystemClock_Config>
	/* USER CODE BEGIN SysInit */

	/* USER CODE END SysInit */

	/* Initialize all configured peripherals */
	MX_GPIO_Init();
 800015a:	f000 f8af 	bl	80002bc <MX_GPIO_Init>
	MX_USART1_UART_Init();
 800015e:	f000 f883 	bl	8000268 <MX_USART1_UART_Init>
	/* USER CODE END 2 */

	/* Infinite loop */
	/* USER CODE BEGIN WHILE */

	HAL_GPIO_WritePin(ESP_PD_GPIO_Port, ESP_PD_Pin, GPIO_PIN_SET);
 8000162:	2201      	movs	r2, #1
 8000164:	2101      	movs	r1, #1
 8000166:	4819      	ldr	r0, [pc, #100]	; (80001cc <main+0x80>)
 8000168:	f000 fd01 	bl	8000b6e <HAL_GPIO_WritePin>
	uint8_t buffer[128];

	while (1)
	{

		if(HAL_GPIO_ReadPin(boton_GPIO_Port, boton_Pin) == GPIO_PIN_SET){
 800016c:	2108      	movs	r1, #8
 800016e:	4817      	ldr	r0, [pc, #92]	; (80001cc <main+0x80>)
 8000170:	f000 fce6 	bl	8000b40 <HAL_GPIO_ReadPin>
 8000174:	4603      	mov	r3, r0
 8000176:	2b01      	cmp	r3, #1
 8000178:	d104      	bne.n	8000184 <main+0x38>
			HAL_GPIO_TogglePin(LED0_GPIO_Port, LED0_Pin);
 800017a:	f44f 5100 	mov.w	r1, #8192	; 0x2000
 800017e:	4814      	ldr	r0, [pc, #80]	; (80001d0 <main+0x84>)
 8000180:	f000 fd0d 	bl	8000b9e <HAL_GPIO_TogglePin>
		}


		bzero(buffer, 128);
 8000184:	1d3b      	adds	r3, r7, #4
 8000186:	2180      	movs	r1, #128	; 0x80
 8000188:	4618      	mov	r0, r3
 800018a:	f001 fbed 	bl	8001968 <bzero>

		rv = HAL_UART_Transmit(&huart1,(uint8_t *)"AT\r\n", 4, 500);
 800018e:	f44f 73fa 	mov.w	r3, #500	; 0x1f4
 8000192:	2204      	movs	r2, #4
 8000194:	490f      	ldr	r1, [pc, #60]	; (80001d4 <main+0x88>)
 8000196:	4810      	ldr	r0, [pc, #64]	; (80001d8 <main+0x8c>)
 8000198:	f001 f983 	bl	80014a2 <HAL_UART_Transmit>
 800019c:	4603      	mov	r3, r0
 800019e:	f887 3087 	strb.w	r3, [r7, #135]	; 0x87

		if(HAL_OK == rv){
 80001a2:	f897 3087 	ldrb.w	r3, [r7, #135]	; 0x87
 80001a6:	2b00      	cmp	r3, #0
 80001a8:	d109      	bne.n	80001be <main+0x72>
			rv = HAL_UART_Receive(&huart1, buffer, 128, 2000);
 80001aa:	1d39      	adds	r1, r7, #4
 80001ac:	f44f 63fa 	mov.w	r3, #2000	; 0x7d0
 80001b0:	2280      	movs	r2, #128	; 0x80
 80001b2:	4809      	ldr	r0, [pc, #36]	; (80001d8 <main+0x8c>)
 80001b4:	f001 fa0e 	bl	80015d4 <HAL_UART_Receive>
 80001b8:	4603      	mov	r3, r0
 80001ba:	f887 3087 	strb.w	r3, [r7, #135]	; 0x87

		}

		HAL_Delay(500);
 80001be:	f44f 70fa 	mov.w	r0, #500	; 0x1f4
 80001c2:	f000 fa5d 	bl	8000680 <HAL_Delay>
		__WFI();
 80001c6:	bf30      	wfi
		if(HAL_GPIO_ReadPin(boton_GPIO_Port, boton_Pin) == GPIO_PIN_SET){
 80001c8:	e7d0      	b.n	800016c <main+0x20>
 80001ca:	bf00      	nop
 80001cc:	40010c00 	.word	0x40010c00
 80001d0:	40011000 	.word	0x40011000
 80001d4:	080019e0 	.word	0x080019e0
 80001d8:	20000028 	.word	0x20000028

080001dc <SystemClock_Config>:
/**
 * @brief System Clock Configuration
 * @retval None
 */
void SystemClock_Config(void)
{
 80001dc:	b580      	push	{r7, lr}
 80001de:	b090      	sub	sp, #64	; 0x40
 80001e0:	af00      	add	r7, sp, #0
	RCC_OscInitTypeDef RCC_OscInitStruct = {0};
 80001e2:	f107 0318 	add.w	r3, r7, #24
 80001e6:	2228      	movs	r2, #40	; 0x28
 80001e8:	2100      	movs	r1, #0
 80001ea:	4618      	mov	r0, r3
 80001ec:	f001 fbe4 	bl	80019b8 <memset>
	RCC_ClkInitTypeDef RCC_ClkInitStruct = {0};
 80001f0:	1d3b      	adds	r3, r7, #4
 80001f2:	2200      	movs	r2, #0
 80001f4:	601a      	str	r2, [r3, #0]
 80001f6:	605a      	str	r2, [r3, #4]
 80001f8:	609a      	str	r2, [r3, #8]
 80001fa:	60da      	str	r2, [r3, #12]
 80001fc:	611a      	str	r2, [r3, #16]

	/** Initializes the CPU, AHB and APB busses clocks
	 */
	RCC_OscInitStruct.OscillatorType = RCC_OSCILLATORTYPE_HSE;
 80001fe:	2301      	movs	r3, #1
 8000200:	61bb      	str	r3, [r7, #24]
	RCC_OscInitStruct.HSEState = RCC_HSE_ON;
 8000202:	f44f 3380 	mov.w	r3, #65536	; 0x10000
 8000206:	61fb      	str	r3, [r7, #28]
	RCC_OscInitStruct.HSEPredivValue = RCC_HSE_PREDIV_DIV1;
 8000208:	2300      	movs	r3, #0
 800020a:	623b      	str	r3, [r7, #32]
	RCC_OscInitStruct.HSIState = RCC_HSI_ON;
 800020c:	2301      	movs	r3, #1
 800020e:	62bb      	str	r3, [r7, #40]	; 0x28
	RCC_OscInitStruct.PLL.PLLState = RCC_PLL_ON;
 8000210:	2302      	movs	r3, #2
 8000212:	637b      	str	r3, [r7, #52]	; 0x34
	RCC_OscInitStruct.PLL.PLLSource = RCC_PLLSOURCE_HSE;
 8000214:	f44f 3380 	mov.w	r3, #65536	; 0x10000
 8000218:	63bb      	str	r3, [r7, #56]	; 0x38
	RCC_OscInitStruct.PLL.PLLMUL = RCC_PLL_MUL9;
 800021a:	f44f 13e0 	mov.w	r3, #1835008	; 0x1c0000
 800021e:	63fb      	str	r3, [r7, #60]	; 0x3c
	if (HAL_RCC_OscConfig(&RCC_OscInitStruct) != HAL_OK)
 8000220:	f107 0318 	add.w	r3, r7, #24
 8000224:	4618      	mov	r0, r3
 8000226:	f000 fcd3 	bl	8000bd0 <HAL_RCC_OscConfig>
 800022a:	4603      	mov	r3, r0
 800022c:	2b00      	cmp	r3, #0
 800022e:	d001      	beq.n	8000234 <SystemClock_Config+0x58>
	{
		Error_Handler();
 8000230:	f000 f8bc 	bl	80003ac <Error_Handler>
	}
	/** Initializes the CPU, AHB and APB busses clocks
	 */
	RCC_ClkInitStruct.ClockType = RCC_CLOCKTYPE_HCLK|RCC_CLOCKTYPE_SYSCLK
 8000234:	230f      	movs	r3, #15
 8000236:	607b      	str	r3, [r7, #4]
			|RCC_CLOCKTYPE_PCLK1|RCC_CLOCKTYPE_PCLK2;
	RCC_ClkInitStruct.SYSCLKSource = RCC_SYSCLKSOURCE_PLLCLK;
 8000238:	2302      	movs	r3, #2
 800023a:	60bb      	str	r3, [r7, #8]
	RCC_ClkInitStruct.AHBCLKDivider = RCC_SYSCLK_DIV1;
 800023c:	2300      	movs	r3, #0
 800023e:	60fb      	str	r3, [r7, #12]
	RCC_ClkInitStruct.APB1CLKDivider = RCC_HCLK_DIV2;
 8000240:	f44f 6380 	mov.w	r3, #1024	; 0x400
 8000244:	613b      	str	r3, [r7, #16]
	RCC_ClkInitStruct.APB2CLKDivider = RCC_HCLK_DIV1;
 8000246:	2300      	movs	r3, #0
 8000248:	617b      	str	r3, [r7, #20]

	if (HAL_RCC_ClockConfig(&RCC_ClkInitStruct, FLASH_LATENCY_2) != HAL_OK)
 800024a:	1d3b      	adds	r3, r7, #4
 800024c:	2102      	movs	r1, #2
 800024e:	4618      	mov	r0, r3
 8000250:	f000 ff3e 	bl	80010d0 <HAL_RCC_ClockConfig>
 8000254:	4603      	mov	r3, r0
 8000256:	2b00      	cmp	r3, #0
 8000258:	d001      	beq.n	800025e <SystemClock_Config+0x82>
	{
		Error_Handler();
 800025a:	f000 f8a7 	bl	80003ac <Error_Handler>
	}
}
 800025e:	bf00      	nop
 8000260:	3740      	adds	r7, #64	; 0x40
 8000262:	46bd      	mov	sp, r7
 8000264:	bd80      	pop	{r7, pc}
	...

08000268 <MX_USART1_UART_Init>:
 * @brief USART1 Initialization Function
 * @param None
 * @retval None
 */
static void MX_USART1_UART_Init(void)
{
 8000268:	b580      	push	{r7, lr}
 800026a:	af00      	add	r7, sp, #0
	/* USER CODE END USART1_Init 0 */

	/* USER CODE BEGIN USART1_Init 1 */

	/* USER CODE END USART1_Init 1 */
	huart1.Instance = USART1;
 800026c:	4b11      	ldr	r3, [pc, #68]	; (80002b4 <MX_USART1_UART_Init+0x4c>)
 800026e:	4a12      	ldr	r2, [pc, #72]	; (80002b8 <MX_USART1_UART_Init+0x50>)
 8000270:	601a      	str	r2, [r3, #0]
	huart1.Init.BaudRate = 115200;
 8000272:	4b10      	ldr	r3, [pc, #64]	; (80002b4 <MX_USART1_UART_Init+0x4c>)
 8000274:	f44f 32e1 	mov.w	r2, #115200	; 0x1c200
 8000278:	605a      	str	r2, [r3, #4]
	huart1.Init.WordLength = UART_WORDLENGTH_8B;
 800027a:	4b0e      	ldr	r3, [pc, #56]	; (80002b4 <MX_USART1_UART_Init+0x4c>)
 800027c:	2200      	movs	r2, #0
 800027e:	609a      	str	r2, [r3, #8]
	huart1.Init.StopBits = UART_STOPBITS_1;
 8000280:	4b0c      	ldr	r3, [pc, #48]	; (80002b4 <MX_USART1_UART_Init+0x4c>)
 8000282:	2200      	movs	r2, #0
 8000284:	60da      	str	r2, [r3, #12]
	huart1.Init.Parity = UART_PARITY_NONE;
 8000286:	4b0b      	ldr	r3, [pc, #44]	; (80002b4 <MX_USART1_UART_Init+0x4c>)
 8000288:	2200      	movs	r2, #0
 800028a:	611a      	str	r2, [r3, #16]
	huart1.Init.Mode = UART_MODE_TX_RX;
 800028c:	4b09      	ldr	r3, [pc, #36]	; (80002b4 <MX_USART1_UART_Init+0x4c>)
 800028e:	220c      	movs	r2, #12
 8000290:	615a      	str	r2, [r3, #20]
	huart1.Init.HwFlowCtl = UART_HWCONTROL_NONE;
 8000292:	4b08      	ldr	r3, [pc, #32]	; (80002b4 <MX_USART1_UART_Init+0x4c>)
 8000294:	2200      	movs	r2, #0
 8000296:	619a      	str	r2, [r3, #24]
	huart1.Init.OverSampling = UART_OVERSAMPLING_16;
 8000298:	4b06      	ldr	r3, [pc, #24]	; (80002b4 <MX_USART1_UART_Init+0x4c>)
 800029a:	2200      	movs	r2, #0
 800029c:	61da      	str	r2, [r3, #28]
	if (HAL_UART_Init(&huart1) != HAL_OK)
 800029e:	4805      	ldr	r0, [pc, #20]	; (80002b4 <MX_USART1_UART_Init+0x4c>)
 80002a0:	f001 f8b2 	bl	8001408 <HAL_UART_Init>
 80002a4:	4603      	mov	r3, r0
 80002a6:	2b00      	cmp	r3, #0
 80002a8:	d001      	beq.n	80002ae <MX_USART1_UART_Init+0x46>
	{
		Error_Handler();
 80002aa:	f000 f87f 	bl	80003ac <Error_Handler>
	}
	/* USER CODE BEGIN USART1_Init 2 */

	/* USER CODE END USART1_Init 2 */

}
 80002ae:	bf00      	nop
 80002b0:	bd80      	pop	{r7, pc}
 80002b2:	bf00      	nop
 80002b4:	20000028 	.word	0x20000028
 80002b8:	40013800 	.word	0x40013800

080002bc <MX_GPIO_Init>:
 * @brief GPIO Initialization Function
 * @param None
 * @retval None
 */
static void MX_GPIO_Init(void)
{
 80002bc:	b580      	push	{r7, lr}
 80002be:	b088      	sub	sp, #32
 80002c0:	af00      	add	r7, sp, #0
	GPIO_InitTypeDef GPIO_InitStruct = {0};
 80002c2:	f107 0310 	add.w	r3, r7, #16
 80002c6:	2200      	movs	r2, #0
 80002c8:	601a      	str	r2, [r3, #0]
 80002ca:	605a      	str	r2, [r3, #4]
 80002cc:	609a      	str	r2, [r3, #8]
 80002ce:	60da      	str	r2, [r3, #12]

	/* GPIO Ports Clock Enable */
	__HAL_RCC_GPIOC_CLK_ENABLE();
 80002d0:	4b33      	ldr	r3, [pc, #204]	; (80003a0 <MX_GPIO_Init+0xe4>)
 80002d2:	699b      	ldr	r3, [r3, #24]
 80002d4:	4a32      	ldr	r2, [pc, #200]	; (80003a0 <MX_GPIO_Init+0xe4>)
 80002d6:	f043 0310 	orr.w	r3, r3, #16
 80002da:	6193      	str	r3, [r2, #24]
 80002dc:	4b30      	ldr	r3, [pc, #192]	; (80003a0 <MX_GPIO_Init+0xe4>)
 80002de:	699b      	ldr	r3, [r3, #24]
 80002e0:	f003 0310 	and.w	r3, r3, #16
 80002e4:	60fb      	str	r3, [r7, #12]
 80002e6:	68fb      	ldr	r3, [r7, #12]
	__HAL_RCC_GPIOD_CLK_ENABLE();
 80002e8:	4b2d      	ldr	r3, [pc, #180]	; (80003a0 <MX_GPIO_Init+0xe4>)
 80002ea:	699b      	ldr	r3, [r3, #24]
 80002ec:	4a2c      	ldr	r2, [pc, #176]	; (80003a0 <MX_GPIO_Init+0xe4>)
 80002ee:	f043 0320 	orr.w	r3, r3, #32
 80002f2:	6193      	str	r3, [r2, #24]
 80002f4:	4b2a      	ldr	r3, [pc, #168]	; (80003a0 <MX_GPIO_Init+0xe4>)
 80002f6:	699b      	ldr	r3, [r3, #24]
 80002f8:	f003 0320 	and.w	r3, r3, #32
 80002fc:	60bb      	str	r3, [r7, #8]
 80002fe:	68bb      	ldr	r3, [r7, #8]
	__HAL_RCC_GPIOB_CLK_ENABLE();
 8000300:	4b27      	ldr	r3, [pc, #156]	; (80003a0 <MX_GPIO_Init+0xe4>)
 8000302:	699b      	ldr	r3, [r3, #24]
 8000304:	4a26      	ldr	r2, [pc, #152]	; (80003a0 <MX_GPIO_Init+0xe4>)
 8000306:	f043 0308 	orr.w	r3, r3, #8
 800030a:	6193      	str	r3, [r2, #24]
 800030c:	4b24      	ldr	r3, [pc, #144]	; (80003a0 <MX_GPIO_Init+0xe4>)
 800030e:	699b      	ldr	r3, [r3, #24]
 8000310:	f003 0308 	and.w	r3, r3, #8
 8000314:	607b      	str	r3, [r7, #4]
 8000316:	687b      	ldr	r3, [r7, #4]
	__HAL_RCC_GPIOA_CLK_ENABLE();
 8000318:	4b21      	ldr	r3, [pc, #132]	; (80003a0 <MX_GPIO_Init+0xe4>)
 800031a:	699b      	ldr	r3, [r3, #24]
 800031c:	4a20      	ldr	r2, [pc, #128]	; (80003a0 <MX_GPIO_Init+0xe4>)
 800031e:	f043 0304 	orr.w	r3, r3, #4
 8000322:	6193      	str	r3, [r2, #24]
 8000324:	4b1e      	ldr	r3, [pc, #120]	; (80003a0 <MX_GPIO_Init+0xe4>)
 8000326:	699b      	ldr	r3, [r3, #24]
 8000328:	f003 0304 	and.w	r3, r3, #4
 800032c:	603b      	str	r3, [r7, #0]
 800032e:	683b      	ldr	r3, [r7, #0]

	/*Configure GPIO pin Output Level */
	HAL_GPIO_WritePin(LED0_GPIO_Port, LED0_Pin, GPIO_PIN_RESET);
 8000330:	2200      	movs	r2, #0
 8000332:	f44f 5100 	mov.w	r1, #8192	; 0x2000
 8000336:	481b      	ldr	r0, [pc, #108]	; (80003a4 <MX_GPIO_Init+0xe8>)
 8000338:	f000 fc19 	bl	8000b6e <HAL_GPIO_WritePin>

	/*Configure GPIO pin Output Level */
	HAL_GPIO_WritePin(ESP_PD_GPIO_Port, ESP_PD_Pin, GPIO_PIN_RESET);
 800033c:	2200      	movs	r2, #0
 800033e:	2101      	movs	r1, #1
 8000340:	4819      	ldr	r0, [pc, #100]	; (80003a8 <MX_GPIO_Init+0xec>)
 8000342:	f000 fc14 	bl	8000b6e <HAL_GPIO_WritePin>

	/*Configure GPIO pin : LED0_Pin */
	GPIO_InitStruct.Pin = LED0_Pin;
 8000346:	f44f 5300 	mov.w	r3, #8192	; 0x2000
 800034a:	613b      	str	r3, [r7, #16]
	GPIO_InitStruct.Mode = GPIO_MODE_OUTPUT_PP;
 800034c:	2301      	movs	r3, #1
 800034e:	617b      	str	r3, [r7, #20]
	GPIO_InitStruct.Pull = GPIO_NOPULL;
 8000350:	2300      	movs	r3, #0
 8000352:	61bb      	str	r3, [r7, #24]
	GPIO_InitStruct.Speed = GPIO_SPEED_FREQ_LOW;
 8000354:	2302      	movs	r3, #2
 8000356:	61fb      	str	r3, [r7, #28]
	HAL_GPIO_Init(LED0_GPIO_Port, &GPIO_InitStruct);
 8000358:	f107 0310 	add.w	r3, r7, #16
 800035c:	4619      	mov	r1, r3
 800035e:	4811      	ldr	r0, [pc, #68]	; (80003a4 <MX_GPIO_Init+0xe8>)
 8000360:	f000 fa94 	bl	800088c <HAL_GPIO_Init>

	/*Configure GPIO pin : ESP_PD_Pin */
	GPIO_InitStruct.Pin = ESP_PD_Pin;
 8000364:	2301      	movs	r3, #1
 8000366:	613b      	str	r3, [r7, #16]
	GPIO_InitStruct.Mode = GPIO_MODE_OUTPUT_PP;
 8000368:	2301      	movs	r3, #1
 800036a:	617b      	str	r3, [r7, #20]
	GPIO_InitStruct.Pull = GPIO_NOPULL;
 800036c:	2300      	movs	r3, #0
 800036e:	61bb      	str	r3, [r7, #24]
	GPIO_InitStruct.Speed = GPIO_SPEED_FREQ_LOW;
 8000370:	2302      	movs	r3, #2
 8000372:	61fb      	str	r3, [r7, #28]
	HAL_GPIO_Init(ESP_PD_GPIO_Port, &GPIO_InitStruct);
 8000374:	f107 0310 	add.w	r3, r7, #16
 8000378:	4619      	mov	r1, r3
 800037a:	480b      	ldr	r0, [pc, #44]	; (80003a8 <MX_GPIO_Init+0xec>)
 800037c:	f000 fa86 	bl	800088c <HAL_GPIO_Init>

	/*Configure GPIO pin : boton_Pin */
	GPIO_InitStruct.Pin = boton_Pin;
 8000380:	2308      	movs	r3, #8
 8000382:	613b      	str	r3, [r7, #16]
	GPIO_InitStruct.Mode = GPIO_MODE_INPUT;
 8000384:	2300      	movs	r3, #0
 8000386:	617b      	str	r3, [r7, #20]
	GPIO_InitStruct.Pull = GPIO_PULLUP;
 8000388:	2301      	movs	r3, #1
 800038a:	61bb      	str	r3, [r7, #24]
	HAL_GPIO_Init(boton_GPIO_Port, &GPIO_InitStruct);
 800038c:	f107 0310 	add.w	r3, r7, #16
 8000390:	4619      	mov	r1, r3
 8000392:	4805      	ldr	r0, [pc, #20]	; (80003a8 <MX_GPIO_Init+0xec>)
 8000394:	f000 fa7a 	bl	800088c <HAL_GPIO_Init>

}
 8000398:	bf00      	nop
 800039a:	3720      	adds	r7, #32
 800039c:	46bd      	mov	sp, r7
 800039e:	bd80      	pop	{r7, pc}
 80003a0:	40021000 	.word	0x40021000
 80003a4:	40011000 	.word	0x40011000
 80003a8:	40010c00 	.word	0x40010c00

080003ac <Error_Handler>:
/**
 * @brief  This function is executed in case of error occurrence.
 * @retval None
 */
void Error_Handler(void)
{
 80003ac:	b480      	push	{r7}
 80003ae:	af00      	add	r7, sp, #0
	/* USER CODE BEGIN Error_Handler_Debug */
	/* User can add his own implementation to report the HAL error return state */

	/* USER CODE END Error_Handler_Debug */
}
 80003b0:	bf00      	nop
 80003b2:	46bd      	mov	sp, r7
 80003b4:	bc80      	pop	{r7}
 80003b6:	4770      	bx	lr

080003b8 <HAL_MspInit>:
/* USER CODE END 0 */
/**
  * Initializes the Global MSP.
  */
void HAL_MspInit(void)
{
 80003b8:	b480      	push	{r7}
 80003ba:	b085      	sub	sp, #20
 80003bc:	af00      	add	r7, sp, #0
  /* USER CODE BEGIN MspInit 0 */

  /* USER CODE END MspInit 0 */

  __HAL_RCC_AFIO_CLK_ENABLE();
 80003be:	4b15      	ldr	r3, [pc, #84]	; (8000414 <HAL_MspInit+0x5c>)
 80003c0:	699b      	ldr	r3, [r3, #24]
 80003c2:	4a14      	ldr	r2, [pc, #80]	; (8000414 <HAL_MspInit+0x5c>)
 80003c4:	f043 0301 	orr.w	r3, r3, #1
 80003c8:	6193      	str	r3, [r2, #24]
 80003ca:	4b12      	ldr	r3, [pc, #72]	; (8000414 <HAL_MspInit+0x5c>)
 80003cc:	699b      	ldr	r3, [r3, #24]
 80003ce:	f003 0301 	and.w	r3, r3, #1
 80003d2:	60bb      	str	r3, [r7, #8]
 80003d4:	68bb      	ldr	r3, [r7, #8]
  __HAL_RCC_PWR_CLK_ENABLE();
 80003d6:	4b0f      	ldr	r3, [pc, #60]	; (8000414 <HAL_MspInit+0x5c>)
 80003d8:	69db      	ldr	r3, [r3, #28]
 80003da:	4a0e      	ldr	r2, [pc, #56]	; (8000414 <HAL_MspInit+0x5c>)
 80003dc:	f043 5380 	orr.w	r3, r3, #268435456	; 0x10000000
 80003e0:	61d3      	str	r3, [r2, #28]
 80003e2:	4b0c      	ldr	r3, [pc, #48]	; (8000414 <HAL_MspInit+0x5c>)
 80003e4:	69db      	ldr	r3, [r3, #28]
 80003e6:	f003 5380 	and.w	r3, r3, #268435456	; 0x10000000
 80003ea:	607b      	str	r3, [r7, #4]
 80003ec:	687b      	ldr	r3, [r7, #4]

  /* System interrupt init*/

  /** NOJTAG: JTAG-DP Disabled and SW-DP Enabled 
  */
  __HAL_AFIO_REMAP_SWJ_NOJTAG();
 80003ee:	4b0a      	ldr	r3, [pc, #40]	; (8000418 <HAL_MspInit+0x60>)
 80003f0:	685b      	ldr	r3, [r3, #4]
 80003f2:	60fb      	str	r3, [r7, #12]
 80003f4:	68fb      	ldr	r3, [r7, #12]
 80003f6:	f023 63e0 	bic.w	r3, r3, #117440512	; 0x7000000
 80003fa:	60fb      	str	r3, [r7, #12]
 80003fc:	68fb      	ldr	r3, [r7, #12]
 80003fe:	f043 7300 	orr.w	r3, r3, #33554432	; 0x2000000
 8000402:	60fb      	str	r3, [r7, #12]
 8000404:	4a04      	ldr	r2, [pc, #16]	; (8000418 <HAL_MspInit+0x60>)
 8000406:	68fb      	ldr	r3, [r7, #12]
 8000408:	6053      	str	r3, [r2, #4]

  /* USER CODE BEGIN MspInit 1 */

  /* USER CODE END MspInit 1 */
}
 800040a:	bf00      	nop
 800040c:	3714      	adds	r7, #20
 800040e:	46bd      	mov	sp, r7
 8000410:	bc80      	pop	{r7}
 8000412:	4770      	bx	lr
 8000414:	40021000 	.word	0x40021000
 8000418:	40010000 	.word	0x40010000

0800041c <HAL_UART_MspInit>:
* This function configures the hardware resources used in this example
* @param huart: UART handle pointer
* @retval None
*/
void HAL_UART_MspInit(UART_HandleTypeDef* huart)
{
 800041c:	b580      	push	{r7, lr}
 800041e:	b088      	sub	sp, #32
 8000420:	af00      	add	r7, sp, #0
 8000422:	6078      	str	r0, [r7, #4]
  GPIO_InitTypeDef GPIO_InitStruct = {0};
 8000424:	f107 0310 	add.w	r3, r7, #16
 8000428:	2200      	movs	r2, #0
 800042a:	601a      	str	r2, [r3, #0]
 800042c:	605a      	str	r2, [r3, #4]
 800042e:	609a      	str	r2, [r3, #8]
 8000430:	60da      	str	r2, [r3, #12]
  if(huart->Instance==USART1)
 8000432:	687b      	ldr	r3, [r7, #4]
 8000434:	681b      	ldr	r3, [r3, #0]
 8000436:	4a1c      	ldr	r2, [pc, #112]	; (80004a8 <HAL_UART_MspInit+0x8c>)
 8000438:	4293      	cmp	r3, r2
 800043a:	d131      	bne.n	80004a0 <HAL_UART_MspInit+0x84>
  {
  /* USER CODE BEGIN USART1_MspInit 0 */

  /* USER CODE END USART1_MspInit 0 */
    /* Peripheral clock enable */
    __HAL_RCC_USART1_CLK_ENABLE();
 800043c:	4b1b      	ldr	r3, [pc, #108]	; (80004ac <HAL_UART_MspInit+0x90>)
 800043e:	699b      	ldr	r3, [r3, #24]
 8000440:	4a1a      	ldr	r2, [pc, #104]	; (80004ac <HAL_UART_MspInit+0x90>)
 8000442:	f443 4380 	orr.w	r3, r3, #16384	; 0x4000
 8000446:	6193      	str	r3, [r2, #24]
 8000448:	4b18      	ldr	r3, [pc, #96]	; (80004ac <HAL_UART_MspInit+0x90>)
 800044a:	699b      	ldr	r3, [r3, #24]
 800044c:	f403 4380 	and.w	r3, r3, #16384	; 0x4000
 8000450:	60fb      	str	r3, [r7, #12]
 8000452:	68fb      	ldr	r3, [r7, #12]
  
    __HAL_RCC_GPIOA_CLK_ENABLE();
 8000454:	4b15      	ldr	r3, [pc, #84]	; (80004ac <HAL_UART_MspInit+0x90>)
 8000456:	699b      	ldr	r3, [r3, #24]
 8000458:	4a14      	ldr	r2, [pc, #80]	; (80004ac <HAL_UART_MspInit+0x90>)
 800045a:	f043 0304 	orr.w	r3, r3, #4
 800045e:	6193      	str	r3, [r2, #24]
 8000460:	4b12      	ldr	r3, [pc, #72]	; (80004ac <HAL_UART_MspInit+0x90>)
 8000462:	699b      	ldr	r3, [r3, #24]
 8000464:	f003 0304 	and.w	r3, r3, #4
 8000468:	60bb      	str	r3, [r7, #8]
 800046a:	68bb      	ldr	r3, [r7, #8]
    /**USART1 GPIO Configuration    
    PA9     ------> USART1_TX
    PA10     ------> USART1_RX 
    */
    GPIO_InitStruct.Pin = GPIO_PIN_9;
 800046c:	f44f 7300 	mov.w	r3, #512	; 0x200
 8000470:	613b      	str	r3, [r7, #16]
    GPIO_InitStruct.Mode = GPIO_MODE_AF_PP;
 8000472:	2302      	movs	r3, #2
 8000474:	617b      	str	r3, [r7, #20]
    GPIO_InitStruct.Speed = GPIO_SPEED_FREQ_HIGH;
 8000476:	2303      	movs	r3, #3
 8000478:	61fb      	str	r3, [r7, #28]
    HAL_GPIO_Init(GPIOA, &GPIO_InitStruct);
 800047a:	f107 0310 	add.w	r3, r7, #16
 800047e:	4619      	mov	r1, r3
 8000480:	480b      	ldr	r0, [pc, #44]	; (80004b0 <HAL_UART_MspInit+0x94>)
 8000482:	f000 fa03 	bl	800088c <HAL_GPIO_Init>

    GPIO_InitStruct.Pin = GPIO_PIN_10;
 8000486:	f44f 6380 	mov.w	r3, #1024	; 0x400
 800048a:	613b      	str	r3, [r7, #16]
    GPIO_InitStruct.Mode = GPIO_MODE_INPUT;
 800048c:	2300      	movs	r3, #0
 800048e:	617b      	str	r3, [r7, #20]
    GPIO_InitStruct.Pull = GPIO_NOPULL;
 8000490:	2300      	movs	r3, #0
 8000492:	61bb      	str	r3, [r7, #24]
    HAL_GPIO_Init(GPIOA, &GPIO_InitStruct);
 8000494:	f107 0310 	add.w	r3, r7, #16
 8000498:	4619      	mov	r1, r3
 800049a:	4805      	ldr	r0, [pc, #20]	; (80004b0 <HAL_UART_MspInit+0x94>)
 800049c:	f000 f9f6 	bl	800088c <HAL_GPIO_Init>
  /* USER CODE BEGIN USART1_MspInit 1 */

  /* USER CODE END USART1_MspInit 1 */
  }

}
 80004a0:	bf00      	nop
 80004a2:	3720      	adds	r7, #32
 80004a4:	46bd      	mov	sp, r7
 80004a6:	bd80      	pop	{r7, pc}
 80004a8:	40013800 	.word	0x40013800
 80004ac:	40021000 	.word	0x40021000
 80004b0:	40010800 	.word	0x40010800

080004b4 <NMI_Handler>:
/******************************************************************************/
/**
  * @brief This function handles Non maskable interrupt.
  */
void NMI_Handler(void)
{
 80004b4:	b480      	push	{r7}
 80004b6:	af00      	add	r7, sp, #0

  /* USER CODE END NonMaskableInt_IRQn 0 */
  /* USER CODE BEGIN NonMaskableInt_IRQn 1 */

  /* USER CODE END NonMaskableInt_IRQn 1 */
}
 80004b8:	bf00      	nop
 80004ba:	46bd      	mov	sp, r7
 80004bc:	bc80      	pop	{r7}
 80004be:	4770      	bx	lr

080004c0 <HardFault_Handler>:

/**
  * @brief This function handles Hard fault interrupt.
  */
void HardFault_Handler(void)
{
 80004c0:	b480      	push	{r7}
 80004c2:	af00      	add	r7, sp, #0
  /* USER CODE BEGIN HardFault_IRQn 0 */

  /* USER CODE END HardFault_IRQn 0 */
  while (1)
 80004c4:	e7fe      	b.n	80004c4 <HardFault_Handler+0x4>

080004c6 <MemManage_Handler>:

/**
  * @brief This function handles Memory management fault.
  */
void MemManage_Handler(void)
{
 80004c6:	b480      	push	{r7}
 80004c8:	af00      	add	r7, sp, #0
  /* USER CODE BEGIN MemoryManagement_IRQn 0 */

  /* USER CODE END MemoryManagement_IRQn 0 */
  while (1)
 80004ca:	e7fe      	b.n	80004ca <MemManage_Handler+0x4>

080004cc <BusFault_Handler>:

/**
  * @brief This function handles Prefetch fault, memory access fault.
  */
void BusFault_Handler(void)
{
 80004cc:	b480      	push	{r7}
 80004ce:	af00      	add	r7, sp, #0
  /* USER CODE BEGIN BusFault_IRQn 0 */

  /* USER CODE END BusFault_IRQn 0 */
  while (1)
 80004d0:	e7fe      	b.n	80004d0 <BusFault_Handler+0x4>

080004d2 <UsageFault_Handler>:

/**
  * @brief This function handles Undefined instruction or illegal state.
  */
void UsageFault_Handler(void)
{
 80004d2:	b480      	push	{r7}
 80004d4:	af00      	add	r7, sp, #0
  /* USER CODE BEGIN UsageFault_IRQn 0 */

  /* USER CODE END UsageFault_IRQn 0 */
  while (1)
 80004d6:	e7fe      	b.n	80004d6 <UsageFault_Handler+0x4>

080004d8 <SVC_Handler>:

/**
  * @brief This function handles System service call via SWI instruction.
  */
void SVC_Handler(void)
{
 80004d8:	b480      	push	{r7}
 80004da:	af00      	add	r7, sp, #0

  /* USER CODE END SVCall_IRQn 0 */
  /* USER CODE BEGIN SVCall_IRQn 1 */

  /* USER CODE END SVCall_IRQn 1 */
}
 80004dc:	bf00      	nop
 80004de:	46bd      	mov	sp, r7
 80004e0:	bc80      	pop	{r7}
 80004e2:	4770      	bx	lr

080004e4 <DebugMon_Handler>:

/**
  * @brief This function handles Debug monitor.
  */
void DebugMon_Handler(void)
{
 80004e4:	b480      	push	{r7}
 80004e6:	af00      	add	r7, sp, #0

  /* USER CODE END DebugMonitor_IRQn 0 */
  /* USER CODE BEGIN DebugMonitor_IRQn 1 */

  /* USER CODE END DebugMonitor_IRQn 1 */
}
 80004e8:	bf00      	nop
 80004ea:	46bd      	mov	sp, r7
 80004ec:	bc80      	pop	{r7}
 80004ee:	4770      	bx	lr

080004f0 <PendSV_Handler>:

/**
  * @brief This function handles Pendable request for system service.
  */
void PendSV_Handler(void)
{
 80004f0:	b480      	push	{r7}
 80004f2:	af00      	add	r7, sp, #0

  /* USER CODE END PendSV_IRQn 0 */
  /* USER CODE BEGIN PendSV_IRQn 1 */

  /* USER CODE END PendSV_IRQn 1 */
}
 80004f4:	bf00      	nop
 80004f6:	46bd      	mov	sp, r7
 80004f8:	bc80      	pop	{r7}
 80004fa:	4770      	bx	lr

080004fc <SysTick_Handler>:

/**
  * @brief This function handles System tick timer.
  */
void SysTick_Handler(void)
{
 80004fc:	b580      	push	{r7, lr}
 80004fe:	af00      	add	r7, sp, #0
  /* USER CODE BEGIN SysTick_IRQn 0 */

  /* USER CODE END SysTick_IRQn 0 */
  HAL_IncTick();
 8000500:	f000 f8a2 	bl	8000648 <HAL_IncTick>
  /* USER CODE BEGIN SysTick_IRQn 1 */

  /* USER CODE END SysTick_IRQn 1 */
}
 8000504:	bf00      	nop
 8000506:	bd80      	pop	{r7, pc}

08000508 <SystemInit>:
  * @note   This function should be used only after reset.
  * @param  None
  * @retval None
  */
void SystemInit (void)
{
 8000508:	b480      	push	{r7}
 800050a:	af00      	add	r7, sp, #0
  /* Reset the RCC clock configuration to the default reset state(for debug purpose) */
  /* Set HSION bit */
  RCC->CR |= 0x00000001U;
 800050c:	4b15      	ldr	r3, [pc, #84]	; (8000564 <SystemInit+0x5c>)
 800050e:	681b      	ldr	r3, [r3, #0]
 8000510:	4a14      	ldr	r2, [pc, #80]	; (8000564 <SystemInit+0x5c>)
 8000512:	f043 0301 	orr.w	r3, r3, #1
 8000516:	6013      	str	r3, [r2, #0]

  /* Reset SW, HPRE, PPRE1, PPRE2, ADCPRE and MCO bits */
#if !defined(STM32F105xC) && !defined(STM32F107xC)
  RCC->CFGR &= 0xF8FF0000U;
 8000518:	4b12      	ldr	r3, [pc, #72]	; (8000564 <SystemInit+0x5c>)
 800051a:	685a      	ldr	r2, [r3, #4]
 800051c:	4911      	ldr	r1, [pc, #68]	; (8000564 <SystemInit+0x5c>)
 800051e:	4b12      	ldr	r3, [pc, #72]	; (8000568 <SystemInit+0x60>)
 8000520:	4013      	ands	r3, r2
 8000522:	604b      	str	r3, [r1, #4]
#else
  RCC->CFGR &= 0xF0FF0000U;
#endif /* STM32F105xC */   
  
  /* Reset HSEON, CSSON and PLLON bits */
  RCC->CR &= 0xFEF6FFFFU;
 8000524:	4b0f      	ldr	r3, [pc, #60]	; (8000564 <SystemInit+0x5c>)
 8000526:	681b      	ldr	r3, [r3, #0]
 8000528:	4a0e      	ldr	r2, [pc, #56]	; (8000564 <SystemInit+0x5c>)
 800052a:	f023 7384 	bic.w	r3, r3, #17301504	; 0x1080000
 800052e:	f423 3380 	bic.w	r3, r3, #65536	; 0x10000
 8000532:	6013      	str	r3, [r2, #0]

  /* Reset HSEBYP bit */
  RCC->CR &= 0xFFFBFFFFU;
 8000534:	4b0b      	ldr	r3, [pc, #44]	; (8000564 <SystemInit+0x5c>)
 8000536:	681b      	ldr	r3, [r3, #0]
 8000538:	4a0a      	ldr	r2, [pc, #40]	; (8000564 <SystemInit+0x5c>)
 800053a:	f423 2380 	bic.w	r3, r3, #262144	; 0x40000
 800053e:	6013      	str	r3, [r2, #0]

  /* Reset PLLSRC, PLLXTPRE, PLLMUL and USBPRE/OTGFSPRE bits */
  RCC->CFGR &= 0xFF80FFFFU;
 8000540:	4b08      	ldr	r3, [pc, #32]	; (8000564 <SystemInit+0x5c>)
 8000542:	685b      	ldr	r3, [r3, #4]
 8000544:	4a07      	ldr	r2, [pc, #28]	; (8000564 <SystemInit+0x5c>)
 8000546:	f423 03fe 	bic.w	r3, r3, #8323072	; 0x7f0000
 800054a:	6053      	str	r3, [r2, #4]

  /* Reset CFGR2 register */
  RCC->CFGR2 = 0x00000000U;      
#else
  /* Disable all interrupts and clear pending bits  */
  RCC->CIR = 0x009F0000U;
 800054c:	4b05      	ldr	r3, [pc, #20]	; (8000564 <SystemInit+0x5c>)
 800054e:	f44f 021f 	mov.w	r2, #10420224	; 0x9f0000
 8000552:	609a      	str	r2, [r3, #8]
#endif 

#ifdef VECT_TAB_SRAM
  SCB->VTOR = SRAM_BASE | VECT_TAB_OFFSET; /* Vector Table Relocation in Internal SRAM. */
#else
  SCB->VTOR = FLASH_BASE | VECT_TAB_OFFSET; /* Vector Table Relocation in Internal FLASH. */
 8000554:	4b05      	ldr	r3, [pc, #20]	; (800056c <SystemInit+0x64>)
 8000556:	f04f 6200 	mov.w	r2, #134217728	; 0x8000000
 800055a:	609a      	str	r2, [r3, #8]
#endif 
}
 800055c:	bf00      	nop
 800055e:	46bd      	mov	sp, r7
 8000560:	bc80      	pop	{r7}
 8000562:	4770      	bx	lr
 8000564:	40021000 	.word	0x40021000
 8000568:	f8ff0000 	.word	0xf8ff0000
 800056c:	e000ed00 	.word	0xe000ed00

08000570 <Reset_Handler>:
  .weak Reset_Handler
  .type Reset_Handler, %function
Reset_Handler:

/* Copy the data segment initializers from flash to SRAM */
  movs r1, #0
 8000570:	2100      	movs	r1, #0
  b LoopCopyDataInit
 8000572:	e003      	b.n	800057c <LoopCopyDataInit>

08000574 <CopyDataInit>:

CopyDataInit:
  ldr r3, =_sidata
 8000574:	4b0b      	ldr	r3, [pc, #44]	; (80005a4 <LoopFillZerobss+0x14>)
  ldr r3, [r3, r1]
 8000576:	585b      	ldr	r3, [r3, r1]
  str r3, [r0, r1]
 8000578:	5043      	str	r3, [r0, r1]
  adds r1, r1, #4
 800057a:	3104      	adds	r1, #4

0800057c <LoopCopyDataInit>:

LoopCopyDataInit:
  ldr r0, =_sdata
 800057c:	480a      	ldr	r0, [pc, #40]	; (80005a8 <LoopFillZerobss+0x18>)
  ldr r3, =_edata
 800057e:	4b0b      	ldr	r3, [pc, #44]	; (80005ac <LoopFillZerobss+0x1c>)
  adds r2, r0, r1
 8000580:	1842      	adds	r2, r0, r1
  cmp r2, r3
 8000582:	429a      	cmp	r2, r3
  bcc CopyDataInit
 8000584:	d3f6      	bcc.n	8000574 <CopyDataInit>
  ldr r2, =_sbss
 8000586:	4a0a      	ldr	r2, [pc, #40]	; (80005b0 <LoopFillZerobss+0x20>)
  b LoopFillZerobss
 8000588:	e002      	b.n	8000590 <LoopFillZerobss>

0800058a <FillZerobss>:
/* Zero fill the bss segment. */
FillZerobss:
  movs r3, #0
 800058a:	2300      	movs	r3, #0
  str r3, [r2], #4
 800058c:	f842 3b04 	str.w	r3, [r2], #4

08000590 <LoopFillZerobss>:

LoopFillZerobss:
  ldr r3, = _ebss
 8000590:	4b08      	ldr	r3, [pc, #32]	; (80005b4 <LoopFillZerobss+0x24>)
  cmp r2, r3
 8000592:	429a      	cmp	r2, r3
  bcc FillZerobss
 8000594:	d3f9      	bcc.n	800058a <FillZerobss>

/* Call the clock system intitialization function.*/
    bl  SystemInit
 8000596:	f7ff ffb7 	bl	8000508 <SystemInit>
/* Call static constructors */
    bl __libc_init_array
 800059a:	f001 f9e9 	bl	8001970 <__libc_init_array>
/* Call the application's entry point.*/
  bl main
 800059e:	f7ff fdd5 	bl	800014c <main>
  bx lr
 80005a2:	4770      	bx	lr
  ldr r3, =_sidata
 80005a4:	08001a1c 	.word	0x08001a1c
  ldr r0, =_sdata
 80005a8:	20000000 	.word	0x20000000
  ldr r3, =_edata
 80005ac:	2000000c 	.word	0x2000000c
  ldr r2, =_sbss
 80005b0:	2000000c 	.word	0x2000000c
  ldr r3, = _ebss
 80005b4:	2000006c 	.word	0x2000006c

080005b8 <ADC1_2_IRQHandler>:
 * @retval : None
*/
    .section .text.Default_Handler,"ax",%progbits
Default_Handler:
Infinite_Loop:
  b Infinite_Loop
 80005b8:	e7fe      	b.n	80005b8 <ADC1_2_IRQHandler>
	...

080005bc <HAL_Init>:
  *         need to ensure that the SysTick time base is always set to 1 millisecond
  *         to have correct HAL operation.
  * @retval HAL status
  */
HAL_StatusTypeDef HAL_Init(void)
{
 80005bc:	b580      	push	{r7, lr}
 80005be:	af00      	add	r7, sp, #0
    defined(STM32F102x6) || defined(STM32F102xB) || \
    defined(STM32F103x6) || defined(STM32F103xB) || defined(STM32F103xE) || defined(STM32F103xG) || \
    defined(STM32F105xC) || defined(STM32F107xC)

  /* Prefetch buffer is not available on value line devices */
  __HAL_FLASH_PREFETCH_BUFFER_ENABLE();
 80005c0:	4b08      	ldr	r3, [pc, #32]	; (80005e4 <HAL_Init+0x28>)
 80005c2:	681b      	ldr	r3, [r3, #0]
 80005c4:	4a07      	ldr	r2, [pc, #28]	; (80005e4 <HAL_Init+0x28>)
 80005c6:	f043 0310 	orr.w	r3, r3, #16
 80005ca:	6013      	str	r3, [r2, #0]
#endif
#endif /* PREFETCH_ENABLE */

  /* Set Interrupt Group Priority */
  HAL_NVIC_SetPriorityGrouping(NVIC_PRIORITYGROUP_4);
 80005cc:	2003      	movs	r0, #3
 80005ce:	f000 f929 	bl	8000824 <HAL_NVIC_SetPriorityGrouping>

  /* Use systick as time base source and configure 1ms tick (default clock after Reset is HSI) */
  HAL_InitTick(TICK_INT_PRIORITY);
 80005d2:	2000      	movs	r0, #0
 80005d4:	f000 f808 	bl	80005e8 <HAL_InitTick>

  /* Init the low level hardware */
  HAL_MspInit();
 80005d8:	f7ff feee 	bl	80003b8 <HAL_MspInit>

  /* Return function status */
  return HAL_OK;
 80005dc:	2300      	movs	r3, #0
}
 80005de:	4618      	mov	r0, r3
 80005e0:	bd80      	pop	{r7, pc}
 80005e2:	bf00      	nop
 80005e4:	40022000 	.word	0x40022000

080005e8 <HAL_InitTick>:
  *       implementation  in user file.
  * @param TickPriority Tick interrupt priority.
  * @retval HAL status
  */
__weak HAL_StatusTypeDef HAL_InitTick(uint32_t TickPriority)
{
 80005e8:	b580      	push	{r7, lr}
 80005ea:	b082      	sub	sp, #8
 80005ec:	af00      	add	r7, sp, #0
 80005ee:	6078      	str	r0, [r7, #4]
  /* Configure the SysTick to have interrupt in 1ms time basis*/
  if (HAL_SYSTICK_Config(SystemCoreClock / (1000U / uwTickFreq)) > 0U)
 80005f0:	4b12      	ldr	r3, [pc, #72]	; (800063c <HAL_InitTick+0x54>)
 80005f2:	681a      	ldr	r2, [r3, #0]
 80005f4:	4b12      	ldr	r3, [pc, #72]	; (8000640 <HAL_InitTick+0x58>)
 80005f6:	781b      	ldrb	r3, [r3, #0]
 80005f8:	4619      	mov	r1, r3
 80005fa:	f44f 737a 	mov.w	r3, #1000	; 0x3e8
 80005fe:	fbb3 f3f1 	udiv	r3, r3, r1
 8000602:	fbb2 f3f3 	udiv	r3, r2, r3
 8000606:	4618      	mov	r0, r3
 8000608:	f000 f933 	bl	8000872 <HAL_SYSTICK_Config>
 800060c:	4603      	mov	r3, r0
 800060e:	2b00      	cmp	r3, #0
 8000610:	d001      	beq.n	8000616 <HAL_InitTick+0x2e>
  {
    return HAL_ERROR;
 8000612:	2301      	movs	r3, #1
 8000614:	e00e      	b.n	8000634 <HAL_InitTick+0x4c>
  }

  /* Configure the SysTick IRQ priority */
  if (TickPriority < (1UL << __NVIC_PRIO_BITS))
 8000616:	687b      	ldr	r3, [r7, #4]
 8000618:	2b0f      	cmp	r3, #15
 800061a:	d80a      	bhi.n	8000632 <HAL_InitTick+0x4a>
  {
    HAL_NVIC_SetPriority(SysTick_IRQn, TickPriority, 0U);
 800061c:	2200      	movs	r2, #0
 800061e:	6879      	ldr	r1, [r7, #4]
 8000620:	f04f 30ff 	mov.w	r0, #4294967295	; 0xffffffff
 8000624:	f000 f909 	bl	800083a <HAL_NVIC_SetPriority>
    uwTickPrio = TickPriority;
 8000628:	4a06      	ldr	r2, [pc, #24]	; (8000644 <HAL_InitTick+0x5c>)
 800062a:	687b      	ldr	r3, [r7, #4]
 800062c:	6013      	str	r3, [r2, #0]
  {
    return HAL_ERROR;
  }

  /* Return function status */
  return HAL_OK;
 800062e:	2300      	movs	r3, #0
 8000630:	e000      	b.n	8000634 <HAL_InitTick+0x4c>
    return HAL_ERROR;
 8000632:	2301      	movs	r3, #1
}
 8000634:	4618      	mov	r0, r3
 8000636:	3708      	adds	r7, #8
 8000638:	46bd      	mov	sp, r7
 800063a:	bd80      	pop	{r7, pc}
 800063c:	20000000 	.word	0x20000000
 8000640:	20000008 	.word	0x20000008
 8000644:	20000004 	.word	0x20000004

08000648 <HAL_IncTick>:
  * @note This function is declared as __weak to be overwritten in case of other
  *      implementations in user file.
  * @retval None
  */
__weak void HAL_IncTick(void)
{
 8000648:	b480      	push	{r7}
 800064a:	af00      	add	r7, sp, #0
  uwTick += uwTickFreq;
 800064c:	4b05      	ldr	r3, [pc, #20]	; (8000664 <HAL_IncTick+0x1c>)
 800064e:	781b      	ldrb	r3, [r3, #0]
 8000650:	461a      	mov	r2, r3
 8000652:	4b05      	ldr	r3, [pc, #20]	; (8000668 <HAL_IncTick+0x20>)
 8000654:	681b      	ldr	r3, [r3, #0]
 8000656:	4413      	add	r3, r2
 8000658:	4a03      	ldr	r2, [pc, #12]	; (8000668 <HAL_IncTick+0x20>)
 800065a:	6013      	str	r3, [r2, #0]
}
 800065c:	bf00      	nop
 800065e:	46bd      	mov	sp, r7
 8000660:	bc80      	pop	{r7}
 8000662:	4770      	bx	lr
 8000664:	20000008 	.word	0x20000008
 8000668:	20000068 	.word	0x20000068

0800066c <HAL_GetTick>:
  * @note  This function is declared as __weak to be overwritten in case of other
  *       implementations in user file.
  * @retval tick value
  */
__weak uint32_t HAL_GetTick(void)
{
 800066c:	b480      	push	{r7}
 800066e:	af00      	add	r7, sp, #0
  return uwTick;
 8000670:	4b02      	ldr	r3, [pc, #8]	; (800067c <HAL_GetTick+0x10>)
 8000672:	681b      	ldr	r3, [r3, #0]
}
 8000674:	4618      	mov	r0, r3
 8000676:	46bd      	mov	sp, r7
 8000678:	bc80      	pop	{r7}
 800067a:	4770      	bx	lr
 800067c:	20000068 	.word	0x20000068

08000680 <HAL_Delay>:
  *       implementations in user file.
  * @param Delay specifies the delay time length, in milliseconds.
  * @retval None
  */
__weak void HAL_Delay(uint32_t Delay)
{
 8000680:	b580      	push	{r7, lr}
 8000682:	b084      	sub	sp, #16
 8000684:	af00      	add	r7, sp, #0
 8000686:	6078      	str	r0, [r7, #4]
  uint32_t tickstart = HAL_GetTick();
 8000688:	f7ff fff0 	bl	800066c <HAL_GetTick>
 800068c:	60b8      	str	r0, [r7, #8]
  uint32_t wait = Delay;
 800068e:	687b      	ldr	r3, [r7, #4]
 8000690:	60fb      	str	r3, [r7, #12]

  /* Add a freq to guarantee minimum wait */
  if (wait < HAL_MAX_DELAY)
 8000692:	68fb      	ldr	r3, [r7, #12]
 8000694:	f1b3 3fff 	cmp.w	r3, #4294967295	; 0xffffffff
 8000698:	d005      	beq.n	80006a6 <HAL_Delay+0x26>
  {
    wait += (uint32_t)(uwTickFreq);
 800069a:	4b09      	ldr	r3, [pc, #36]	; (80006c0 <HAL_Delay+0x40>)
 800069c:	781b      	ldrb	r3, [r3, #0]
 800069e:	461a      	mov	r2, r3
 80006a0:	68fb      	ldr	r3, [r7, #12]
 80006a2:	4413      	add	r3, r2
 80006a4:	60fb      	str	r3, [r7, #12]
  }

  while ((HAL_GetTick() - tickstart) < wait)
 80006a6:	bf00      	nop
 80006a8:	f7ff ffe0 	bl	800066c <HAL_GetTick>
 80006ac:	4602      	mov	r2, r0
 80006ae:	68bb      	ldr	r3, [r7, #8]
 80006b0:	1ad3      	subs	r3, r2, r3
 80006b2:	68fa      	ldr	r2, [r7, #12]
 80006b4:	429a      	cmp	r2, r3
 80006b6:	d8f7      	bhi.n	80006a8 <HAL_Delay+0x28>
  {
  }
}
 80006b8:	bf00      	nop
 80006ba:	3710      	adds	r7, #16
 80006bc:	46bd      	mov	sp, r7
 80006be:	bd80      	pop	{r7, pc}
 80006c0:	20000008 	.word	0x20000008

080006c4 <__NVIC_SetPriorityGrouping>:
           In case of a conflict between priority grouping and available
           priority bits (__NVIC_PRIO_BITS), the smallest possible priority group is set.
  \param [in]      PriorityGroup  Priority grouping field.
 */
__STATIC_INLINE void __NVIC_SetPriorityGrouping(uint32_t PriorityGroup)
{
 80006c4:	b480      	push	{r7}
 80006c6:	b085      	sub	sp, #20
 80006c8:	af00      	add	r7, sp, #0
 80006ca:	6078      	str	r0, [r7, #4]
  uint32_t reg_value;
  uint32_t PriorityGroupTmp = (PriorityGroup & (uint32_t)0x07UL);             /* only values 0..7 are used          */
 80006cc:	687b      	ldr	r3, [r7, #4]
 80006ce:	f003 0307 	and.w	r3, r3, #7
 80006d2:	60fb      	str	r3, [r7, #12]

  reg_value  =  SCB->AIRCR;                                                   /* read old register configuration    */
 80006d4:	4b0c      	ldr	r3, [pc, #48]	; (8000708 <__NVIC_SetPriorityGrouping+0x44>)
 80006d6:	68db      	ldr	r3, [r3, #12]
 80006d8:	60bb      	str	r3, [r7, #8]
  reg_value &= ~((uint32_t)(SCB_AIRCR_VECTKEY_Msk | SCB_AIRCR_PRIGROUP_Msk)); /* clear bits to change               */
 80006da:	68ba      	ldr	r2, [r7, #8]
 80006dc:	f64f 03ff 	movw	r3, #63743	; 0xf8ff
 80006e0:	4013      	ands	r3, r2
 80006e2:	60bb      	str	r3, [r7, #8]
  reg_value  =  (reg_value                                   |
                ((uint32_t)0x5FAUL << SCB_AIRCR_VECTKEY_Pos) |
                (PriorityGroupTmp << SCB_AIRCR_PRIGROUP_Pos) );               /* Insert write key and priority group */
 80006e4:	68fb      	ldr	r3, [r7, #12]
 80006e6:	021a      	lsls	r2, r3, #8
                ((uint32_t)0x5FAUL << SCB_AIRCR_VECTKEY_Pos) |
 80006e8:	68bb      	ldr	r3, [r7, #8]
 80006ea:	4313      	orrs	r3, r2
  reg_value  =  (reg_value                                   |
 80006ec:	f043 63bf 	orr.w	r3, r3, #100139008	; 0x5f80000
 80006f0:	f443 3300 	orr.w	r3, r3, #131072	; 0x20000
 80006f4:	60bb      	str	r3, [r7, #8]
  SCB->AIRCR =  reg_value;
 80006f6:	4a04      	ldr	r2, [pc, #16]	; (8000708 <__NVIC_SetPriorityGrouping+0x44>)
 80006f8:	68bb      	ldr	r3, [r7, #8]
 80006fa:	60d3      	str	r3, [r2, #12]
}
 80006fc:	bf00      	nop
 80006fe:	3714      	adds	r7, #20
 8000700:	46bd      	mov	sp, r7
 8000702:	bc80      	pop	{r7}
 8000704:	4770      	bx	lr
 8000706:	bf00      	nop
 8000708:	e000ed00 	.word	0xe000ed00

0800070c <__NVIC_GetPriorityGrouping>:
  \brief   Get Priority Grouping
  \details Reads the priority grouping field from the NVIC Interrupt Controller.
  \return                Priority grouping field (SCB->AIRCR [10:8] PRIGROUP field).
 */
__STATIC_INLINE uint32_t __NVIC_GetPriorityGrouping(void)
{
 800070c:	b480      	push	{r7}
 800070e:	af00      	add	r7, sp, #0
  return ((uint32_t)((SCB->AIRCR & SCB_AIRCR_PRIGROUP_Msk) >> SCB_AIRCR_PRIGROUP_Pos));
 8000710:	4b04      	ldr	r3, [pc, #16]	; (8000724 <__NVIC_GetPriorityGrouping+0x18>)
 8000712:	68db      	ldr	r3, [r3, #12]
 8000714:	0a1b      	lsrs	r3, r3, #8
 8000716:	f003 0307 	and.w	r3, r3, #7
}
 800071a:	4618      	mov	r0, r3
 800071c:	46bd      	mov	sp, r7
 800071e:	bc80      	pop	{r7}
 8000720:	4770      	bx	lr
 8000722:	bf00      	nop
 8000724:	e000ed00 	.word	0xe000ed00

08000728 <__NVIC_SetPriority>:
  \param [in]      IRQn  Interrupt number.
  \param [in]  priority  Priority to set.
  \note    The priority cannot be set for every processor exception.
 */
__STATIC_INLINE void __NVIC_SetPriority(IRQn_Type IRQn, uint32_t priority)
{
 8000728:	b480      	push	{r7}
 800072a:	b083      	sub	sp, #12
 800072c:	af00      	add	r7, sp, #0
 800072e:	4603      	mov	r3, r0
 8000730:	6039      	str	r1, [r7, #0]
 8000732:	71fb      	strb	r3, [r7, #7]
  if ((int32_t)(IRQn) >= 0)
 8000734:	f997 3007 	ldrsb.w	r3, [r7, #7]
 8000738:	2b00      	cmp	r3, #0
 800073a:	db0a      	blt.n	8000752 <__NVIC_SetPriority+0x2a>
  {
    NVIC->IP[((uint32_t)IRQn)]               = (uint8_t)((priority << (8U - __NVIC_PRIO_BITS)) & (uint32_t)0xFFUL);
 800073c:	683b      	ldr	r3, [r7, #0]
 800073e:	b2da      	uxtb	r2, r3
 8000740:	490c      	ldr	r1, [pc, #48]	; (8000774 <__NVIC_SetPriority+0x4c>)
 8000742:	f997 3007 	ldrsb.w	r3, [r7, #7]
 8000746:	0112      	lsls	r2, r2, #4
 8000748:	b2d2      	uxtb	r2, r2
 800074a:	440b      	add	r3, r1
 800074c:	f883 2300 	strb.w	r2, [r3, #768]	; 0x300
  }
  else
  {
    SCB->SHP[(((uint32_t)IRQn) & 0xFUL)-4UL] = (uint8_t)((priority << (8U - __NVIC_PRIO_BITS)) & (uint32_t)0xFFUL);
  }
}
 8000750:	e00a      	b.n	8000768 <__NVIC_SetPriority+0x40>
    SCB->SHP[(((uint32_t)IRQn) & 0xFUL)-4UL] = (uint8_t)((priority << (8U - __NVIC_PRIO_BITS)) & (uint32_t)0xFFUL);
 8000752:	683b      	ldr	r3, [r7, #0]
 8000754:	b2da      	uxtb	r2, r3
 8000756:	4908      	ldr	r1, [pc, #32]	; (8000778 <__NVIC_SetPriority+0x50>)
 8000758:	79fb      	ldrb	r3, [r7, #7]
 800075a:	f003 030f 	and.w	r3, r3, #15
 800075e:	3b04      	subs	r3, #4
 8000760:	0112      	lsls	r2, r2, #4
 8000762:	b2d2      	uxtb	r2, r2
 8000764:	440b      	add	r3, r1
 8000766:	761a      	strb	r2, [r3, #24]
}
 8000768:	bf00      	nop
 800076a:	370c      	adds	r7, #12
 800076c:	46bd      	mov	sp, r7
 800076e:	bc80      	pop	{r7}
 8000770:	4770      	bx	lr
 8000772:	bf00      	nop
 8000774:	e000e100 	.word	0xe000e100
 8000778:	e000ed00 	.word	0xe000ed00

0800077c <NVIC_EncodePriority>:
  \param [in]   PreemptPriority  Preemptive priority value (starting from 0).
  \param [in]       SubPriority  Subpriority value (starting from 0).
  \return                        Encoded priority. Value can be used in the function \ref NVIC_SetPriority().
 */
__STATIC_INLINE uint32_t NVIC_EncodePriority (uint32_t PriorityGroup, uint32_t PreemptPriority, uint32_t SubPriority)
{
 800077c:	b480      	push	{r7}
 800077e:	b089      	sub	sp, #36	; 0x24
 8000780:	af00      	add	r7, sp, #0
 8000782:	60f8      	str	r0, [r7, #12]
 8000784:	60b9      	str	r1, [r7, #8]
 8000786:	607a      	str	r2, [r7, #4]
  uint32_t PriorityGroupTmp = (PriorityGroup & (uint32_t)0x07UL);   /* only values 0..7 are used          */
 8000788:	68fb      	ldr	r3, [r7, #12]
 800078a:	f003 0307 	and.w	r3, r3, #7
 800078e:	61fb      	str	r3, [r7, #28]
  uint32_t PreemptPriorityBits;
  uint32_t SubPriorityBits;

  PreemptPriorityBits = ((7UL - PriorityGroupTmp) > (uint32_t)(__NVIC_PRIO_BITS)) ? (uint32_t)(__NVIC_PRIO_BITS) : (uint32_t)(7UL - PriorityGroupTmp);
 8000790:	69fb      	ldr	r3, [r7, #28]
 8000792:	f1c3 0307 	rsb	r3, r3, #7
 8000796:	2b04      	cmp	r3, #4
 8000798:	bf28      	it	cs
 800079a:	2304      	movcs	r3, #4
 800079c:	61bb      	str	r3, [r7, #24]
  SubPriorityBits     = ((PriorityGroupTmp + (uint32_t)(__NVIC_PRIO_BITS)) < (uint32_t)7UL) ? (uint32_t)0UL : (uint32_t)((PriorityGroupTmp - 7UL) + (uint32_t)(__NVIC_PRIO_BITS));
 800079e:	69fb      	ldr	r3, [r7, #28]
 80007a0:	3304      	adds	r3, #4
 80007a2:	2b06      	cmp	r3, #6
 80007a4:	d902      	bls.n	80007ac <NVIC_EncodePriority+0x30>
 80007a6:	69fb      	ldr	r3, [r7, #28]
 80007a8:	3b03      	subs	r3, #3
 80007aa:	e000      	b.n	80007ae <NVIC_EncodePriority+0x32>
 80007ac:	2300      	movs	r3, #0
 80007ae:	617b      	str	r3, [r7, #20]

  return (
           ((PreemptPriority & (uint32_t)((1UL << (PreemptPriorityBits)) - 1UL)) << SubPriorityBits) |
 80007b0:	f04f 32ff 	mov.w	r2, #4294967295	; 0xffffffff
 80007b4:	69bb      	ldr	r3, [r7, #24]
 80007b6:	fa02 f303 	lsl.w	r3, r2, r3
 80007ba:	43da      	mvns	r2, r3
 80007bc:	68bb      	ldr	r3, [r7, #8]
 80007be:	401a      	ands	r2, r3
 80007c0:	697b      	ldr	r3, [r7, #20]
 80007c2:	409a      	lsls	r2, r3
           ((SubPriority     & (uint32_t)((1UL << (SubPriorityBits    )) - 1UL)))
 80007c4:	f04f 31ff 	mov.w	r1, #4294967295	; 0xffffffff
 80007c8:	697b      	ldr	r3, [r7, #20]
 80007ca:	fa01 f303 	lsl.w	r3, r1, r3
 80007ce:	43d9      	mvns	r1, r3
 80007d0:	687b      	ldr	r3, [r7, #4]
 80007d2:	400b      	ands	r3, r1
           ((PreemptPriority & (uint32_t)((1UL << (PreemptPriorityBits)) - 1UL)) << SubPriorityBits) |
 80007d4:	4313      	orrs	r3, r2
         );
}
 80007d6:	4618      	mov	r0, r3
 80007d8:	3724      	adds	r7, #36	; 0x24
 80007da:	46bd      	mov	sp, r7
 80007dc:	bc80      	pop	{r7}
 80007de:	4770      	bx	lr

080007e0 <SysTick_Config>:
  \note    When the variable <b>__Vendor_SysTickConfig</b> is set to 1, then the
           function <b>SysTick_Config</b> is not included. In this case, the file <b><i>device</i>.h</b>
           must contain a vendor-specific implementation of this function.
 */
__STATIC_INLINE uint32_t SysTick_Config(uint32_t ticks)
{
 80007e0:	b580      	push	{r7, lr}
 80007e2:	b082      	sub	sp, #8
 80007e4:	af00      	add	r7, sp, #0
 80007e6:	6078      	str	r0, [r7, #4]
  if ((ticks - 1UL) > SysTick_LOAD_RELOAD_Msk)
 80007e8:	687b      	ldr	r3, [r7, #4]
 80007ea:	3b01      	subs	r3, #1
 80007ec:	f1b3 7f80 	cmp.w	r3, #16777216	; 0x1000000
 80007f0:	d301      	bcc.n	80007f6 <SysTick_Config+0x16>
  {
    return (1UL);                                                   /* Reload value impossible */
 80007f2:	2301      	movs	r3, #1
 80007f4:	e00f      	b.n	8000816 <SysTick_Config+0x36>
  }

  SysTick->LOAD  = (uint32_t)(ticks - 1UL);                         /* set reload register */
 80007f6:	4a0a      	ldr	r2, [pc, #40]	; (8000820 <SysTick_Config+0x40>)
 80007f8:	687b      	ldr	r3, [r7, #4]
 80007fa:	3b01      	subs	r3, #1
 80007fc:	6053      	str	r3, [r2, #4]
  NVIC_SetPriority (SysTick_IRQn, (1UL << __NVIC_PRIO_BITS) - 1UL); /* set Priority for Systick Interrupt */
 80007fe:	210f      	movs	r1, #15
 8000800:	f04f 30ff 	mov.w	r0, #4294967295	; 0xffffffff
 8000804:	f7ff ff90 	bl	8000728 <__NVIC_SetPriority>
  SysTick->VAL   = 0UL;                                             /* Load the SysTick Counter Value */
 8000808:	4b05      	ldr	r3, [pc, #20]	; (8000820 <SysTick_Config+0x40>)
 800080a:	2200      	movs	r2, #0
 800080c:	609a      	str	r2, [r3, #8]
  SysTick->CTRL  = SysTick_CTRL_CLKSOURCE_Msk |
 800080e:	4b04      	ldr	r3, [pc, #16]	; (8000820 <SysTick_Config+0x40>)
 8000810:	2207      	movs	r2, #7
 8000812:	601a      	str	r2, [r3, #0]
                   SysTick_CTRL_TICKINT_Msk   |
                   SysTick_CTRL_ENABLE_Msk;                         /* Enable SysTick IRQ and SysTick Timer */
  return (0UL);                                                     /* Function successful */
 8000814:	2300      	movs	r3, #0
}
 8000816:	4618      	mov	r0, r3
 8000818:	3708      	adds	r7, #8
 800081a:	46bd      	mov	sp, r7
 800081c:	bd80      	pop	{r7, pc}
 800081e:	bf00      	nop
 8000820:	e000e010 	.word	0xe000e010

08000824 <HAL_NVIC_SetPriorityGrouping>:
  * @note   When the NVIC_PriorityGroup_0 is selected, IRQ preemption is no more possible. 
  *         The pending IRQ priority will be managed only by the subpriority. 
  * @retval None
  */
void HAL_NVIC_SetPriorityGrouping(uint32_t PriorityGroup)
{
 8000824:	b580      	push	{r7, lr}
 8000826:	b082      	sub	sp, #8
 8000828:	af00      	add	r7, sp, #0
 800082a:	6078      	str	r0, [r7, #4]
  /* Check the parameters */
  assert_param(IS_NVIC_PRIORITY_GROUP(PriorityGroup));
  
  /* Set the PRIGROUP[10:8] bits according to the PriorityGroup parameter value */
  NVIC_SetPriorityGrouping(PriorityGroup);
 800082c:	6878      	ldr	r0, [r7, #4]
 800082e:	f7ff ff49 	bl	80006c4 <__NVIC_SetPriorityGrouping>
}
 8000832:	bf00      	nop
 8000834:	3708      	adds	r7, #8
 8000836:	46bd      	mov	sp, r7
 8000838:	bd80      	pop	{r7, pc}

0800083a <HAL_NVIC_SetPriority>:
  *         This parameter can be a value between 0 and 15
  *         A lower priority value indicates a higher priority.          
  * @retval None
  */
void HAL_NVIC_SetPriority(IRQn_Type IRQn, uint32_t PreemptPriority, uint32_t SubPriority)
{ 
 800083a:	b580      	push	{r7, lr}
 800083c:	b086      	sub	sp, #24
 800083e:	af00      	add	r7, sp, #0
 8000840:	4603      	mov	r3, r0
 8000842:	60b9      	str	r1, [r7, #8]
 8000844:	607a      	str	r2, [r7, #4]
 8000846:	73fb      	strb	r3, [r7, #15]
  uint32_t prioritygroup = 0x00U;
 8000848:	2300      	movs	r3, #0
 800084a:	617b      	str	r3, [r7, #20]
  
  /* Check the parameters */
  assert_param(IS_NVIC_SUB_PRIORITY(SubPriority));
  assert_param(IS_NVIC_PREEMPTION_PRIORITY(PreemptPriority));
  
  prioritygroup = NVIC_GetPriorityGrouping();
 800084c:	f7ff ff5e 	bl	800070c <__NVIC_GetPriorityGrouping>
 8000850:	6178      	str	r0, [r7, #20]
  
  NVIC_SetPriority(IRQn, NVIC_EncodePriority(prioritygroup, PreemptPriority, SubPriority));
 8000852:	687a      	ldr	r2, [r7, #4]
 8000854:	68b9      	ldr	r1, [r7, #8]
 8000856:	6978      	ldr	r0, [r7, #20]
 8000858:	f7ff ff90 	bl	800077c <NVIC_EncodePriority>
 800085c:	4602      	mov	r2, r0
 800085e:	f997 300f 	ldrsb.w	r3, [r7, #15]
 8000862:	4611      	mov	r1, r2
 8000864:	4618      	mov	r0, r3
 8000866:	f7ff ff5f 	bl	8000728 <__NVIC_SetPriority>
}
 800086a:	bf00      	nop
 800086c:	3718      	adds	r7, #24
 800086e:	46bd      	mov	sp, r7
 8000870:	bd80      	pop	{r7, pc}

08000872 <HAL_SYSTICK_Config>:
  * @param  TicksNumb: Specifies the ticks Number of ticks between two interrupts.
  * @retval status:  - 0  Function succeeded.
  *                  - 1  Function failed.
  */
uint32_t HAL_SYSTICK_Config(uint32_t TicksNumb)
{
 8000872:	b580      	push	{r7, lr}
 8000874:	b082      	sub	sp, #8
 8000876:	af00      	add	r7, sp, #0
 8000878:	6078      	str	r0, [r7, #4]
   return SysTick_Config(TicksNumb);
 800087a:	6878      	ldr	r0, [r7, #4]
 800087c:	f7ff ffb0 	bl	80007e0 <SysTick_Config>
 8000880:	4603      	mov	r3, r0
}
 8000882:	4618      	mov	r0, r3
 8000884:	3708      	adds	r7, #8
 8000886:	46bd      	mov	sp, r7
 8000888:	bd80      	pop	{r7, pc}
	...

0800088c <HAL_GPIO_Init>:
  * @param  GPIO_Init: pointer to a GPIO_InitTypeDef structure that contains
  *         the configuration information for the specified GPIO peripheral.
  * @retval None
  */
void HAL_GPIO_Init(GPIO_TypeDef  *GPIOx, GPIO_InitTypeDef *GPIO_Init)
{
 800088c:	b480      	push	{r7}
 800088e:	b08b      	sub	sp, #44	; 0x2c
 8000890:	af00      	add	r7, sp, #0
 8000892:	6078      	str	r0, [r7, #4]
 8000894:	6039      	str	r1, [r7, #0]
  uint32_t position = 0x00u;
 8000896:	2300      	movs	r3, #0
 8000898:	627b      	str	r3, [r7, #36]	; 0x24
  uint32_t ioposition;
  uint32_t iocurrent;
  uint32_t temp;
  uint32_t config = 0x00u;
 800089a:	2300      	movs	r3, #0
 800089c:	623b      	str	r3, [r7, #32]
  assert_param(IS_GPIO_ALL_INSTANCE(GPIOx));
  assert_param(IS_GPIO_PIN(GPIO_Init->Pin));
  assert_param(IS_GPIO_MODE(GPIO_Init->Mode));

  /* Configure the port pins */
  while (((GPIO_Init->Pin) >> position) != 0x00u)
 800089e:	e127      	b.n	8000af0 <HAL_GPIO_Init+0x264>
  {
    /* Get the IO position */
    ioposition = (0x01uL << position);
 80008a0:	2201      	movs	r2, #1
 80008a2:	6a7b      	ldr	r3, [r7, #36]	; 0x24
 80008a4:	fa02 f303 	lsl.w	r3, r2, r3
 80008a8:	61fb      	str	r3, [r7, #28]

    /* Get the current IO position */
    iocurrent = (uint32_t)(GPIO_Init->Pin) & ioposition;
 80008aa:	683b      	ldr	r3, [r7, #0]
 80008ac:	681b      	ldr	r3, [r3, #0]
 80008ae:	69fa      	ldr	r2, [r7, #28]
 80008b0:	4013      	ands	r3, r2
 80008b2:	61bb      	str	r3, [r7, #24]

    if (iocurrent == ioposition)
 80008b4:	69ba      	ldr	r2, [r7, #24]
 80008b6:	69fb      	ldr	r3, [r7, #28]
 80008b8:	429a      	cmp	r2, r3
 80008ba:	f040 8116 	bne.w	8000aea <HAL_GPIO_Init+0x25e>
    {
      /* Check the Alternate function parameters */
      assert_param(IS_GPIO_AF_INSTANCE(GPIOx));

      /* Based on the required mode, filling config variable with MODEy[1:0] and CNFy[3:2] corresponding bits */
      switch (GPIO_Init->Mode)
 80008be:	683b      	ldr	r3, [r7, #0]
 80008c0:	685b      	ldr	r3, [r3, #4]
 80008c2:	2b12      	cmp	r3, #18
 80008c4:	d034      	beq.n	8000930 <HAL_GPIO_Init+0xa4>
 80008c6:	2b12      	cmp	r3, #18
 80008c8:	d80d      	bhi.n	80008e6 <HAL_GPIO_Init+0x5a>
 80008ca:	2b02      	cmp	r3, #2
 80008cc:	d02b      	beq.n	8000926 <HAL_GPIO_Init+0x9a>
 80008ce:	2b02      	cmp	r3, #2
 80008d0:	d804      	bhi.n	80008dc <HAL_GPIO_Init+0x50>
 80008d2:	2b00      	cmp	r3, #0
 80008d4:	d031      	beq.n	800093a <HAL_GPIO_Init+0xae>
 80008d6:	2b01      	cmp	r3, #1
 80008d8:	d01c      	beq.n	8000914 <HAL_GPIO_Init+0x88>
          config = GPIO_CR_MODE_INPUT + GPIO_CR_CNF_ANALOG;
          break;

        /* Parameters are checked with assert_param */
        default:
          break;
 80008da:	e048      	b.n	800096e <HAL_GPIO_Init+0xe2>
      switch (GPIO_Init->Mode)
 80008dc:	2b03      	cmp	r3, #3
 80008de:	d043      	beq.n	8000968 <HAL_GPIO_Init+0xdc>
 80008e0:	2b11      	cmp	r3, #17
 80008e2:	d01b      	beq.n	800091c <HAL_GPIO_Init+0x90>
          break;
 80008e4:	e043      	b.n	800096e <HAL_GPIO_Init+0xe2>
      switch (GPIO_Init->Mode)
 80008e6:	4a89      	ldr	r2, [pc, #548]	; (8000b0c <HAL_GPIO_Init+0x280>)
 80008e8:	4293      	cmp	r3, r2
 80008ea:	d026      	beq.n	800093a <HAL_GPIO_Init+0xae>
 80008ec:	4a87      	ldr	r2, [pc, #540]	; (8000b0c <HAL_GPIO_Init+0x280>)
 80008ee:	4293      	cmp	r3, r2
 80008f0:	d806      	bhi.n	8000900 <HAL_GPIO_Init+0x74>
 80008f2:	4a87      	ldr	r2, [pc, #540]	; (8000b10 <HAL_GPIO_Init+0x284>)
 80008f4:	4293      	cmp	r3, r2
 80008f6:	d020      	beq.n	800093a <HAL_GPIO_Init+0xae>
 80008f8:	4a86      	ldr	r2, [pc, #536]	; (8000b14 <HAL_GPIO_Init+0x288>)
 80008fa:	4293      	cmp	r3, r2
 80008fc:	d01d      	beq.n	800093a <HAL_GPIO_Init+0xae>
          break;
 80008fe:	e036      	b.n	800096e <HAL_GPIO_Init+0xe2>
      switch (GPIO_Init->Mode)
 8000900:	4a85      	ldr	r2, [pc, #532]	; (8000b18 <HAL_GPIO_Init+0x28c>)
 8000902:	4293      	cmp	r3, r2
 8000904:	d019      	beq.n	800093a <HAL_GPIO_Init+0xae>
 8000906:	4a85      	ldr	r2, [pc, #532]	; (8000b1c <HAL_GPIO_Init+0x290>)
 8000908:	4293      	cmp	r3, r2
 800090a:	d016      	beq.n	800093a <HAL_GPIO_Init+0xae>
 800090c:	4a84      	ldr	r2, [pc, #528]	; (8000b20 <HAL_GPIO_Init+0x294>)
 800090e:	4293      	cmp	r3, r2
 8000910:	d013      	beq.n	800093a <HAL_GPIO_Init+0xae>
          break;
 8000912:	e02c      	b.n	800096e <HAL_GPIO_Init+0xe2>
          config = GPIO_Init->Speed + GPIO_CR_CNF_GP_OUTPUT_PP;
 8000914:	683b      	ldr	r3, [r7, #0]
 8000916:	68db      	ldr	r3, [r3, #12]
 8000918:	623b      	str	r3, [r7, #32]
          break;
 800091a:	e028      	b.n	800096e <HAL_GPIO_Init+0xe2>
          config = GPIO_Init->Speed + GPIO_CR_CNF_GP_OUTPUT_OD;
 800091c:	683b      	ldr	r3, [r7, #0]
 800091e:	68db      	ldr	r3, [r3, #12]
 8000920:	3304      	adds	r3, #4
 8000922:	623b      	str	r3, [r7, #32]
          break;
 8000924:	e023      	b.n	800096e <HAL_GPIO_Init+0xe2>
          config = GPIO_Init->Speed + GPIO_CR_CNF_AF_OUTPUT_PP;
 8000926:	683b      	ldr	r3, [r7, #0]
 8000928:	68db      	ldr	r3, [r3, #12]
 800092a:	3308      	adds	r3, #8
 800092c:	623b      	str	r3, [r7, #32]
          break;
 800092e:	e01e      	b.n	800096e <HAL_GPIO_Init+0xe2>
          config = GPIO_Init->Speed + GPIO_CR_CNF_AF_OUTPUT_OD;
 8000930:	683b      	ldr	r3, [r7, #0]
 8000932:	68db      	ldr	r3, [r3, #12]
 8000934:	330c      	adds	r3, #12
 8000936:	623b      	str	r3, [r7, #32]
          break;
 8000938:	e019      	b.n	800096e <HAL_GPIO_Init+0xe2>
          if (GPIO_Init->Pull == GPIO_NOPULL)
 800093a:	683b      	ldr	r3, [r7, #0]
 800093c:	689b      	ldr	r3, [r3, #8]
 800093e:	2b00      	cmp	r3, #0
 8000940:	d102      	bne.n	8000948 <HAL_GPIO_Init+0xbc>
            config = GPIO_CR_MODE_INPUT + GPIO_CR_CNF_INPUT_FLOATING;
 8000942:	2304      	movs	r3, #4
 8000944:	623b      	str	r3, [r7, #32]
          break;
 8000946:	e012      	b.n	800096e <HAL_GPIO_Init+0xe2>
          else if (GPIO_Init->Pull == GPIO_PULLUP)
 8000948:	683b      	ldr	r3, [r7, #0]
 800094a:	689b      	ldr	r3, [r3, #8]
 800094c:	2b01      	cmp	r3, #1
 800094e:	d105      	bne.n	800095c <HAL_GPIO_Init+0xd0>
            config = GPIO_CR_MODE_INPUT + GPIO_CR_CNF_INPUT_PU_PD;
 8000950:	2308      	movs	r3, #8
 8000952:	623b      	str	r3, [r7, #32]
            GPIOx->BSRR = ioposition;
 8000954:	687b      	ldr	r3, [r7, #4]
 8000956:	69fa      	ldr	r2, [r7, #28]
 8000958:	611a      	str	r2, [r3, #16]
          break;
 800095a:	e008      	b.n	800096e <HAL_GPIO_Init+0xe2>
            config = GPIO_CR_MODE_INPUT + GPIO_CR_CNF_INPUT_PU_PD;
 800095c:	2308      	movs	r3, #8
 800095e:	623b      	str	r3, [r7, #32]
            GPIOx->BRR = ioposition;
 8000960:	687b      	ldr	r3, [r7, #4]
 8000962:	69fa      	ldr	r2, [r7, #28]
 8000964:	615a      	str	r2, [r3, #20]
          break;
 8000966:	e002      	b.n	800096e <HAL_GPIO_Init+0xe2>
          config = GPIO_CR_MODE_INPUT + GPIO_CR_CNF_ANALOG;
 8000968:	2300      	movs	r3, #0
 800096a:	623b      	str	r3, [r7, #32]
          break;
 800096c:	bf00      	nop
      }

      /* Check if the current bit belongs to first half or last half of the pin count number
       in order to address CRH or CRL register*/
      configregister = (iocurrent < GPIO_PIN_8) ? &GPIOx->CRL     : &GPIOx->CRH;
 800096e:	69bb      	ldr	r3, [r7, #24]
 8000970:	2bff      	cmp	r3, #255	; 0xff
 8000972:	d801      	bhi.n	8000978 <HAL_GPIO_Init+0xec>
 8000974:	687b      	ldr	r3, [r7, #4]
 8000976:	e001      	b.n	800097c <HAL_GPIO_Init+0xf0>
 8000978:	687b      	ldr	r3, [r7, #4]
 800097a:	3304      	adds	r3, #4
 800097c:	617b      	str	r3, [r7, #20]
      registeroffset = (iocurrent < GPIO_PIN_8) ? (position << 2u) : ((position - 8u) << 2u);
 800097e:	69bb      	ldr	r3, [r7, #24]
 8000980:	2bff      	cmp	r3, #255	; 0xff
 8000982:	d802      	bhi.n	800098a <HAL_GPIO_Init+0xfe>
 8000984:	6a7b      	ldr	r3, [r7, #36]	; 0x24
 8000986:	009b      	lsls	r3, r3, #2
 8000988:	e002      	b.n	8000990 <HAL_GPIO_Init+0x104>
 800098a:	6a7b      	ldr	r3, [r7, #36]	; 0x24
 800098c:	3b08      	subs	r3, #8
 800098e:	009b      	lsls	r3, r3, #2
 8000990:	613b      	str	r3, [r7, #16]

      /* Apply the new configuration of the pin to the register */
      MODIFY_REG((*configregister), ((GPIO_CRL_MODE0 | GPIO_CRL_CNF0) << registeroffset), (config << registeroffset));
 8000992:	697b      	ldr	r3, [r7, #20]
 8000994:	681a      	ldr	r2, [r3, #0]
 8000996:	210f      	movs	r1, #15
 8000998:	693b      	ldr	r3, [r7, #16]
 800099a:	fa01 f303 	lsl.w	r3, r1, r3
 800099e:	43db      	mvns	r3, r3
 80009a0:	401a      	ands	r2, r3
 80009a2:	6a39      	ldr	r1, [r7, #32]
 80009a4:	693b      	ldr	r3, [r7, #16]
 80009a6:	fa01 f303 	lsl.w	r3, r1, r3
 80009aa:	431a      	orrs	r2, r3
 80009ac:	697b      	ldr	r3, [r7, #20]
 80009ae:	601a      	str	r2, [r3, #0]

      /*--------------------- EXTI Mode Configuration ------------------------*/
      /* Configure the External Interrupt or event for the current IO */
      if ((GPIO_Init->Mode & EXTI_MODE) == EXTI_MODE)
 80009b0:	683b      	ldr	r3, [r7, #0]
 80009b2:	685b      	ldr	r3, [r3, #4]
 80009b4:	f003 5380 	and.w	r3, r3, #268435456	; 0x10000000
 80009b8:	2b00      	cmp	r3, #0
 80009ba:	f000 8096 	beq.w	8000aea <HAL_GPIO_Init+0x25e>
      {
        /* Enable AFIO Clock */
        __HAL_RCC_AFIO_CLK_ENABLE();
 80009be:	4b59      	ldr	r3, [pc, #356]	; (8000b24 <HAL_GPIO_Init+0x298>)
 80009c0:	699b      	ldr	r3, [r3, #24]
 80009c2:	4a58      	ldr	r2, [pc, #352]	; (8000b24 <HAL_GPIO_Init+0x298>)
 80009c4:	f043 0301 	orr.w	r3, r3, #1
 80009c8:	6193      	str	r3, [r2, #24]
 80009ca:	4b56      	ldr	r3, [pc, #344]	; (8000b24 <HAL_GPIO_Init+0x298>)
 80009cc:	699b      	ldr	r3, [r3, #24]
 80009ce:	f003 0301 	and.w	r3, r3, #1
 80009d2:	60bb      	str	r3, [r7, #8]
 80009d4:	68bb      	ldr	r3, [r7, #8]
        temp = AFIO->EXTICR[position >> 2u];
 80009d6:	4a54      	ldr	r2, [pc, #336]	; (8000b28 <HAL_GPIO_Init+0x29c>)
 80009d8:	6a7b      	ldr	r3, [r7, #36]	; 0x24
 80009da:	089b      	lsrs	r3, r3, #2
 80009dc:	3302      	adds	r3, #2
 80009de:	f852 3023 	ldr.w	r3, [r2, r3, lsl #2]
 80009e2:	60fb      	str	r3, [r7, #12]
        CLEAR_BIT(temp, (0x0Fu) << (4u * (position & 0x03u)));
 80009e4:	6a7b      	ldr	r3, [r7, #36]	; 0x24
 80009e6:	f003 0303 	and.w	r3, r3, #3
 80009ea:	009b      	lsls	r3, r3, #2
 80009ec:	220f      	movs	r2, #15
 80009ee:	fa02 f303 	lsl.w	r3, r2, r3
 80009f2:	43db      	mvns	r3, r3
 80009f4:	68fa      	ldr	r2, [r7, #12]
 80009f6:	4013      	ands	r3, r2
 80009f8:	60fb      	str	r3, [r7, #12]
        SET_BIT(temp, (GPIO_GET_INDEX(GPIOx)) << (4u * (position & 0x03u)));
 80009fa:	687b      	ldr	r3, [r7, #4]
 80009fc:	4a4b      	ldr	r2, [pc, #300]	; (8000b2c <HAL_GPIO_Init+0x2a0>)
 80009fe:	4293      	cmp	r3, r2
 8000a00:	d013      	beq.n	8000a2a <HAL_GPIO_Init+0x19e>
 8000a02:	687b      	ldr	r3, [r7, #4]
 8000a04:	4a4a      	ldr	r2, [pc, #296]	; (8000b30 <HAL_GPIO_Init+0x2a4>)
 8000a06:	4293      	cmp	r3, r2
 8000a08:	d00d      	beq.n	8000a26 <HAL_GPIO_Init+0x19a>
 8000a0a:	687b      	ldr	r3, [r7, #4]
 8000a0c:	4a49      	ldr	r2, [pc, #292]	; (8000b34 <HAL_GPIO_Init+0x2a8>)
 8000a0e:	4293      	cmp	r3, r2
 8000a10:	d007      	beq.n	8000a22 <HAL_GPIO_Init+0x196>
 8000a12:	687b      	ldr	r3, [r7, #4]
 8000a14:	4a48      	ldr	r2, [pc, #288]	; (8000b38 <HAL_GPIO_Init+0x2ac>)
 8000a16:	4293      	cmp	r3, r2
 8000a18:	d101      	bne.n	8000a1e <HAL_GPIO_Init+0x192>
 8000a1a:	2303      	movs	r3, #3
 8000a1c:	e006      	b.n	8000a2c <HAL_GPIO_Init+0x1a0>
 8000a1e:	2304      	movs	r3, #4
 8000a20:	e004      	b.n	8000a2c <HAL_GPIO_Init+0x1a0>
 8000a22:	2302      	movs	r3, #2
 8000a24:	e002      	b.n	8000a2c <HAL_GPIO_Init+0x1a0>
 8000a26:	2301      	movs	r3, #1
 8000a28:	e000      	b.n	8000a2c <HAL_GPIO_Init+0x1a0>
 8000a2a:	2300      	movs	r3, #0
 8000a2c:	6a7a      	ldr	r2, [r7, #36]	; 0x24
 8000a2e:	f002 0203 	and.w	r2, r2, #3
 8000a32:	0092      	lsls	r2, r2, #2
 8000a34:	4093      	lsls	r3, r2
 8000a36:	68fa      	ldr	r2, [r7, #12]
 8000a38:	4313      	orrs	r3, r2
 8000a3a:	60fb      	str	r3, [r7, #12]
        AFIO->EXTICR[position >> 2u] = temp;
 8000a3c:	493a      	ldr	r1, [pc, #232]	; (8000b28 <HAL_GPIO_Init+0x29c>)
 8000a3e:	6a7b      	ldr	r3, [r7, #36]	; 0x24
 8000a40:	089b      	lsrs	r3, r3, #2
 8000a42:	3302      	adds	r3, #2
 8000a44:	68fa      	ldr	r2, [r7, #12]
 8000a46:	f841 2023 	str.w	r2, [r1, r3, lsl #2]


        /* Configure the interrupt mask */
        if ((GPIO_Init->Mode & GPIO_MODE_IT) == GPIO_MODE_IT)
 8000a4a:	683b      	ldr	r3, [r7, #0]
 8000a4c:	685b      	ldr	r3, [r3, #4]
 8000a4e:	f403 3380 	and.w	r3, r3, #65536	; 0x10000
 8000a52:	2b00      	cmp	r3, #0
 8000a54:	d006      	beq.n	8000a64 <HAL_GPIO_Init+0x1d8>
        {
          SET_BIT(EXTI->IMR, iocurrent);
 8000a56:	4b39      	ldr	r3, [pc, #228]	; (8000b3c <HAL_GPIO_Init+0x2b0>)
 8000a58:	681a      	ldr	r2, [r3, #0]
 8000a5a:	4938      	ldr	r1, [pc, #224]	; (8000b3c <HAL_GPIO_Init+0x2b0>)
 8000a5c:	69bb      	ldr	r3, [r7, #24]
 8000a5e:	4313      	orrs	r3, r2
 8000a60:	600b      	str	r3, [r1, #0]
 8000a62:	e006      	b.n	8000a72 <HAL_GPIO_Init+0x1e6>
        }
        else
        {
          CLEAR_BIT(EXTI->IMR, iocurrent);
 8000a64:	4b35      	ldr	r3, [pc, #212]	; (8000b3c <HAL_GPIO_Init+0x2b0>)
 8000a66:	681a      	ldr	r2, [r3, #0]
 8000a68:	69bb      	ldr	r3, [r7, #24]
 8000a6a:	43db      	mvns	r3, r3
 8000a6c:	4933      	ldr	r1, [pc, #204]	; (8000b3c <HAL_GPIO_Init+0x2b0>)
 8000a6e:	4013      	ands	r3, r2
 8000a70:	600b      	str	r3, [r1, #0]
        }

        /* Configure the event mask */
        if ((GPIO_Init->Mode & GPIO_MODE_EVT) == GPIO_MODE_EVT)
 8000a72:	683b      	ldr	r3, [r7, #0]
 8000a74:	685b      	ldr	r3, [r3, #4]
 8000a76:	f403 3300 	and.w	r3, r3, #131072	; 0x20000
 8000a7a:	2b00      	cmp	r3, #0
 8000a7c:	d006      	beq.n	8000a8c <HAL_GPIO_Init+0x200>
        {
          SET_BIT(EXTI->EMR, iocurrent);
 8000a7e:	4b2f      	ldr	r3, [pc, #188]	; (8000b3c <HAL_GPIO_Init+0x2b0>)
 8000a80:	685a      	ldr	r2, [r3, #4]
 8000a82:	492e      	ldr	r1, [pc, #184]	; (8000b3c <HAL_GPIO_Init+0x2b0>)
 8000a84:	69bb      	ldr	r3, [r7, #24]
 8000a86:	4313      	orrs	r3, r2
 8000a88:	604b      	str	r3, [r1, #4]
 8000a8a:	e006      	b.n	8000a9a <HAL_GPIO_Init+0x20e>
        }
        else
        {
          CLEAR_BIT(EXTI->EMR, iocurrent);
 8000a8c:	4b2b      	ldr	r3, [pc, #172]	; (8000b3c <HAL_GPIO_Init+0x2b0>)
 8000a8e:	685a      	ldr	r2, [r3, #4]
 8000a90:	69bb      	ldr	r3, [r7, #24]
 8000a92:	43db      	mvns	r3, r3
 8000a94:	4929      	ldr	r1, [pc, #164]	; (8000b3c <HAL_GPIO_Init+0x2b0>)
 8000a96:	4013      	ands	r3, r2
 8000a98:	604b      	str	r3, [r1, #4]
        }

        /* Enable or disable the rising trigger */
        if ((GPIO_Init->Mode & RISING_EDGE) == RISING_EDGE)
 8000a9a:	683b      	ldr	r3, [r7, #0]
 8000a9c:	685b      	ldr	r3, [r3, #4]
 8000a9e:	f403 1380 	and.w	r3, r3, #1048576	; 0x100000
 8000aa2:	2b00      	cmp	r3, #0
 8000aa4:	d006      	beq.n	8000ab4 <HAL_GPIO_Init+0x228>
        {
          SET_BIT(EXTI->RTSR, iocurrent);
 8000aa6:	4b25      	ldr	r3, [pc, #148]	; (8000b3c <HAL_GPIO_Init+0x2b0>)
 8000aa8:	689a      	ldr	r2, [r3, #8]
 8000aaa:	4924      	ldr	r1, [pc, #144]	; (8000b3c <HAL_GPIO_Init+0x2b0>)
 8000aac:	69bb      	ldr	r3, [r7, #24]
 8000aae:	4313      	orrs	r3, r2
 8000ab0:	608b      	str	r3, [r1, #8]
 8000ab2:	e006      	b.n	8000ac2 <HAL_GPIO_Init+0x236>
        }
        else
        {
          CLEAR_BIT(EXTI->RTSR, iocurrent);
 8000ab4:	4b21      	ldr	r3, [pc, #132]	; (8000b3c <HAL_GPIO_Init+0x2b0>)
 8000ab6:	689a      	ldr	r2, [r3, #8]
 8000ab8:	69bb      	ldr	r3, [r7, #24]
 8000aba:	43db      	mvns	r3, r3
 8000abc:	491f      	ldr	r1, [pc, #124]	; (8000b3c <HAL_GPIO_Init+0x2b0>)
 8000abe:	4013      	ands	r3, r2
 8000ac0:	608b      	str	r3, [r1, #8]
        }

        /* Enable or disable the falling trigger */
        if ((GPIO_Init->Mode & FALLING_EDGE) == FALLING_EDGE)
 8000ac2:	683b      	ldr	r3, [r7, #0]
 8000ac4:	685b      	ldr	r3, [r3, #4]
 8000ac6:	f403 1300 	and.w	r3, r3, #2097152	; 0x200000
 8000aca:	2b00      	cmp	r3, #0
 8000acc:	d006      	beq.n	8000adc <HAL_GPIO_Init+0x250>
        {
          SET_BIT(EXTI->FTSR, iocurrent);
 8000ace:	4b1b      	ldr	r3, [pc, #108]	; (8000b3c <HAL_GPIO_Init+0x2b0>)
 8000ad0:	68da      	ldr	r2, [r3, #12]
 8000ad2:	491a      	ldr	r1, [pc, #104]	; (8000b3c <HAL_GPIO_Init+0x2b0>)
 8000ad4:	69bb      	ldr	r3, [r7, #24]
 8000ad6:	4313      	orrs	r3, r2
 8000ad8:	60cb      	str	r3, [r1, #12]
 8000ada:	e006      	b.n	8000aea <HAL_GPIO_Init+0x25e>
        }
        else
        {
          CLEAR_BIT(EXTI->FTSR, iocurrent);
 8000adc:	4b17      	ldr	r3, [pc, #92]	; (8000b3c <HAL_GPIO_Init+0x2b0>)
 8000ade:	68da      	ldr	r2, [r3, #12]
 8000ae0:	69bb      	ldr	r3, [r7, #24]
 8000ae2:	43db      	mvns	r3, r3
 8000ae4:	4915      	ldr	r1, [pc, #84]	; (8000b3c <HAL_GPIO_Init+0x2b0>)
 8000ae6:	4013      	ands	r3, r2
 8000ae8:	60cb      	str	r3, [r1, #12]
        }
      }
    }

	position++;
 8000aea:	6a7b      	ldr	r3, [r7, #36]	; 0x24
 8000aec:	3301      	adds	r3, #1
 8000aee:	627b      	str	r3, [r7, #36]	; 0x24
  while (((GPIO_Init->Pin) >> position) != 0x00u)
 8000af0:	683b      	ldr	r3, [r7, #0]
 8000af2:	681a      	ldr	r2, [r3, #0]
 8000af4:	6a7b      	ldr	r3, [r7, #36]	; 0x24
 8000af6:	fa22 f303 	lsr.w	r3, r2, r3
 8000afa:	2b00      	cmp	r3, #0
 8000afc:	f47f aed0 	bne.w	80008a0 <HAL_GPIO_Init+0x14>
  }
}
 8000b00:	bf00      	nop
 8000b02:	372c      	adds	r7, #44	; 0x2c
 8000b04:	46bd      	mov	sp, r7
 8000b06:	bc80      	pop	{r7}
 8000b08:	4770      	bx	lr
 8000b0a:	bf00      	nop
 8000b0c:	10210000 	.word	0x10210000
 8000b10:	10110000 	.word	0x10110000
 8000b14:	10120000 	.word	0x10120000
 8000b18:	10310000 	.word	0x10310000
 8000b1c:	10320000 	.word	0x10320000
 8000b20:	10220000 	.word	0x10220000
 8000b24:	40021000 	.word	0x40021000
 8000b28:	40010000 	.word	0x40010000
 8000b2c:	40010800 	.word	0x40010800
 8000b30:	40010c00 	.word	0x40010c00
 8000b34:	40011000 	.word	0x40011000
 8000b38:	40011400 	.word	0x40011400
 8000b3c:	40010400 	.word	0x40010400

08000b40 <HAL_GPIO_ReadPin>:
  * @param  GPIO_Pin: specifies the port bit to read.
  *         This parameter can be GPIO_PIN_x where x can be (0..15).
  * @retval The input port pin value.
  */
GPIO_PinState HAL_GPIO_ReadPin(GPIO_TypeDef *GPIOx, uint16_t GPIO_Pin)
{
 8000b40:	b480      	push	{r7}
 8000b42:	b085      	sub	sp, #20
 8000b44:	af00      	add	r7, sp, #0
 8000b46:	6078      	str	r0, [r7, #4]
 8000b48:	460b      	mov	r3, r1
 8000b4a:	807b      	strh	r3, [r7, #2]
  GPIO_PinState bitstatus;

  /* Check the parameters */
  assert_param(IS_GPIO_PIN(GPIO_Pin));

  if ((GPIOx->IDR & GPIO_Pin) != (uint32_t)GPIO_PIN_RESET)
 8000b4c:	687b      	ldr	r3, [r7, #4]
 8000b4e:	689a      	ldr	r2, [r3, #8]
 8000b50:	887b      	ldrh	r3, [r7, #2]
 8000b52:	4013      	ands	r3, r2
 8000b54:	2b00      	cmp	r3, #0
 8000b56:	d002      	beq.n	8000b5e <HAL_GPIO_ReadPin+0x1e>
  {
    bitstatus = GPIO_PIN_SET;
 8000b58:	2301      	movs	r3, #1
 8000b5a:	73fb      	strb	r3, [r7, #15]
 8000b5c:	e001      	b.n	8000b62 <HAL_GPIO_ReadPin+0x22>
  }
  else
  {
    bitstatus = GPIO_PIN_RESET;
 8000b5e:	2300      	movs	r3, #0
 8000b60:	73fb      	strb	r3, [r7, #15]
  }
  return bitstatus;
 8000b62:	7bfb      	ldrb	r3, [r7, #15]
}
 8000b64:	4618      	mov	r0, r3
 8000b66:	3714      	adds	r7, #20
 8000b68:	46bd      	mov	sp, r7
 8000b6a:	bc80      	pop	{r7}
 8000b6c:	4770      	bx	lr

08000b6e <HAL_GPIO_WritePin>:
  *            @arg GPIO_PIN_RESET: to clear the port pin
  *            @arg GPIO_PIN_SET: to set the port pin
  * @retval None
  */
void HAL_GPIO_WritePin(GPIO_TypeDef *GPIOx, uint16_t GPIO_Pin, GPIO_PinState PinState)
{
 8000b6e:	b480      	push	{r7}
 8000b70:	b083      	sub	sp, #12
 8000b72:	af00      	add	r7, sp, #0
 8000b74:	6078      	str	r0, [r7, #4]
 8000b76:	460b      	mov	r3, r1
 8000b78:	807b      	strh	r3, [r7, #2]
 8000b7a:	4613      	mov	r3, r2
 8000b7c:	707b      	strb	r3, [r7, #1]
  /* Check the parameters */
  assert_param(IS_GPIO_PIN(GPIO_Pin));
  assert_param(IS_GPIO_PIN_ACTION(PinState));

  if (PinState != GPIO_PIN_RESET)
 8000b7e:	787b      	ldrb	r3, [r7, #1]
 8000b80:	2b00      	cmp	r3, #0
 8000b82:	d003      	beq.n	8000b8c <HAL_GPIO_WritePin+0x1e>
  {
    GPIOx->BSRR = GPIO_Pin;
 8000b84:	887a      	ldrh	r2, [r7, #2]
 8000b86:	687b      	ldr	r3, [r7, #4]
 8000b88:	611a      	str	r2, [r3, #16]
  }
  else
  {
    GPIOx->BSRR = (uint32_t)GPIO_Pin << 16u;
  }
}
 8000b8a:	e003      	b.n	8000b94 <HAL_GPIO_WritePin+0x26>
    GPIOx->BSRR = (uint32_t)GPIO_Pin << 16u;
 8000b8c:	887b      	ldrh	r3, [r7, #2]
 8000b8e:	041a      	lsls	r2, r3, #16
 8000b90:	687b      	ldr	r3, [r7, #4]
 8000b92:	611a      	str	r2, [r3, #16]
}
 8000b94:	bf00      	nop
 8000b96:	370c      	adds	r7, #12
 8000b98:	46bd      	mov	sp, r7
 8000b9a:	bc80      	pop	{r7}
 8000b9c:	4770      	bx	lr

08000b9e <HAL_GPIO_TogglePin>:
  * @param  GPIOx: where x can be (A..G depending on device used) to select the GPIO peripheral
  * @param  GPIO_Pin: Specifies the pins to be toggled.
  * @retval None
  */
void HAL_GPIO_TogglePin(GPIO_TypeDef *GPIOx, uint16_t GPIO_Pin)
{
 8000b9e:	b480      	push	{r7}
 8000ba0:	b083      	sub	sp, #12
 8000ba2:	af00      	add	r7, sp, #0
 8000ba4:	6078      	str	r0, [r7, #4]
 8000ba6:	460b      	mov	r3, r1
 8000ba8:	807b      	strh	r3, [r7, #2]
  /* Check the parameters */
  assert_param(IS_GPIO_PIN(GPIO_Pin));

  if ((GPIOx->ODR & GPIO_Pin) != 0x00u)
 8000baa:	687b      	ldr	r3, [r7, #4]
 8000bac:	68da      	ldr	r2, [r3, #12]
 8000bae:	887b      	ldrh	r3, [r7, #2]
 8000bb0:	4013      	ands	r3, r2
 8000bb2:	2b00      	cmp	r3, #0
 8000bb4:	d003      	beq.n	8000bbe <HAL_GPIO_TogglePin+0x20>
  {
    GPIOx->BRR = (uint32_t)GPIO_Pin;
 8000bb6:	887a      	ldrh	r2, [r7, #2]
 8000bb8:	687b      	ldr	r3, [r7, #4]
 8000bba:	615a      	str	r2, [r3, #20]
  }
  else
  {
    GPIOx->BSRR = (uint32_t)GPIO_Pin;
  }
}
 8000bbc:	e002      	b.n	8000bc4 <HAL_GPIO_TogglePin+0x26>
    GPIOx->BSRR = (uint32_t)GPIO_Pin;
 8000bbe:	887a      	ldrh	r2, [r7, #2]
 8000bc0:	687b      	ldr	r3, [r7, #4]
 8000bc2:	611a      	str	r2, [r3, #16]
}
 8000bc4:	bf00      	nop
 8000bc6:	370c      	adds	r7, #12
 8000bc8:	46bd      	mov	sp, r7
 8000bca:	bc80      	pop	{r7}
 8000bcc:	4770      	bx	lr
	...

08000bd0 <HAL_RCC_OscConfig>:
  *         supported by this macro. User should request a transition to HSE Off
  *         first and then HSE On or HSE Bypass.
  * @retval HAL status
  */
HAL_StatusTypeDef HAL_RCC_OscConfig(RCC_OscInitTypeDef  *RCC_OscInitStruct)
{
 8000bd0:	b580      	push	{r7, lr}
 8000bd2:	b086      	sub	sp, #24
 8000bd4:	af00      	add	r7, sp, #0
 8000bd6:	6078      	str	r0, [r7, #4]
  uint32_t tickstart;
  uint32_t pll_config;

  /* Check Null pointer */
  if (RCC_OscInitStruct == NULL)
 8000bd8:	687b      	ldr	r3, [r7, #4]
 8000bda:	2b00      	cmp	r3, #0
 8000bdc:	d101      	bne.n	8000be2 <HAL_RCC_OscConfig+0x12>
  {
    return HAL_ERROR;
 8000bde:	2301      	movs	r3, #1
 8000be0:	e26c      	b.n	80010bc <HAL_RCC_OscConfig+0x4ec>

  /* Check the parameters */
  assert_param(IS_RCC_OSCILLATORTYPE(RCC_OscInitStruct->OscillatorType));

  /*------------------------------- HSE Configuration ------------------------*/
  if (((RCC_OscInitStruct->OscillatorType) & RCC_OSCILLATORTYPE_HSE) == RCC_OSCILLATORTYPE_HSE)
 8000be2:	687b      	ldr	r3, [r7, #4]
 8000be4:	681b      	ldr	r3, [r3, #0]
 8000be6:	f003 0301 	and.w	r3, r3, #1
 8000bea:	2b00      	cmp	r3, #0
 8000bec:	f000 8087 	beq.w	8000cfe <HAL_RCC_OscConfig+0x12e>
  {
    /* Check the parameters */
    assert_param(IS_RCC_HSE(RCC_OscInitStruct->HSEState));

    /* When the HSE is used as system clock or clock source for PLL in these cases it is not allowed to be disabled */
    if ((__HAL_RCC_GET_SYSCLK_SOURCE() == RCC_SYSCLKSOURCE_STATUS_HSE)
 8000bf0:	4b92      	ldr	r3, [pc, #584]	; (8000e3c <HAL_RCC_OscConfig+0x26c>)
 8000bf2:	685b      	ldr	r3, [r3, #4]
 8000bf4:	f003 030c 	and.w	r3, r3, #12
 8000bf8:	2b04      	cmp	r3, #4
 8000bfa:	d00c      	beq.n	8000c16 <HAL_RCC_OscConfig+0x46>
        || ((__HAL_RCC_GET_SYSCLK_SOURCE() == RCC_SYSCLKSOURCE_STATUS_PLLCLK) && (__HAL_RCC_GET_PLL_OSCSOURCE() == RCC_PLLSOURCE_HSE)))
 8000bfc:	4b8f      	ldr	r3, [pc, #572]	; (8000e3c <HAL_RCC_OscConfig+0x26c>)
 8000bfe:	685b      	ldr	r3, [r3, #4]
 8000c00:	f003 030c 	and.w	r3, r3, #12
 8000c04:	2b08      	cmp	r3, #8
 8000c06:	d112      	bne.n	8000c2e <HAL_RCC_OscConfig+0x5e>
 8000c08:	4b8c      	ldr	r3, [pc, #560]	; (8000e3c <HAL_RCC_OscConfig+0x26c>)
 8000c0a:	685b      	ldr	r3, [r3, #4]
 8000c0c:	f403 3380 	and.w	r3, r3, #65536	; 0x10000
 8000c10:	f5b3 3f80 	cmp.w	r3, #65536	; 0x10000
 8000c14:	d10b      	bne.n	8000c2e <HAL_RCC_OscConfig+0x5e>
    {
      if ((__HAL_RCC_GET_FLAG(RCC_FLAG_HSERDY) != RESET) && (RCC_OscInitStruct->HSEState == RCC_HSE_OFF))
 8000c16:	4b89      	ldr	r3, [pc, #548]	; (8000e3c <HAL_RCC_OscConfig+0x26c>)
 8000c18:	681b      	ldr	r3, [r3, #0]
 8000c1a:	f403 3300 	and.w	r3, r3, #131072	; 0x20000
 8000c1e:	2b00      	cmp	r3, #0
 8000c20:	d06c      	beq.n	8000cfc <HAL_RCC_OscConfig+0x12c>
 8000c22:	687b      	ldr	r3, [r7, #4]
 8000c24:	685b      	ldr	r3, [r3, #4]
 8000c26:	2b00      	cmp	r3, #0
 8000c28:	d168      	bne.n	8000cfc <HAL_RCC_OscConfig+0x12c>
      {
        return HAL_ERROR;
 8000c2a:	2301      	movs	r3, #1
 8000c2c:	e246      	b.n	80010bc <HAL_RCC_OscConfig+0x4ec>
      }
    }
    else
    {
      /* Set the new HSE configuration ---------------------------------------*/
      __HAL_RCC_HSE_CONFIG(RCC_OscInitStruct->HSEState);
 8000c2e:	687b      	ldr	r3, [r7, #4]
 8000c30:	685b      	ldr	r3, [r3, #4]
 8000c32:	f5b3 3f80 	cmp.w	r3, #65536	; 0x10000
 8000c36:	d106      	bne.n	8000c46 <HAL_RCC_OscConfig+0x76>
 8000c38:	4b80      	ldr	r3, [pc, #512]	; (8000e3c <HAL_RCC_OscConfig+0x26c>)
 8000c3a:	681b      	ldr	r3, [r3, #0]
 8000c3c:	4a7f      	ldr	r2, [pc, #508]	; (8000e3c <HAL_RCC_OscConfig+0x26c>)
 8000c3e:	f443 3380 	orr.w	r3, r3, #65536	; 0x10000
 8000c42:	6013      	str	r3, [r2, #0]
 8000c44:	e02e      	b.n	8000ca4 <HAL_RCC_OscConfig+0xd4>
 8000c46:	687b      	ldr	r3, [r7, #4]
 8000c48:	685b      	ldr	r3, [r3, #4]
 8000c4a:	2b00      	cmp	r3, #0
 8000c4c:	d10c      	bne.n	8000c68 <HAL_RCC_OscConfig+0x98>
 8000c4e:	4b7b      	ldr	r3, [pc, #492]	; (8000e3c <HAL_RCC_OscConfig+0x26c>)
 8000c50:	681b      	ldr	r3, [r3, #0]
 8000c52:	4a7a      	ldr	r2, [pc, #488]	; (8000e3c <HAL_RCC_OscConfig+0x26c>)
 8000c54:	f423 3380 	bic.w	r3, r3, #65536	; 0x10000
 8000c58:	6013      	str	r3, [r2, #0]
 8000c5a:	4b78      	ldr	r3, [pc, #480]	; (8000e3c <HAL_RCC_OscConfig+0x26c>)
 8000c5c:	681b      	ldr	r3, [r3, #0]
 8000c5e:	4a77      	ldr	r2, [pc, #476]	; (8000e3c <HAL_RCC_OscConfig+0x26c>)
 8000c60:	f423 2380 	bic.w	r3, r3, #262144	; 0x40000
 8000c64:	6013      	str	r3, [r2, #0]
 8000c66:	e01d      	b.n	8000ca4 <HAL_RCC_OscConfig+0xd4>
 8000c68:	687b      	ldr	r3, [r7, #4]
 8000c6a:	685b      	ldr	r3, [r3, #4]
 8000c6c:	f5b3 2fa0 	cmp.w	r3, #327680	; 0x50000
 8000c70:	d10c      	bne.n	8000c8c <HAL_RCC_OscConfig+0xbc>
 8000c72:	4b72      	ldr	r3, [pc, #456]	; (8000e3c <HAL_RCC_OscConfig+0x26c>)
 8000c74:	681b      	ldr	r3, [r3, #0]
 8000c76:	4a71      	ldr	r2, [pc, #452]	; (8000e3c <HAL_RCC_OscConfig+0x26c>)
 8000c78:	f443 2380 	orr.w	r3, r3, #262144	; 0x40000
 8000c7c:	6013      	str	r3, [r2, #0]
 8000c7e:	4b6f      	ldr	r3, [pc, #444]	; (8000e3c <HAL_RCC_OscConfig+0x26c>)
 8000c80:	681b      	ldr	r3, [r3, #0]
 8000c82:	4a6e      	ldr	r2, [pc, #440]	; (8000e3c <HAL_RCC_OscConfig+0x26c>)
 8000c84:	f443 3380 	orr.w	r3, r3, #65536	; 0x10000
 8000c88:	6013      	str	r3, [r2, #0]
 8000c8a:	e00b      	b.n	8000ca4 <HAL_RCC_OscConfig+0xd4>
 8000c8c:	4b6b      	ldr	r3, [pc, #428]	; (8000e3c <HAL_RCC_OscConfig+0x26c>)
 8000c8e:	681b      	ldr	r3, [r3, #0]
 8000c90:	4a6a      	ldr	r2, [pc, #424]	; (8000e3c <HAL_RCC_OscConfig+0x26c>)
 8000c92:	f423 3380 	bic.w	r3, r3, #65536	; 0x10000
 8000c96:	6013      	str	r3, [r2, #0]
 8000c98:	4b68      	ldr	r3, [pc, #416]	; (8000e3c <HAL_RCC_OscConfig+0x26c>)
 8000c9a:	681b      	ldr	r3, [r3, #0]
 8000c9c:	4a67      	ldr	r2, [pc, #412]	; (8000e3c <HAL_RCC_OscConfig+0x26c>)
 8000c9e:	f423 2380 	bic.w	r3, r3, #262144	; 0x40000
 8000ca2:	6013      	str	r3, [r2, #0]


      /* Check the HSE State */
      if (RCC_OscInitStruct->HSEState != RCC_HSE_OFF)
 8000ca4:	687b      	ldr	r3, [r7, #4]
 8000ca6:	685b      	ldr	r3, [r3, #4]
 8000ca8:	2b00      	cmp	r3, #0
 8000caa:	d013      	beq.n	8000cd4 <HAL_RCC_OscConfig+0x104>
      {
        /* Get Start Tick */
        tickstart = HAL_GetTick();
 8000cac:	f7ff fcde 	bl	800066c <HAL_GetTick>
 8000cb0:	6138      	str	r0, [r7, #16]

        /* Wait till HSE is ready */
        while (__HAL_RCC_GET_FLAG(RCC_FLAG_HSERDY) == RESET)
 8000cb2:	e008      	b.n	8000cc6 <HAL_RCC_OscConfig+0xf6>
        {
          if ((HAL_GetTick() - tickstart) > HSE_TIMEOUT_VALUE)
 8000cb4:	f7ff fcda 	bl	800066c <HAL_GetTick>
 8000cb8:	4602      	mov	r2, r0
 8000cba:	693b      	ldr	r3, [r7, #16]
 8000cbc:	1ad3      	subs	r3, r2, r3
 8000cbe:	2b64      	cmp	r3, #100	; 0x64
 8000cc0:	d901      	bls.n	8000cc6 <HAL_RCC_OscConfig+0xf6>
          {
            return HAL_TIMEOUT;
 8000cc2:	2303      	movs	r3, #3
 8000cc4:	e1fa      	b.n	80010bc <HAL_RCC_OscConfig+0x4ec>
        while (__HAL_RCC_GET_FLAG(RCC_FLAG_HSERDY) == RESET)
 8000cc6:	4b5d      	ldr	r3, [pc, #372]	; (8000e3c <HAL_RCC_OscConfig+0x26c>)
 8000cc8:	681b      	ldr	r3, [r3, #0]
 8000cca:	f403 3300 	and.w	r3, r3, #131072	; 0x20000
 8000cce:	2b00      	cmp	r3, #0
 8000cd0:	d0f0      	beq.n	8000cb4 <HAL_RCC_OscConfig+0xe4>
 8000cd2:	e014      	b.n	8000cfe <HAL_RCC_OscConfig+0x12e>
        }
      }
      else
      {
        /* Get Start Tick */
        tickstart = HAL_GetTick();
 8000cd4:	f7ff fcca 	bl	800066c <HAL_GetTick>
 8000cd8:	6138      	str	r0, [r7, #16]

        /* Wait till HSE is disabled */
        while (__HAL_RCC_GET_FLAG(RCC_FLAG_HSERDY) != RESET)
 8000cda:	e008      	b.n	8000cee <HAL_RCC_OscConfig+0x11e>
        {
          if ((HAL_GetTick() - tickstart) > HSE_TIMEOUT_VALUE)
 8000cdc:	f7ff fcc6 	bl	800066c <HAL_GetTick>
 8000ce0:	4602      	mov	r2, r0
 8000ce2:	693b      	ldr	r3, [r7, #16]
 8000ce4:	1ad3      	subs	r3, r2, r3
 8000ce6:	2b64      	cmp	r3, #100	; 0x64
 8000ce8:	d901      	bls.n	8000cee <HAL_RCC_OscConfig+0x11e>
          {
            return HAL_TIMEOUT;
 8000cea:	2303      	movs	r3, #3
 8000cec:	e1e6      	b.n	80010bc <HAL_RCC_OscConfig+0x4ec>
        while (__HAL_RCC_GET_FLAG(RCC_FLAG_HSERDY) != RESET)
 8000cee:	4b53      	ldr	r3, [pc, #332]	; (8000e3c <HAL_RCC_OscConfig+0x26c>)
 8000cf0:	681b      	ldr	r3, [r3, #0]
 8000cf2:	f403 3300 	and.w	r3, r3, #131072	; 0x20000
 8000cf6:	2b00      	cmp	r3, #0
 8000cf8:	d1f0      	bne.n	8000cdc <HAL_RCC_OscConfig+0x10c>
 8000cfa:	e000      	b.n	8000cfe <HAL_RCC_OscConfig+0x12e>
      if ((__HAL_RCC_GET_FLAG(RCC_FLAG_HSERDY) != RESET) && (RCC_OscInitStruct->HSEState == RCC_HSE_OFF))
 8000cfc:	bf00      	nop
        }
      }
    }
  }
  /*----------------------------- HSI Configuration --------------------------*/
  if (((RCC_OscInitStruct->OscillatorType) & RCC_OSCILLATORTYPE_HSI) == RCC_OSCILLATORTYPE_HSI)
 8000cfe:	687b      	ldr	r3, [r7, #4]
 8000d00:	681b      	ldr	r3, [r3, #0]
 8000d02:	f003 0302 	and.w	r3, r3, #2
 8000d06:	2b00      	cmp	r3, #0
 8000d08:	d063      	beq.n	8000dd2 <HAL_RCC_OscConfig+0x202>
    /* Check the parameters */
    assert_param(IS_RCC_HSI(RCC_OscInitStruct->HSIState));
    assert_param(IS_RCC_CALIBRATION_VALUE(RCC_OscInitStruct->HSICalibrationValue));

    /* Check if HSI is used as system clock or as PLL source when PLL is selected as system clock */
    if ((__HAL_RCC_GET_SYSCLK_SOURCE() == RCC_SYSCLKSOURCE_STATUS_HSI)
 8000d0a:	4b4c      	ldr	r3, [pc, #304]	; (8000e3c <HAL_RCC_OscConfig+0x26c>)
 8000d0c:	685b      	ldr	r3, [r3, #4]
 8000d0e:	f003 030c 	and.w	r3, r3, #12
 8000d12:	2b00      	cmp	r3, #0
 8000d14:	d00b      	beq.n	8000d2e <HAL_RCC_OscConfig+0x15e>
        || ((__HAL_RCC_GET_SYSCLK_SOURCE() == RCC_SYSCLKSOURCE_STATUS_PLLCLK) && (__HAL_RCC_GET_PLL_OSCSOURCE() == RCC_PLLSOURCE_HSI_DIV2)))
 8000d16:	4b49      	ldr	r3, [pc, #292]	; (8000e3c <HAL_RCC_OscConfig+0x26c>)
 8000d18:	685b      	ldr	r3, [r3, #4]
 8000d1a:	f003 030c 	and.w	r3, r3, #12
 8000d1e:	2b08      	cmp	r3, #8
 8000d20:	d11c      	bne.n	8000d5c <HAL_RCC_OscConfig+0x18c>
 8000d22:	4b46      	ldr	r3, [pc, #280]	; (8000e3c <HAL_RCC_OscConfig+0x26c>)
 8000d24:	685b      	ldr	r3, [r3, #4]
 8000d26:	f403 3380 	and.w	r3, r3, #65536	; 0x10000
 8000d2a:	2b00      	cmp	r3, #0
 8000d2c:	d116      	bne.n	8000d5c <HAL_RCC_OscConfig+0x18c>
    {
      /* When HSI is used as system clock it will not disabled */
      if ((__HAL_RCC_GET_FLAG(RCC_FLAG_HSIRDY) != RESET) && (RCC_OscInitStruct->HSIState != RCC_HSI_ON))
 8000d2e:	4b43      	ldr	r3, [pc, #268]	; (8000e3c <HAL_RCC_OscConfig+0x26c>)
 8000d30:	681b      	ldr	r3, [r3, #0]
 8000d32:	f003 0302 	and.w	r3, r3, #2
 8000d36:	2b00      	cmp	r3, #0
 8000d38:	d005      	beq.n	8000d46 <HAL_RCC_OscConfig+0x176>
 8000d3a:	687b      	ldr	r3, [r7, #4]
 8000d3c:	691b      	ldr	r3, [r3, #16]
 8000d3e:	2b01      	cmp	r3, #1
 8000d40:	d001      	beq.n	8000d46 <HAL_RCC_OscConfig+0x176>
      {
        return HAL_ERROR;
 8000d42:	2301      	movs	r3, #1
 8000d44:	e1ba      	b.n	80010bc <HAL_RCC_OscConfig+0x4ec>
      }
      /* Otherwise, just the calibration is allowed */
      else
      {
        /* Adjusts the Internal High Speed oscillator (HSI) calibration value.*/
        __HAL_RCC_HSI_CALIBRATIONVALUE_ADJUST(RCC_OscInitStruct->HSICalibrationValue);
 8000d46:	4b3d      	ldr	r3, [pc, #244]	; (8000e3c <HAL_RCC_OscConfig+0x26c>)
 8000d48:	681b      	ldr	r3, [r3, #0]
 8000d4a:	f023 02f8 	bic.w	r2, r3, #248	; 0xf8
 8000d4e:	687b      	ldr	r3, [r7, #4]
 8000d50:	695b      	ldr	r3, [r3, #20]
 8000d52:	00db      	lsls	r3, r3, #3
 8000d54:	4939      	ldr	r1, [pc, #228]	; (8000e3c <HAL_RCC_OscConfig+0x26c>)
 8000d56:	4313      	orrs	r3, r2
 8000d58:	600b      	str	r3, [r1, #0]
      if ((__HAL_RCC_GET_FLAG(RCC_FLAG_HSIRDY) != RESET) && (RCC_OscInitStruct->HSIState != RCC_HSI_ON))
 8000d5a:	e03a      	b.n	8000dd2 <HAL_RCC_OscConfig+0x202>
      }
    }
    else
    {
      /* Check the HSI State */
      if (RCC_OscInitStruct->HSIState != RCC_HSI_OFF)
 8000d5c:	687b      	ldr	r3, [r7, #4]
 8000d5e:	691b      	ldr	r3, [r3, #16]
 8000d60:	2b00      	cmp	r3, #0
 8000d62:	d020      	beq.n	8000da6 <HAL_RCC_OscConfig+0x1d6>
      {
        /* Enable the Internal High Speed oscillator (HSI). */
        __HAL_RCC_HSI_ENABLE();
 8000d64:	4b36      	ldr	r3, [pc, #216]	; (8000e40 <HAL_RCC_OscConfig+0x270>)
 8000d66:	2201      	movs	r2, #1
 8000d68:	601a      	str	r2, [r3, #0]

        /* Get Start Tick */
        tickstart = HAL_GetTick();
 8000d6a:	f7ff fc7f 	bl	800066c <HAL_GetTick>
 8000d6e:	6138      	str	r0, [r7, #16]

        /* Wait till HSI is ready */
        while (__HAL_RCC_GET_FLAG(RCC_FLAG_HSIRDY) == RESET)
 8000d70:	e008      	b.n	8000d84 <HAL_RCC_OscConfig+0x1b4>
        {
          if ((HAL_GetTick() - tickstart) > HSI_TIMEOUT_VALUE)
 8000d72:	f7ff fc7b 	bl	800066c <HAL_GetTick>
 8000d76:	4602      	mov	r2, r0
 8000d78:	693b      	ldr	r3, [r7, #16]
 8000d7a:	1ad3      	subs	r3, r2, r3
 8000d7c:	2b02      	cmp	r3, #2
 8000d7e:	d901      	bls.n	8000d84 <HAL_RCC_OscConfig+0x1b4>
          {
            return HAL_TIMEOUT;
 8000d80:	2303      	movs	r3, #3
 8000d82:	e19b      	b.n	80010bc <HAL_RCC_OscConfig+0x4ec>
        while (__HAL_RCC_GET_FLAG(RCC_FLAG_HSIRDY) == RESET)
 8000d84:	4b2d      	ldr	r3, [pc, #180]	; (8000e3c <HAL_RCC_OscConfig+0x26c>)
 8000d86:	681b      	ldr	r3, [r3, #0]
 8000d88:	f003 0302 	and.w	r3, r3, #2
 8000d8c:	2b00      	cmp	r3, #0
 8000d8e:	d0f0      	beq.n	8000d72 <HAL_RCC_OscConfig+0x1a2>
          }
        }

        /* Adjusts the Internal High Speed oscillator (HSI) calibration value.*/
        __HAL_RCC_HSI_CALIBRATIONVALUE_ADJUST(RCC_OscInitStruct->HSICalibrationValue);
 8000d90:	4b2a      	ldr	r3, [pc, #168]	; (8000e3c <HAL_RCC_OscConfig+0x26c>)
 8000d92:	681b      	ldr	r3, [r3, #0]
 8000d94:	f023 02f8 	bic.w	r2, r3, #248	; 0xf8
 8000d98:	687b      	ldr	r3, [r7, #4]
 8000d9a:	695b      	ldr	r3, [r3, #20]
 8000d9c:	00db      	lsls	r3, r3, #3
 8000d9e:	4927      	ldr	r1, [pc, #156]	; (8000e3c <HAL_RCC_OscConfig+0x26c>)
 8000da0:	4313      	orrs	r3, r2
 8000da2:	600b      	str	r3, [r1, #0]
 8000da4:	e015      	b.n	8000dd2 <HAL_RCC_OscConfig+0x202>
      }
      else
      {
        /* Disable the Internal High Speed oscillator (HSI). */
        __HAL_RCC_HSI_DISABLE();
 8000da6:	4b26      	ldr	r3, [pc, #152]	; (8000e40 <HAL_RCC_OscConfig+0x270>)
 8000da8:	2200      	movs	r2, #0
 8000daa:	601a      	str	r2, [r3, #0]

        /* Get Start Tick */
        tickstart = HAL_GetTick();
 8000dac:	f7ff fc5e 	bl	800066c <HAL_GetTick>
 8000db0:	6138      	str	r0, [r7, #16]

        /* Wait till HSI is disabled */
        while (__HAL_RCC_GET_FLAG(RCC_FLAG_HSIRDY) != RESET)
 8000db2:	e008      	b.n	8000dc6 <HAL_RCC_OscConfig+0x1f6>
        {
          if ((HAL_GetTick() - tickstart) > HSI_TIMEOUT_VALUE)
 8000db4:	f7ff fc5a 	bl	800066c <HAL_GetTick>
 8000db8:	4602      	mov	r2, r0
 8000dba:	693b      	ldr	r3, [r7, #16]
 8000dbc:	1ad3      	subs	r3, r2, r3
 8000dbe:	2b02      	cmp	r3, #2
 8000dc0:	d901      	bls.n	8000dc6 <HAL_RCC_OscConfig+0x1f6>
          {
            return HAL_TIMEOUT;
 8000dc2:	2303      	movs	r3, #3
 8000dc4:	e17a      	b.n	80010bc <HAL_RCC_OscConfig+0x4ec>
        while (__HAL_RCC_GET_FLAG(RCC_FLAG_HSIRDY) != RESET)
 8000dc6:	4b1d      	ldr	r3, [pc, #116]	; (8000e3c <HAL_RCC_OscConfig+0x26c>)
 8000dc8:	681b      	ldr	r3, [r3, #0]
 8000dca:	f003 0302 	and.w	r3, r3, #2
 8000dce:	2b00      	cmp	r3, #0
 8000dd0:	d1f0      	bne.n	8000db4 <HAL_RCC_OscConfig+0x1e4>
        }
      }
    }
  }
  /*------------------------------ LSI Configuration -------------------------*/
  if (((RCC_OscInitStruct->OscillatorType) & RCC_OSCILLATORTYPE_LSI) == RCC_OSCILLATORTYPE_LSI)
 8000dd2:	687b      	ldr	r3, [r7, #4]
 8000dd4:	681b      	ldr	r3, [r3, #0]
 8000dd6:	f003 0308 	and.w	r3, r3, #8
 8000dda:	2b00      	cmp	r3, #0
 8000ddc:	d03a      	beq.n	8000e54 <HAL_RCC_OscConfig+0x284>
  {
    /* Check the parameters */
    assert_param(IS_RCC_LSI(RCC_OscInitStruct->LSIState));

    /* Check the LSI State */
    if (RCC_OscInitStruct->LSIState != RCC_LSI_OFF)
 8000dde:	687b      	ldr	r3, [r7, #4]
 8000de0:	699b      	ldr	r3, [r3, #24]
 8000de2:	2b00      	cmp	r3, #0
 8000de4:	d019      	beq.n	8000e1a <HAL_RCC_OscConfig+0x24a>
    {
      /* Enable the Internal Low Speed oscillator (LSI). */
      __HAL_RCC_LSI_ENABLE();
 8000de6:	4b17      	ldr	r3, [pc, #92]	; (8000e44 <HAL_RCC_OscConfig+0x274>)
 8000de8:	2201      	movs	r2, #1
 8000dea:	601a      	str	r2, [r3, #0]

      /* Get Start Tick */
      tickstart = HAL_GetTick();
 8000dec:	f7ff fc3e 	bl	800066c <HAL_GetTick>
 8000df0:	6138      	str	r0, [r7, #16]

      /* Wait till LSI is ready */
      while (__HAL_RCC_GET_FLAG(RCC_FLAG_LSIRDY) == RESET)
 8000df2:	e008      	b.n	8000e06 <HAL_RCC_OscConfig+0x236>
      {
        if ((HAL_GetTick() - tickstart) > LSI_TIMEOUT_VALUE)
 8000df4:	f7ff fc3a 	bl	800066c <HAL_GetTick>
 8000df8:	4602      	mov	r2, r0
 8000dfa:	693b      	ldr	r3, [r7, #16]
 8000dfc:	1ad3      	subs	r3, r2, r3
 8000dfe:	2b02      	cmp	r3, #2
 8000e00:	d901      	bls.n	8000e06 <HAL_RCC_OscConfig+0x236>
        {
          return HAL_TIMEOUT;
 8000e02:	2303      	movs	r3, #3
 8000e04:	e15a      	b.n	80010bc <HAL_RCC_OscConfig+0x4ec>
      while (__HAL_RCC_GET_FLAG(RCC_FLAG_LSIRDY) == RESET)
 8000e06:	4b0d      	ldr	r3, [pc, #52]	; (8000e3c <HAL_RCC_OscConfig+0x26c>)
 8000e08:	6a5b      	ldr	r3, [r3, #36]	; 0x24
 8000e0a:	f003 0302 	and.w	r3, r3, #2
 8000e0e:	2b00      	cmp	r3, #0
 8000e10:	d0f0      	beq.n	8000df4 <HAL_RCC_OscConfig+0x224>
        }
      }
      /*  To have a fully stabilized clock in the specified range, a software delay of 1ms
          should be added.*/
      RCC_Delay(1);
 8000e12:	2001      	movs	r0, #1
 8000e14:	f000 fada 	bl	80013cc <RCC_Delay>
 8000e18:	e01c      	b.n	8000e54 <HAL_RCC_OscConfig+0x284>
    }
    else
    {
      /* Disable the Internal Low Speed oscillator (LSI). */
      __HAL_RCC_LSI_DISABLE();
 8000e1a:	4b0a      	ldr	r3, [pc, #40]	; (8000e44 <HAL_RCC_OscConfig+0x274>)
 8000e1c:	2200      	movs	r2, #0
 8000e1e:	601a      	str	r2, [r3, #0]

      /* Get Start Tick */
      tickstart = HAL_GetTick();
 8000e20:	f7ff fc24 	bl	800066c <HAL_GetTick>
 8000e24:	6138      	str	r0, [r7, #16]

      /* Wait till LSI is disabled */
      while (__HAL_RCC_GET_FLAG(RCC_FLAG_LSIRDY) != RESET)
 8000e26:	e00f      	b.n	8000e48 <HAL_RCC_OscConfig+0x278>
      {
        if ((HAL_GetTick() - tickstart) > LSI_TIMEOUT_VALUE)
 8000e28:	f7ff fc20 	bl	800066c <HAL_GetTick>
 8000e2c:	4602      	mov	r2, r0
 8000e2e:	693b      	ldr	r3, [r7, #16]
 8000e30:	1ad3      	subs	r3, r2, r3
 8000e32:	2b02      	cmp	r3, #2
 8000e34:	d908      	bls.n	8000e48 <HAL_RCC_OscConfig+0x278>
        {
          return HAL_TIMEOUT;
 8000e36:	2303      	movs	r3, #3
 8000e38:	e140      	b.n	80010bc <HAL_RCC_OscConfig+0x4ec>
 8000e3a:	bf00      	nop
 8000e3c:	40021000 	.word	0x40021000
 8000e40:	42420000 	.word	0x42420000
 8000e44:	42420480 	.word	0x42420480
      while (__HAL_RCC_GET_FLAG(RCC_FLAG_LSIRDY) != RESET)
 8000e48:	4b9e      	ldr	r3, [pc, #632]	; (80010c4 <HAL_RCC_OscConfig+0x4f4>)
 8000e4a:	6a5b      	ldr	r3, [r3, #36]	; 0x24
 8000e4c:	f003 0302 	and.w	r3, r3, #2
 8000e50:	2b00      	cmp	r3, #0
 8000e52:	d1e9      	bne.n	8000e28 <HAL_RCC_OscConfig+0x258>
        }
      }
    }
  }
  /*------------------------------ LSE Configuration -------------------------*/
  if (((RCC_OscInitStruct->OscillatorType) & RCC_OSCILLATORTYPE_LSE) == RCC_OSCILLATORTYPE_LSE)
 8000e54:	687b      	ldr	r3, [r7, #4]
 8000e56:	681b      	ldr	r3, [r3, #0]
 8000e58:	f003 0304 	and.w	r3, r3, #4
 8000e5c:	2b00      	cmp	r3, #0
 8000e5e:	f000 80a6 	beq.w	8000fae <HAL_RCC_OscConfig+0x3de>
  {
    FlagStatus       pwrclkchanged = RESET;
 8000e62:	2300      	movs	r3, #0
 8000e64:	75fb      	strb	r3, [r7, #23]
    /* Check the parameters */
    assert_param(IS_RCC_LSE(RCC_OscInitStruct->LSEState));

    /* Update LSE configuration in Backup Domain control register    */
    /* Requires to enable write access to Backup Domain of necessary */
    if (__HAL_RCC_PWR_IS_CLK_DISABLED())
 8000e66:	4b97      	ldr	r3, [pc, #604]	; (80010c4 <HAL_RCC_OscConfig+0x4f4>)
 8000e68:	69db      	ldr	r3, [r3, #28]
 8000e6a:	f003 5380 	and.w	r3, r3, #268435456	; 0x10000000
 8000e6e:	2b00      	cmp	r3, #0
 8000e70:	d10d      	bne.n	8000e8e <HAL_RCC_OscConfig+0x2be>
    {
      __HAL_RCC_PWR_CLK_ENABLE();
 8000e72:	4b94      	ldr	r3, [pc, #592]	; (80010c4 <HAL_RCC_OscConfig+0x4f4>)
 8000e74:	69db      	ldr	r3, [r3, #28]
 8000e76:	4a93      	ldr	r2, [pc, #588]	; (80010c4 <HAL_RCC_OscConfig+0x4f4>)
 8000e78:	f043 5380 	orr.w	r3, r3, #268435456	; 0x10000000
 8000e7c:	61d3      	str	r3, [r2, #28]
 8000e7e:	4b91      	ldr	r3, [pc, #580]	; (80010c4 <HAL_RCC_OscConfig+0x4f4>)
 8000e80:	69db      	ldr	r3, [r3, #28]
 8000e82:	f003 5380 	and.w	r3, r3, #268435456	; 0x10000000
 8000e86:	60bb      	str	r3, [r7, #8]
 8000e88:	68bb      	ldr	r3, [r7, #8]
      pwrclkchanged = SET;
 8000e8a:	2301      	movs	r3, #1
 8000e8c:	75fb      	strb	r3, [r7, #23]
    }

    if (HAL_IS_BIT_CLR(PWR->CR, PWR_CR_DBP))
 8000e8e:	4b8e      	ldr	r3, [pc, #568]	; (80010c8 <HAL_RCC_OscConfig+0x4f8>)
 8000e90:	681b      	ldr	r3, [r3, #0]
 8000e92:	f403 7380 	and.w	r3, r3, #256	; 0x100
 8000e96:	2b00      	cmp	r3, #0
 8000e98:	d118      	bne.n	8000ecc <HAL_RCC_OscConfig+0x2fc>
    {
      /* Enable write access to Backup domain */
      SET_BIT(PWR->CR, PWR_CR_DBP);
 8000e9a:	4b8b      	ldr	r3, [pc, #556]	; (80010c8 <HAL_RCC_OscConfig+0x4f8>)
 8000e9c:	681b      	ldr	r3, [r3, #0]
 8000e9e:	4a8a      	ldr	r2, [pc, #552]	; (80010c8 <HAL_RCC_OscConfig+0x4f8>)
 8000ea0:	f443 7380 	orr.w	r3, r3, #256	; 0x100
 8000ea4:	6013      	str	r3, [r2, #0]

      /* Wait for Backup domain Write protection disable */
      tickstart = HAL_GetTick();
 8000ea6:	f7ff fbe1 	bl	800066c <HAL_GetTick>
 8000eaa:	6138      	str	r0, [r7, #16]

      while (HAL_IS_BIT_CLR(PWR->CR, PWR_CR_DBP))
 8000eac:	e008      	b.n	8000ec0 <HAL_RCC_OscConfig+0x2f0>
      {
        if ((HAL_GetTick() - tickstart) > RCC_DBP_TIMEOUT_VALUE)
 8000eae:	f7ff fbdd 	bl	800066c <HAL_GetTick>
 8000eb2:	4602      	mov	r2, r0
 8000eb4:	693b      	ldr	r3, [r7, #16]
 8000eb6:	1ad3      	subs	r3, r2, r3
 8000eb8:	2b64      	cmp	r3, #100	; 0x64
 8000eba:	d901      	bls.n	8000ec0 <HAL_RCC_OscConfig+0x2f0>
        {
          return HAL_TIMEOUT;
 8000ebc:	2303      	movs	r3, #3
 8000ebe:	e0fd      	b.n	80010bc <HAL_RCC_OscConfig+0x4ec>
      while (HAL_IS_BIT_CLR(PWR->CR, PWR_CR_DBP))
 8000ec0:	4b81      	ldr	r3, [pc, #516]	; (80010c8 <HAL_RCC_OscConfig+0x4f8>)
 8000ec2:	681b      	ldr	r3, [r3, #0]
 8000ec4:	f403 7380 	and.w	r3, r3, #256	; 0x100
 8000ec8:	2b00      	cmp	r3, #0
 8000eca:	d0f0      	beq.n	8000eae <HAL_RCC_OscConfig+0x2de>
        }
      }
    }

    /* Set the new LSE configuration -----------------------------------------*/
    __HAL_RCC_LSE_CONFIG(RCC_OscInitStruct->LSEState);
 8000ecc:	687b      	ldr	r3, [r7, #4]
 8000ece:	68db      	ldr	r3, [r3, #12]
 8000ed0:	2b01      	cmp	r3, #1
 8000ed2:	d106      	bne.n	8000ee2 <HAL_RCC_OscConfig+0x312>
 8000ed4:	4b7b      	ldr	r3, [pc, #492]	; (80010c4 <HAL_RCC_OscConfig+0x4f4>)
 8000ed6:	6a1b      	ldr	r3, [r3, #32]
 8000ed8:	4a7a      	ldr	r2, [pc, #488]	; (80010c4 <HAL_RCC_OscConfig+0x4f4>)
 8000eda:	f043 0301 	orr.w	r3, r3, #1
 8000ede:	6213      	str	r3, [r2, #32]
 8000ee0:	e02d      	b.n	8000f3e <HAL_RCC_OscConfig+0x36e>
 8000ee2:	687b      	ldr	r3, [r7, #4]
 8000ee4:	68db      	ldr	r3, [r3, #12]
 8000ee6:	2b00      	cmp	r3, #0
 8000ee8:	d10c      	bne.n	8000f04 <HAL_RCC_OscConfig+0x334>
 8000eea:	4b76      	ldr	r3, [pc, #472]	; (80010c4 <HAL_RCC_OscConfig+0x4f4>)
 8000eec:	6a1b      	ldr	r3, [r3, #32]
 8000eee:	4a75      	ldr	r2, [pc, #468]	; (80010c4 <HAL_RCC_OscConfig+0x4f4>)
 8000ef0:	f023 0301 	bic.w	r3, r3, #1
 8000ef4:	6213      	str	r3, [r2, #32]
 8000ef6:	4b73      	ldr	r3, [pc, #460]	; (80010c4 <HAL_RCC_OscConfig+0x4f4>)
 8000ef8:	6a1b      	ldr	r3, [r3, #32]
 8000efa:	4a72      	ldr	r2, [pc, #456]	; (80010c4 <HAL_RCC_OscConfig+0x4f4>)
 8000efc:	f023 0304 	bic.w	r3, r3, #4
 8000f00:	6213      	str	r3, [r2, #32]
 8000f02:	e01c      	b.n	8000f3e <HAL_RCC_OscConfig+0x36e>
 8000f04:	687b      	ldr	r3, [r7, #4]
 8000f06:	68db      	ldr	r3, [r3, #12]
 8000f08:	2b05      	cmp	r3, #5
 8000f0a:	d10c      	bne.n	8000f26 <HAL_RCC_OscConfig+0x356>
 8000f0c:	4b6d      	ldr	r3, [pc, #436]	; (80010c4 <HAL_RCC_OscConfig+0x4f4>)
 8000f0e:	6a1b      	ldr	r3, [r3, #32]
 8000f10:	4a6c      	ldr	r2, [pc, #432]	; (80010c4 <HAL_RCC_OscConfig+0x4f4>)
 8000f12:	f043 0304 	orr.w	r3, r3, #4
 8000f16:	6213      	str	r3, [r2, #32]
 8000f18:	4b6a      	ldr	r3, [pc, #424]	; (80010c4 <HAL_RCC_OscConfig+0x4f4>)
 8000f1a:	6a1b      	ldr	r3, [r3, #32]
 8000f1c:	4a69      	ldr	r2, [pc, #420]	; (80010c4 <HAL_RCC_OscConfig+0x4f4>)
 8000f1e:	f043 0301 	orr.w	r3, r3, #1
 8000f22:	6213      	str	r3, [r2, #32]
 8000f24:	e00b      	b.n	8000f3e <HAL_RCC_OscConfig+0x36e>
 8000f26:	4b67      	ldr	r3, [pc, #412]	; (80010c4 <HAL_RCC_OscConfig+0x4f4>)
 8000f28:	6a1b      	ldr	r3, [r3, #32]
 8000f2a:	4a66      	ldr	r2, [pc, #408]	; (80010c4 <HAL_RCC_OscConfig+0x4f4>)
 8000f2c:	f023 0301 	bic.w	r3, r3, #1
 8000f30:	6213      	str	r3, [r2, #32]
 8000f32:	4b64      	ldr	r3, [pc, #400]	; (80010c4 <HAL_RCC_OscConfig+0x4f4>)
 8000f34:	6a1b      	ldr	r3, [r3, #32]
 8000f36:	4a63      	ldr	r2, [pc, #396]	; (80010c4 <HAL_RCC_OscConfig+0x4f4>)
 8000f38:	f023 0304 	bic.w	r3, r3, #4
 8000f3c:	6213      	str	r3, [r2, #32]
    /* Check the LSE State */
    if (RCC_OscInitStruct->LSEState != RCC_LSE_OFF)
 8000f3e:	687b      	ldr	r3, [r7, #4]
 8000f40:	68db      	ldr	r3, [r3, #12]
 8000f42:	2b00      	cmp	r3, #0
 8000f44:	d015      	beq.n	8000f72 <HAL_RCC_OscConfig+0x3a2>
    {
      /* Get Start Tick */
      tickstart = HAL_GetTick();
 8000f46:	f7ff fb91 	bl	800066c <HAL_GetTick>
 8000f4a:	6138      	str	r0, [r7, #16]

      /* Wait till LSE is ready */
      while (__HAL_RCC_GET_FLAG(RCC_FLAG_LSERDY) == RESET)
 8000f4c:	e00a      	b.n	8000f64 <HAL_RCC_OscConfig+0x394>
      {
        if ((HAL_GetTick() - tickstart) > RCC_LSE_TIMEOUT_VALUE)
 8000f4e:	f7ff fb8d 	bl	800066c <HAL_GetTick>
 8000f52:	4602      	mov	r2, r0
 8000f54:	693b      	ldr	r3, [r7, #16]
 8000f56:	1ad3      	subs	r3, r2, r3
 8000f58:	f241 3288 	movw	r2, #5000	; 0x1388
 8000f5c:	4293      	cmp	r3, r2
 8000f5e:	d901      	bls.n	8000f64 <HAL_RCC_OscConfig+0x394>
        {
          return HAL_TIMEOUT;
 8000f60:	2303      	movs	r3, #3
 8000f62:	e0ab      	b.n	80010bc <HAL_RCC_OscConfig+0x4ec>
      while (__HAL_RCC_GET_FLAG(RCC_FLAG_LSERDY) == RESET)
 8000f64:	4b57      	ldr	r3, [pc, #348]	; (80010c4 <HAL_RCC_OscConfig+0x4f4>)
 8000f66:	6a1b      	ldr	r3, [r3, #32]
 8000f68:	f003 0302 	and.w	r3, r3, #2
 8000f6c:	2b00      	cmp	r3, #0
 8000f6e:	d0ee      	beq.n	8000f4e <HAL_RCC_OscConfig+0x37e>
 8000f70:	e014      	b.n	8000f9c <HAL_RCC_OscConfig+0x3cc>
      }
    }
    else
    {
      /* Get Start Tick */
      tickstart = HAL_GetTick();
 8000f72:	f7ff fb7b 	bl	800066c <HAL_GetTick>
 8000f76:	6138      	str	r0, [r7, #16]

      /* Wait till LSE is disabled */
      while (__HAL_RCC_GET_FLAG(RCC_FLAG_LSERDY) != RESET)
 8000f78:	e00a      	b.n	8000f90 <HAL_RCC_OscConfig+0x3c0>
      {
        if ((HAL_GetTick() - tickstart) > RCC_LSE_TIMEOUT_VALUE)
 8000f7a:	f7ff fb77 	bl	800066c <HAL_GetTick>
 8000f7e:	4602      	mov	r2, r0
 8000f80:	693b      	ldr	r3, [r7, #16]
 8000f82:	1ad3      	subs	r3, r2, r3
 8000f84:	f241 3288 	movw	r2, #5000	; 0x1388
 8000f88:	4293      	cmp	r3, r2
 8000f8a:	d901      	bls.n	8000f90 <HAL_RCC_OscConfig+0x3c0>
        {
          return HAL_TIMEOUT;
 8000f8c:	2303      	movs	r3, #3
 8000f8e:	e095      	b.n	80010bc <HAL_RCC_OscConfig+0x4ec>
      while (__HAL_RCC_GET_FLAG(RCC_FLAG_LSERDY) != RESET)
 8000f90:	4b4c      	ldr	r3, [pc, #304]	; (80010c4 <HAL_RCC_OscConfig+0x4f4>)
 8000f92:	6a1b      	ldr	r3, [r3, #32]
 8000f94:	f003 0302 	and.w	r3, r3, #2
 8000f98:	2b00      	cmp	r3, #0
 8000f9a:	d1ee      	bne.n	8000f7a <HAL_RCC_OscConfig+0x3aa>
        }
      }
    }

    /* Require to disable power clock if necessary */
    if (pwrclkchanged == SET)
 8000f9c:	7dfb      	ldrb	r3, [r7, #23]
 8000f9e:	2b01      	cmp	r3, #1
 8000fa0:	d105      	bne.n	8000fae <HAL_RCC_OscConfig+0x3de>
    {
      __HAL_RCC_PWR_CLK_DISABLE();
 8000fa2:	4b48      	ldr	r3, [pc, #288]	; (80010c4 <HAL_RCC_OscConfig+0x4f4>)
 8000fa4:	69db      	ldr	r3, [r3, #28]
 8000fa6:	4a47      	ldr	r2, [pc, #284]	; (80010c4 <HAL_RCC_OscConfig+0x4f4>)
 8000fa8:	f023 5380 	bic.w	r3, r3, #268435456	; 0x10000000
 8000fac:	61d3      	str	r3, [r2, #28]

#endif /* RCC_CR_PLL2ON */
  /*-------------------------------- PLL Configuration -----------------------*/
  /* Check the parameters */
  assert_param(IS_RCC_PLL(RCC_OscInitStruct->PLL.PLLState));
  if ((RCC_OscInitStruct->PLL.PLLState) != RCC_PLL_NONE)
 8000fae:	687b      	ldr	r3, [r7, #4]
 8000fb0:	69db      	ldr	r3, [r3, #28]
 8000fb2:	2b00      	cmp	r3, #0
 8000fb4:	f000 8081 	beq.w	80010ba <HAL_RCC_OscConfig+0x4ea>
  {
    /* Check if the PLL is used as system clock or not */
    if (__HAL_RCC_GET_SYSCLK_SOURCE() != RCC_SYSCLKSOURCE_STATUS_PLLCLK)
 8000fb8:	4b42      	ldr	r3, [pc, #264]	; (80010c4 <HAL_RCC_OscConfig+0x4f4>)
 8000fba:	685b      	ldr	r3, [r3, #4]
 8000fbc:	f003 030c 	and.w	r3, r3, #12
 8000fc0:	2b08      	cmp	r3, #8
 8000fc2:	d061      	beq.n	8001088 <HAL_RCC_OscConfig+0x4b8>
    {
      if ((RCC_OscInitStruct->PLL.PLLState) == RCC_PLL_ON)
 8000fc4:	687b      	ldr	r3, [r7, #4]
 8000fc6:	69db      	ldr	r3, [r3, #28]
 8000fc8:	2b02      	cmp	r3, #2
 8000fca:	d146      	bne.n	800105a <HAL_RCC_OscConfig+0x48a>
        /* Check the parameters */
        assert_param(IS_RCC_PLLSOURCE(RCC_OscInitStruct->PLL.PLLSource));
        assert_param(IS_RCC_PLL_MUL(RCC_OscInitStruct->PLL.PLLMUL));

        /* Disable the main PLL. */
        __HAL_RCC_PLL_DISABLE();
 8000fcc:	4b3f      	ldr	r3, [pc, #252]	; (80010cc <HAL_RCC_OscConfig+0x4fc>)
 8000fce:	2200      	movs	r2, #0
 8000fd0:	601a      	str	r2, [r3, #0]

        /* Get Start Tick */
        tickstart = HAL_GetTick();
 8000fd2:	f7ff fb4b 	bl	800066c <HAL_GetTick>
 8000fd6:	6138      	str	r0, [r7, #16]

        /* Wait till PLL is disabled */
        while (__HAL_RCC_GET_FLAG(RCC_FLAG_PLLRDY)  != RESET)
 8000fd8:	e008      	b.n	8000fec <HAL_RCC_OscConfig+0x41c>
        {
          if ((HAL_GetTick() - tickstart) > PLL_TIMEOUT_VALUE)
 8000fda:	f7ff fb47 	bl	800066c <HAL_GetTick>
 8000fde:	4602      	mov	r2, r0
 8000fe0:	693b      	ldr	r3, [r7, #16]
 8000fe2:	1ad3      	subs	r3, r2, r3
 8000fe4:	2b02      	cmp	r3, #2
 8000fe6:	d901      	bls.n	8000fec <HAL_RCC_OscConfig+0x41c>
          {
            return HAL_TIMEOUT;
 8000fe8:	2303      	movs	r3, #3
 8000fea:	e067      	b.n	80010bc <HAL_RCC_OscConfig+0x4ec>
        while (__HAL_RCC_GET_FLAG(RCC_FLAG_PLLRDY)  != RESET)
 8000fec:	4b35      	ldr	r3, [pc, #212]	; (80010c4 <HAL_RCC_OscConfig+0x4f4>)
 8000fee:	681b      	ldr	r3, [r3, #0]
 8000ff0:	f003 7300 	and.w	r3, r3, #33554432	; 0x2000000
 8000ff4:	2b00      	cmp	r3, #0
 8000ff6:	d1f0      	bne.n	8000fda <HAL_RCC_OscConfig+0x40a>
          }
        }

        /* Configure the HSE prediv factor --------------------------------*/
        /* It can be written only when the PLL is disabled. Not used in PLL source is different than HSE */
        if (RCC_OscInitStruct->PLL.PLLSource == RCC_PLLSOURCE_HSE)
 8000ff8:	687b      	ldr	r3, [r7, #4]
 8000ffa:	6a1b      	ldr	r3, [r3, #32]
 8000ffc:	f5b3 3f80 	cmp.w	r3, #65536	; 0x10000
 8001000:	d108      	bne.n	8001014 <HAL_RCC_OscConfig+0x444>
          /* Set PREDIV1 source */
          SET_BIT(RCC->CFGR2, RCC_OscInitStruct->Prediv1Source);
#endif /* RCC_CFGR2_PREDIV1SRC */

          /* Set PREDIV1 Value */
          __HAL_RCC_HSE_PREDIV_CONFIG(RCC_OscInitStruct->HSEPredivValue);
 8001002:	4b30      	ldr	r3, [pc, #192]	; (80010c4 <HAL_RCC_OscConfig+0x4f4>)
 8001004:	685b      	ldr	r3, [r3, #4]
 8001006:	f423 3200 	bic.w	r2, r3, #131072	; 0x20000
 800100a:	687b      	ldr	r3, [r7, #4]
 800100c:	689b      	ldr	r3, [r3, #8]
 800100e:	492d      	ldr	r1, [pc, #180]	; (80010c4 <HAL_RCC_OscConfig+0x4f4>)
 8001010:	4313      	orrs	r3, r2
 8001012:	604b      	str	r3, [r1, #4]
        }

        /* Configure the main PLL clock source and multiplication factors. */
        __HAL_RCC_PLL_CONFIG(RCC_OscInitStruct->PLL.PLLSource,
 8001014:	4b2b      	ldr	r3, [pc, #172]	; (80010c4 <HAL_RCC_OscConfig+0x4f4>)
 8001016:	685b      	ldr	r3, [r3, #4]
 8001018:	f423 1274 	bic.w	r2, r3, #3997696	; 0x3d0000
 800101c:	687b      	ldr	r3, [r7, #4]
 800101e:	6a19      	ldr	r1, [r3, #32]
 8001020:	687b      	ldr	r3, [r7, #4]
 8001022:	6a5b      	ldr	r3, [r3, #36]	; 0x24
 8001024:	430b      	orrs	r3, r1
 8001026:	4927      	ldr	r1, [pc, #156]	; (80010c4 <HAL_RCC_OscConfig+0x4f4>)
 8001028:	4313      	orrs	r3, r2
 800102a:	604b      	str	r3, [r1, #4]
                             RCC_OscInitStruct->PLL.PLLMUL);
        /* Enable the main PLL. */
        __HAL_RCC_PLL_ENABLE();
 800102c:	4b27      	ldr	r3, [pc, #156]	; (80010cc <HAL_RCC_OscConfig+0x4fc>)
 800102e:	2201      	movs	r2, #1
 8001030:	601a      	str	r2, [r3, #0]

        /* Get Start Tick */
        tickstart = HAL_GetTick();
 8001032:	f7ff fb1b 	bl	800066c <HAL_GetTick>
 8001036:	6138      	str	r0, [r7, #16]

        /* Wait till PLL is ready */
        while (__HAL_RCC_GET_FLAG(RCC_FLAG_PLLRDY)  == RESET)
 8001038:	e008      	b.n	800104c <HAL_RCC_OscConfig+0x47c>
        {
          if ((HAL_GetTick() - tickstart) > PLL_TIMEOUT_VALUE)
 800103a:	f7ff fb17 	bl	800066c <HAL_GetTick>
 800103e:	4602      	mov	r2, r0
 8001040:	693b      	ldr	r3, [r7, #16]
 8001042:	1ad3      	subs	r3, r2, r3
 8001044:	2b02      	cmp	r3, #2
 8001046:	d901      	bls.n	800104c <HAL_RCC_OscConfig+0x47c>
          {
            return HAL_TIMEOUT;
 8001048:	2303      	movs	r3, #3
 800104a:	e037      	b.n	80010bc <HAL_RCC_OscConfig+0x4ec>
        while (__HAL_RCC_GET_FLAG(RCC_FLAG_PLLRDY)  == RESET)
 800104c:	4b1d      	ldr	r3, [pc, #116]	; (80010c4 <HAL_RCC_OscConfig+0x4f4>)
 800104e:	681b      	ldr	r3, [r3, #0]
 8001050:	f003 7300 	and.w	r3, r3, #33554432	; 0x2000000
 8001054:	2b00      	cmp	r3, #0
 8001056:	d0f0      	beq.n	800103a <HAL_RCC_OscConfig+0x46a>
 8001058:	e02f      	b.n	80010ba <HAL_RCC_OscConfig+0x4ea>
        }
      }
      else
      {
        /* Disable the main PLL. */
        __HAL_RCC_PLL_DISABLE();
 800105a:	4b1c      	ldr	r3, [pc, #112]	; (80010cc <HAL_RCC_OscConfig+0x4fc>)
 800105c:	2200      	movs	r2, #0
 800105e:	601a      	str	r2, [r3, #0]

        /* Get Start Tick */
        tickstart = HAL_GetTick();
 8001060:	f7ff fb04 	bl	800066c <HAL_GetTick>
 8001064:	6138      	str	r0, [r7, #16]

        /* Wait till PLL is disabled */
        while (__HAL_RCC_GET_FLAG(RCC_FLAG_PLLRDY)  != RESET)
 8001066:	e008      	b.n	800107a <HAL_RCC_OscConfig+0x4aa>
        {
          if ((HAL_GetTick() - tickstart) > PLL_TIMEOUT_VALUE)
 8001068:	f7ff fb00 	bl	800066c <HAL_GetTick>
 800106c:	4602      	mov	r2, r0
 800106e:	693b      	ldr	r3, [r7, #16]
 8001070:	1ad3      	subs	r3, r2, r3
 8001072:	2b02      	cmp	r3, #2
 8001074:	d901      	bls.n	800107a <HAL_RCC_OscConfig+0x4aa>
          {
            return HAL_TIMEOUT;
 8001076:	2303      	movs	r3, #3
 8001078:	e020      	b.n	80010bc <HAL_RCC_OscConfig+0x4ec>
        while (__HAL_RCC_GET_FLAG(RCC_FLAG_PLLRDY)  != RESET)
 800107a:	4b12      	ldr	r3, [pc, #72]	; (80010c4 <HAL_RCC_OscConfig+0x4f4>)
 800107c:	681b      	ldr	r3, [r3, #0]
 800107e:	f003 7300 	and.w	r3, r3, #33554432	; 0x2000000
 8001082:	2b00      	cmp	r3, #0
 8001084:	d1f0      	bne.n	8001068 <HAL_RCC_OscConfig+0x498>
 8001086:	e018      	b.n	80010ba <HAL_RCC_OscConfig+0x4ea>
      }
    }
    else
    {
      /* Check if there is a request to disable the PLL used as System clock source */
      if ((RCC_OscInitStruct->PLL.PLLState) == RCC_PLL_OFF)
 8001088:	687b      	ldr	r3, [r7, #4]
 800108a:	69db      	ldr	r3, [r3, #28]
 800108c:	2b01      	cmp	r3, #1
 800108e:	d101      	bne.n	8001094 <HAL_RCC_OscConfig+0x4c4>
      {
        return HAL_ERROR;
 8001090:	2301      	movs	r3, #1
 8001092:	e013      	b.n	80010bc <HAL_RCC_OscConfig+0x4ec>
      }
      else
      {
        /* Do not return HAL_ERROR if request repeats the current configuration */
        pll_config = RCC->CFGR;
 8001094:	4b0b      	ldr	r3, [pc, #44]	; (80010c4 <HAL_RCC_OscConfig+0x4f4>)
 8001096:	685b      	ldr	r3, [r3, #4]
 8001098:	60fb      	str	r3, [r7, #12]
        if ((READ_BIT(pll_config, RCC_CFGR_PLLSRC) != RCC_OscInitStruct->PLL.PLLSource) ||
 800109a:	68fb      	ldr	r3, [r7, #12]
 800109c:	f403 3280 	and.w	r2, r3, #65536	; 0x10000
 80010a0:	687b      	ldr	r3, [r7, #4]
 80010a2:	6a1b      	ldr	r3, [r3, #32]
 80010a4:	429a      	cmp	r2, r3
 80010a6:	d106      	bne.n	80010b6 <HAL_RCC_OscConfig+0x4e6>
            (READ_BIT(pll_config, RCC_CFGR_PLLMULL) != RCC_OscInitStruct->PLL.PLLMUL))
 80010a8:	68fb      	ldr	r3, [r7, #12]
 80010aa:	f403 1270 	and.w	r2, r3, #3932160	; 0x3c0000
 80010ae:	687b      	ldr	r3, [r7, #4]
 80010b0:	6a5b      	ldr	r3, [r3, #36]	; 0x24
        if ((READ_BIT(pll_config, RCC_CFGR_PLLSRC) != RCC_OscInitStruct->PLL.PLLSource) ||
 80010b2:	429a      	cmp	r2, r3
 80010b4:	d001      	beq.n	80010ba <HAL_RCC_OscConfig+0x4ea>
        {
          return HAL_ERROR;
 80010b6:	2301      	movs	r3, #1
 80010b8:	e000      	b.n	80010bc <HAL_RCC_OscConfig+0x4ec>
        }
      }
    }
  }

  return HAL_OK;
 80010ba:	2300      	movs	r3, #0
}
 80010bc:	4618      	mov	r0, r3
 80010be:	3718      	adds	r7, #24
 80010c0:	46bd      	mov	sp, r7
 80010c2:	bd80      	pop	{r7, pc}
 80010c4:	40021000 	.word	0x40021000
 80010c8:	40007000 	.word	0x40007000
 80010cc:	42420060 	.word	0x42420060

080010d0 <HAL_RCC_ClockConfig>:
  *         You can use @ref HAL_RCC_GetClockConfig() function to know which clock is
  *         currently used as system clock source.
  * @retval HAL status
  */
HAL_StatusTypeDef HAL_RCC_ClockConfig(RCC_ClkInitTypeDef  *RCC_ClkInitStruct, uint32_t FLatency)
{
 80010d0:	b580      	push	{r7, lr}
 80010d2:	b084      	sub	sp, #16
 80010d4:	af00      	add	r7, sp, #0
 80010d6:	6078      	str	r0, [r7, #4]
 80010d8:	6039      	str	r1, [r7, #0]
  uint32_t tickstart;

  /* Check Null pointer */
  if (RCC_ClkInitStruct == NULL)
 80010da:	687b      	ldr	r3, [r7, #4]
 80010dc:	2b00      	cmp	r3, #0
 80010de:	d101      	bne.n	80010e4 <HAL_RCC_ClockConfig+0x14>
  {
    return HAL_ERROR;
 80010e0:	2301      	movs	r3, #1
 80010e2:	e0d0      	b.n	8001286 <HAL_RCC_ClockConfig+0x1b6>
  must be correctly programmed according to the frequency of the CPU clock
    (HCLK) of the device. */

#if defined(FLASH_ACR_LATENCY)
  /* Increasing the number of wait states because of higher CPU frequency */
  if (FLatency > __HAL_FLASH_GET_LATENCY())
 80010e4:	4b6a      	ldr	r3, [pc, #424]	; (8001290 <HAL_RCC_ClockConfig+0x1c0>)
 80010e6:	681b      	ldr	r3, [r3, #0]
 80010e8:	f003 0307 	and.w	r3, r3, #7
 80010ec:	683a      	ldr	r2, [r7, #0]
 80010ee:	429a      	cmp	r2, r3
 80010f0:	d910      	bls.n	8001114 <HAL_RCC_ClockConfig+0x44>
  {
    /* Program the new number of wait states to the LATENCY bits in the FLASH_ACR register */
    __HAL_FLASH_SET_LATENCY(FLatency);
 80010f2:	4b67      	ldr	r3, [pc, #412]	; (8001290 <HAL_RCC_ClockConfig+0x1c0>)
 80010f4:	681b      	ldr	r3, [r3, #0]
 80010f6:	f023 0207 	bic.w	r2, r3, #7
 80010fa:	4965      	ldr	r1, [pc, #404]	; (8001290 <HAL_RCC_ClockConfig+0x1c0>)
 80010fc:	683b      	ldr	r3, [r7, #0]
 80010fe:	4313      	orrs	r3, r2
 8001100:	600b      	str	r3, [r1, #0]

    /* Check that the new number of wait states is taken into account to access the Flash
    memory by reading the FLASH_ACR register */
    if (__HAL_FLASH_GET_LATENCY() != FLatency)
 8001102:	4b63      	ldr	r3, [pc, #396]	; (8001290 <HAL_RCC_ClockConfig+0x1c0>)
 8001104:	681b      	ldr	r3, [r3, #0]
 8001106:	f003 0307 	and.w	r3, r3, #7
 800110a:	683a      	ldr	r2, [r7, #0]
 800110c:	429a      	cmp	r2, r3
 800110e:	d001      	beq.n	8001114 <HAL_RCC_ClockConfig+0x44>
  {
    return HAL_ERROR;
 8001110:	2301      	movs	r3, #1
 8001112:	e0b8      	b.n	8001286 <HAL_RCC_ClockConfig+0x1b6>
  }
}

#endif /* FLASH_ACR_LATENCY */
/*-------------------------- HCLK Configuration --------------------------*/
if (((RCC_ClkInitStruct->ClockType) & RCC_CLOCKTYPE_HCLK) == RCC_CLOCKTYPE_HCLK)
 8001114:	687b      	ldr	r3, [r7, #4]
 8001116:	681b      	ldr	r3, [r3, #0]
 8001118:	f003 0302 	and.w	r3, r3, #2
 800111c:	2b00      	cmp	r3, #0
 800111e:	d020      	beq.n	8001162 <HAL_RCC_ClockConfig+0x92>
  {
    /* Set the highest APBx dividers in order to ensure that we do not go through
    a non-spec phase whatever we decrease or increase HCLK. */
    if (((RCC_ClkInitStruct->ClockType) & RCC_CLOCKTYPE_PCLK1) == RCC_CLOCKTYPE_PCLK1)
 8001120:	687b      	ldr	r3, [r7, #4]
 8001122:	681b      	ldr	r3, [r3, #0]
 8001124:	f003 0304 	and.w	r3, r3, #4
 8001128:	2b00      	cmp	r3, #0
 800112a:	d005      	beq.n	8001138 <HAL_RCC_ClockConfig+0x68>
    {
      MODIFY_REG(RCC->CFGR, RCC_CFGR_PPRE1, RCC_HCLK_DIV16);
 800112c:	4b59      	ldr	r3, [pc, #356]	; (8001294 <HAL_RCC_ClockConfig+0x1c4>)
 800112e:	685b      	ldr	r3, [r3, #4]
 8001130:	4a58      	ldr	r2, [pc, #352]	; (8001294 <HAL_RCC_ClockConfig+0x1c4>)
 8001132:	f443 63e0 	orr.w	r3, r3, #1792	; 0x700
 8001136:	6053      	str	r3, [r2, #4]
    }

    if (((RCC_ClkInitStruct->ClockType) & RCC_CLOCKTYPE_PCLK2) == RCC_CLOCKTYPE_PCLK2)
 8001138:	687b      	ldr	r3, [r7, #4]
 800113a:	681b      	ldr	r3, [r3, #0]
 800113c:	f003 0308 	and.w	r3, r3, #8
 8001140:	2b00      	cmp	r3, #0
 8001142:	d005      	beq.n	8001150 <HAL_RCC_ClockConfig+0x80>
    {
      MODIFY_REG(RCC->CFGR, RCC_CFGR_PPRE2, (RCC_HCLK_DIV16 << 3));
 8001144:	4b53      	ldr	r3, [pc, #332]	; (8001294 <HAL_RCC_ClockConfig+0x1c4>)
 8001146:	685b      	ldr	r3, [r3, #4]
 8001148:	4a52      	ldr	r2, [pc, #328]	; (8001294 <HAL_RCC_ClockConfig+0x1c4>)
 800114a:	f443 5360 	orr.w	r3, r3, #14336	; 0x3800
 800114e:	6053      	str	r3, [r2, #4]
    }

    /* Set the new HCLK clock divider */
    assert_param(IS_RCC_HCLK(RCC_ClkInitStruct->AHBCLKDivider));
    MODIFY_REG(RCC->CFGR, RCC_CFGR_HPRE, RCC_ClkInitStruct->AHBCLKDivider);
 8001150:	4b50      	ldr	r3, [pc, #320]	; (8001294 <HAL_RCC_ClockConfig+0x1c4>)
 8001152:	685b      	ldr	r3, [r3, #4]
 8001154:	f023 02f0 	bic.w	r2, r3, #240	; 0xf0
 8001158:	687b      	ldr	r3, [r7, #4]
 800115a:	689b      	ldr	r3, [r3, #8]
 800115c:	494d      	ldr	r1, [pc, #308]	; (8001294 <HAL_RCC_ClockConfig+0x1c4>)
 800115e:	4313      	orrs	r3, r2
 8001160:	604b      	str	r3, [r1, #4]
  }

  /*------------------------- SYSCLK Configuration ---------------------------*/
  if (((RCC_ClkInitStruct->ClockType) & RCC_CLOCKTYPE_SYSCLK) == RCC_CLOCKTYPE_SYSCLK)
 8001162:	687b      	ldr	r3, [r7, #4]
 8001164:	681b      	ldr	r3, [r3, #0]
 8001166:	f003 0301 	and.w	r3, r3, #1
 800116a:	2b00      	cmp	r3, #0
 800116c:	d040      	beq.n	80011f0 <HAL_RCC_ClockConfig+0x120>
  {
    assert_param(IS_RCC_SYSCLKSOURCE(RCC_ClkInitStruct->SYSCLKSource));

    /* HSE is selected as System Clock Source */
    if (RCC_ClkInitStruct->SYSCLKSource == RCC_SYSCLKSOURCE_HSE)
 800116e:	687b      	ldr	r3, [r7, #4]
 8001170:	685b      	ldr	r3, [r3, #4]
 8001172:	2b01      	cmp	r3, #1
 8001174:	d107      	bne.n	8001186 <HAL_RCC_ClockConfig+0xb6>
    {
      /* Check the HSE ready flag */
      if (__HAL_RCC_GET_FLAG(RCC_FLAG_HSERDY) == RESET)
 8001176:	4b47      	ldr	r3, [pc, #284]	; (8001294 <HAL_RCC_ClockConfig+0x1c4>)
 8001178:	681b      	ldr	r3, [r3, #0]
 800117a:	f403 3300 	and.w	r3, r3, #131072	; 0x20000
 800117e:	2b00      	cmp	r3, #0
 8001180:	d115      	bne.n	80011ae <HAL_RCC_ClockConfig+0xde>
      {
        return HAL_ERROR;
 8001182:	2301      	movs	r3, #1
 8001184:	e07f      	b.n	8001286 <HAL_RCC_ClockConfig+0x1b6>
      }
    }
    /* PLL is selected as System Clock Source */
    else if (RCC_ClkInitStruct->SYSCLKSource == RCC_SYSCLKSOURCE_PLLCLK)
 8001186:	687b      	ldr	r3, [r7, #4]
 8001188:	685b      	ldr	r3, [r3, #4]
 800118a:	2b02      	cmp	r3, #2
 800118c:	d107      	bne.n	800119e <HAL_RCC_ClockConfig+0xce>
    {
      /* Check the PLL ready flag */
      if (__HAL_RCC_GET_FLAG(RCC_FLAG_PLLRDY) == RESET)
 800118e:	4b41      	ldr	r3, [pc, #260]	; (8001294 <HAL_RCC_ClockConfig+0x1c4>)
 8001190:	681b      	ldr	r3, [r3, #0]
 8001192:	f003 7300 	and.w	r3, r3, #33554432	; 0x2000000
 8001196:	2b00      	cmp	r3, #0
 8001198:	d109      	bne.n	80011ae <HAL_RCC_ClockConfig+0xde>
      {
        return HAL_ERROR;
 800119a:	2301      	movs	r3, #1
 800119c:	e073      	b.n	8001286 <HAL_RCC_ClockConfig+0x1b6>
    }
    /* HSI is selected as System Clock Source */
    else
    {
      /* Check the HSI ready flag */
      if (__HAL_RCC_GET_FLAG(RCC_FLAG_HSIRDY) == RESET)
 800119e:	4b3d      	ldr	r3, [pc, #244]	; (8001294 <HAL_RCC_ClockConfig+0x1c4>)
 80011a0:	681b      	ldr	r3, [r3, #0]
 80011a2:	f003 0302 	and.w	r3, r3, #2
 80011a6:	2b00      	cmp	r3, #0
 80011a8:	d101      	bne.n	80011ae <HAL_RCC_ClockConfig+0xde>
      {
        return HAL_ERROR;
 80011aa:	2301      	movs	r3, #1
 80011ac:	e06b      	b.n	8001286 <HAL_RCC_ClockConfig+0x1b6>
      }
    }
    __HAL_RCC_SYSCLK_CONFIG(RCC_ClkInitStruct->SYSCLKSource);
 80011ae:	4b39      	ldr	r3, [pc, #228]	; (8001294 <HAL_RCC_ClockConfig+0x1c4>)
 80011b0:	685b      	ldr	r3, [r3, #4]
 80011b2:	f023 0203 	bic.w	r2, r3, #3
 80011b6:	687b      	ldr	r3, [r7, #4]
 80011b8:	685b      	ldr	r3, [r3, #4]
 80011ba:	4936      	ldr	r1, [pc, #216]	; (8001294 <HAL_RCC_ClockConfig+0x1c4>)
 80011bc:	4313      	orrs	r3, r2
 80011be:	604b      	str	r3, [r1, #4]

    /* Get Start Tick */
    tickstart = HAL_GetTick();
 80011c0:	f7ff fa54 	bl	800066c <HAL_GetTick>
 80011c4:	60f8      	str	r0, [r7, #12]

    while (__HAL_RCC_GET_SYSCLK_SOURCE() != (RCC_ClkInitStruct->SYSCLKSource << RCC_CFGR_SWS_Pos))
 80011c6:	e00a      	b.n	80011de <HAL_RCC_ClockConfig+0x10e>
    {
      if ((HAL_GetTick() - tickstart) > CLOCKSWITCH_TIMEOUT_VALUE)
 80011c8:	f7ff fa50 	bl	800066c <HAL_GetTick>
 80011cc:	4602      	mov	r2, r0
 80011ce:	68fb      	ldr	r3, [r7, #12]
 80011d0:	1ad3      	subs	r3, r2, r3
 80011d2:	f241 3288 	movw	r2, #5000	; 0x1388
 80011d6:	4293      	cmp	r3, r2
 80011d8:	d901      	bls.n	80011de <HAL_RCC_ClockConfig+0x10e>
      {
        return HAL_TIMEOUT;
 80011da:	2303      	movs	r3, #3
 80011dc:	e053      	b.n	8001286 <HAL_RCC_ClockConfig+0x1b6>
    while (__HAL_RCC_GET_SYSCLK_SOURCE() != (RCC_ClkInitStruct->SYSCLKSource << RCC_CFGR_SWS_Pos))
 80011de:	4b2d      	ldr	r3, [pc, #180]	; (8001294 <HAL_RCC_ClockConfig+0x1c4>)
 80011e0:	685b      	ldr	r3, [r3, #4]
 80011e2:	f003 020c 	and.w	r2, r3, #12
 80011e6:	687b      	ldr	r3, [r7, #4]
 80011e8:	685b      	ldr	r3, [r3, #4]
 80011ea:	009b      	lsls	r3, r3, #2
 80011ec:	429a      	cmp	r2, r3
 80011ee:	d1eb      	bne.n	80011c8 <HAL_RCC_ClockConfig+0xf8>
    }
  }

#if defined(FLASH_ACR_LATENCY)
  /* Decreasing the number of wait states because of lower CPU frequency */
  if (FLatency < __HAL_FLASH_GET_LATENCY())
 80011f0:	4b27      	ldr	r3, [pc, #156]	; (8001290 <HAL_RCC_ClockConfig+0x1c0>)
 80011f2:	681b      	ldr	r3, [r3, #0]
 80011f4:	f003 0307 	and.w	r3, r3, #7
 80011f8:	683a      	ldr	r2, [r7, #0]
 80011fa:	429a      	cmp	r2, r3
 80011fc:	d210      	bcs.n	8001220 <HAL_RCC_ClockConfig+0x150>
  {
    /* Program the new number of wait states to the LATENCY bits in the FLASH_ACR register */
    __HAL_FLASH_SET_LATENCY(FLatency);
 80011fe:	4b24      	ldr	r3, [pc, #144]	; (8001290 <HAL_RCC_ClockConfig+0x1c0>)
 8001200:	681b      	ldr	r3, [r3, #0]
 8001202:	f023 0207 	bic.w	r2, r3, #7
 8001206:	4922      	ldr	r1, [pc, #136]	; (8001290 <HAL_RCC_ClockConfig+0x1c0>)
 8001208:	683b      	ldr	r3, [r7, #0]
 800120a:	4313      	orrs	r3, r2
 800120c:	600b      	str	r3, [r1, #0]

    /* Check that the new number of wait states is taken into account to access the Flash
    memory by reading the FLASH_ACR register */
    if (__HAL_FLASH_GET_LATENCY() != FLatency)
 800120e:	4b20      	ldr	r3, [pc, #128]	; (8001290 <HAL_RCC_ClockConfig+0x1c0>)
 8001210:	681b      	ldr	r3, [r3, #0]
 8001212:	f003 0307 	and.w	r3, r3, #7
 8001216:	683a      	ldr	r2, [r7, #0]
 8001218:	429a      	cmp	r2, r3
 800121a:	d001      	beq.n	8001220 <HAL_RCC_ClockConfig+0x150>
  {
    return HAL_ERROR;
 800121c:	2301      	movs	r3, #1
 800121e:	e032      	b.n	8001286 <HAL_RCC_ClockConfig+0x1b6>
  }
}
#endif /* FLASH_ACR_LATENCY */

/*-------------------------- PCLK1 Configuration ---------------------------*/
if (((RCC_ClkInitStruct->ClockType) & RCC_CLOCKTYPE_PCLK1) == RCC_CLOCKTYPE_PCLK1)
 8001220:	687b      	ldr	r3, [r7, #4]
 8001222:	681b      	ldr	r3, [r3, #0]
 8001224:	f003 0304 	and.w	r3, r3, #4
 8001228:	2b00      	cmp	r3, #0
 800122a:	d008      	beq.n	800123e <HAL_RCC_ClockConfig+0x16e>
  {
    assert_param(IS_RCC_PCLK(RCC_ClkInitStruct->APB1CLKDivider));
    MODIFY_REG(RCC->CFGR, RCC_CFGR_PPRE1, RCC_ClkInitStruct->APB1CLKDivider);
 800122c:	4b19      	ldr	r3, [pc, #100]	; (8001294 <HAL_RCC_ClockConfig+0x1c4>)
 800122e:	685b      	ldr	r3, [r3, #4]
 8001230:	f423 62e0 	bic.w	r2, r3, #1792	; 0x700
 8001234:	687b      	ldr	r3, [r7, #4]
 8001236:	68db      	ldr	r3, [r3, #12]
 8001238:	4916      	ldr	r1, [pc, #88]	; (8001294 <HAL_RCC_ClockConfig+0x1c4>)
 800123a:	4313      	orrs	r3, r2
 800123c:	604b      	str	r3, [r1, #4]
  }

  /*-------------------------- PCLK2 Configuration ---------------------------*/
  if (((RCC_ClkInitStruct->ClockType) & RCC_CLOCKTYPE_PCLK2) == RCC_CLOCKTYPE_PCLK2)
 800123e:	687b      	ldr	r3, [r7, #4]
 8001240:	681b      	ldr	r3, [r3, #0]
 8001242:	f003 0308 	and.w	r3, r3, #8
 8001246:	2b00      	cmp	r3, #0
 8001248:	d009      	beq.n	800125e <HAL_RCC_ClockConfig+0x18e>
  {
    assert_param(IS_RCC_PCLK(RCC_ClkInitStruct->APB2CLKDivider));
    MODIFY_REG(RCC->CFGR, RCC_CFGR_PPRE2, ((RCC_ClkInitStruct->APB2CLKDivider) << 3));
 800124a:	4b12      	ldr	r3, [pc, #72]	; (8001294 <HAL_RCC_ClockConfig+0x1c4>)
 800124c:	685b      	ldr	r3, [r3, #4]
 800124e:	f423 5260 	bic.w	r2, r3, #14336	; 0x3800
 8001252:	687b      	ldr	r3, [r7, #4]
 8001254:	691b      	ldr	r3, [r3, #16]
 8001256:	00db      	lsls	r3, r3, #3
 8001258:	490e      	ldr	r1, [pc, #56]	; (8001294 <HAL_RCC_ClockConfig+0x1c4>)
 800125a:	4313      	orrs	r3, r2
 800125c:	604b      	str	r3, [r1, #4]
  }

  /* Update the SystemCoreClock global variable */
  SystemCoreClock = HAL_RCC_GetSysClockFreq() >> AHBPrescTable[(RCC->CFGR & RCC_CFGR_HPRE) >> RCC_CFGR_HPRE_Pos];
 800125e:	f000 f821 	bl	80012a4 <HAL_RCC_GetSysClockFreq>
 8001262:	4601      	mov	r1, r0
 8001264:	4b0b      	ldr	r3, [pc, #44]	; (8001294 <HAL_RCC_ClockConfig+0x1c4>)
 8001266:	685b      	ldr	r3, [r3, #4]
 8001268:	091b      	lsrs	r3, r3, #4
 800126a:	f003 030f 	and.w	r3, r3, #15
 800126e:	4a0a      	ldr	r2, [pc, #40]	; (8001298 <HAL_RCC_ClockConfig+0x1c8>)
 8001270:	5cd3      	ldrb	r3, [r2, r3]
 8001272:	fa21 f303 	lsr.w	r3, r1, r3
 8001276:	4a09      	ldr	r2, [pc, #36]	; (800129c <HAL_RCC_ClockConfig+0x1cc>)
 8001278:	6013      	str	r3, [r2, #0]

  /* Configure the source of time base considering new system clocks settings*/
  HAL_InitTick(uwTickPrio);
 800127a:	4b09      	ldr	r3, [pc, #36]	; (80012a0 <HAL_RCC_ClockConfig+0x1d0>)
 800127c:	681b      	ldr	r3, [r3, #0]
 800127e:	4618      	mov	r0, r3
 8001280:	f7ff f9b2 	bl	80005e8 <HAL_InitTick>

  return HAL_OK;
 8001284:	2300      	movs	r3, #0
}
 8001286:	4618      	mov	r0, r3
 8001288:	3710      	adds	r7, #16
 800128a:	46bd      	mov	sp, r7
 800128c:	bd80      	pop	{r7, pc}
 800128e:	bf00      	nop
 8001290:	40022000 	.word	0x40022000
 8001294:	40021000 	.word	0x40021000
 8001298:	080019fc 	.word	0x080019fc
 800129c:	20000000 	.word	0x20000000
 80012a0:	20000004 	.word	0x20000004

080012a4 <HAL_RCC_GetSysClockFreq>:
  *         right SYSCLK value. Otherwise, any configuration based on this function will be incorrect.
  *
  * @retval SYSCLK frequency
  */
uint32_t HAL_RCC_GetSysClockFreq(void)
{
 80012a4:	b490      	push	{r4, r7}
 80012a6:	b08a      	sub	sp, #40	; 0x28
 80012a8:	af00      	add	r7, sp, #0
#if defined(RCC_CFGR2_PREDIV1SRC)
  const uint8_t aPLLMULFactorTable[14] = {0, 0, 4, 5, 6, 7, 8, 9, 0, 0, 0, 0, 0, 13};
  const uint8_t aPredivFactorTable[16] = {1, 2, 3, 4, 5, 6, 7, 8, 9, 10, 11, 12, 13, 14, 15, 16};
#else
  const uint8_t aPLLMULFactorTable[16] = {2, 3, 4, 5, 6, 7, 8, 9, 10, 11, 12, 13, 14, 15, 16, 16};
 80012aa:	4b2a      	ldr	r3, [pc, #168]	; (8001354 <HAL_RCC_GetSysClockFreq+0xb0>)
 80012ac:	1d3c      	adds	r4, r7, #4
 80012ae:	cb0f      	ldmia	r3, {r0, r1, r2, r3}
 80012b0:	e884 000f 	stmia.w	r4, {r0, r1, r2, r3}
#if defined(RCC_CFGR2_PREDIV1)
  const uint8_t aPredivFactorTable[16] = {1, 2, 3, 4, 5, 6, 7, 8, 9, 10, 11, 12, 13, 14, 15, 16};
#else
  const uint8_t aPredivFactorTable[2] = {1, 2};
 80012b4:	4b28      	ldr	r3, [pc, #160]	; (8001358 <HAL_RCC_GetSysClockFreq+0xb4>)
 80012b6:	881b      	ldrh	r3, [r3, #0]
 80012b8:	803b      	strh	r3, [r7, #0]
#endif /*RCC_CFGR2_PREDIV1*/

#endif
  uint32_t tmpreg = 0U, prediv = 0U, pllclk = 0U, pllmul = 0U;
 80012ba:	2300      	movs	r3, #0
 80012bc:	61fb      	str	r3, [r7, #28]
 80012be:	2300      	movs	r3, #0
 80012c0:	61bb      	str	r3, [r7, #24]
 80012c2:	2300      	movs	r3, #0
 80012c4:	627b      	str	r3, [r7, #36]	; 0x24
 80012c6:	2300      	movs	r3, #0
 80012c8:	617b      	str	r3, [r7, #20]
  uint32_t sysclockfreq = 0U;
 80012ca:	2300      	movs	r3, #0
 80012cc:	623b      	str	r3, [r7, #32]
#if defined(RCC_CFGR2_PREDIV1SRC)
  uint32_t prediv2 = 0U, pll2mul = 0U;
#endif /*RCC_CFGR2_PREDIV1SRC*/

  tmpreg = RCC->CFGR;
 80012ce:	4b23      	ldr	r3, [pc, #140]	; (800135c <HAL_RCC_GetSysClockFreq+0xb8>)
 80012d0:	685b      	ldr	r3, [r3, #4]
 80012d2:	61fb      	str	r3, [r7, #28]

  /* Get SYSCLK source -------------------------------------------------------*/
  switch (tmpreg & RCC_CFGR_SWS)
 80012d4:	69fb      	ldr	r3, [r7, #28]
 80012d6:	f003 030c 	and.w	r3, r3, #12
 80012da:	2b04      	cmp	r3, #4
 80012dc:	d002      	beq.n	80012e4 <HAL_RCC_GetSysClockFreq+0x40>
 80012de:	2b08      	cmp	r3, #8
 80012e0:	d003      	beq.n	80012ea <HAL_RCC_GetSysClockFreq+0x46>
 80012e2:	e02d      	b.n	8001340 <HAL_RCC_GetSysClockFreq+0x9c>
  {
    case RCC_SYSCLKSOURCE_STATUS_HSE:  /* HSE used as system clock */
    {
      sysclockfreq = HSE_VALUE;
 80012e4:	4b1e      	ldr	r3, [pc, #120]	; (8001360 <HAL_RCC_GetSysClockFreq+0xbc>)
 80012e6:	623b      	str	r3, [r7, #32]
      break;
 80012e8:	e02d      	b.n	8001346 <HAL_RCC_GetSysClockFreq+0xa2>
    }
    case RCC_SYSCLKSOURCE_STATUS_PLLCLK:  /* PLL used as system clock */
    {
      pllmul = aPLLMULFactorTable[(uint32_t)(tmpreg & RCC_CFGR_PLLMULL) >> RCC_CFGR_PLLMULL_Pos];
 80012ea:	69fb      	ldr	r3, [r7, #28]
 80012ec:	0c9b      	lsrs	r3, r3, #18
 80012ee:	f003 030f 	and.w	r3, r3, #15
 80012f2:	f107 0228 	add.w	r2, r7, #40	; 0x28
 80012f6:	4413      	add	r3, r2
 80012f8:	f813 3c24 	ldrb.w	r3, [r3, #-36]
 80012fc:	617b      	str	r3, [r7, #20]
      if ((tmpreg & RCC_CFGR_PLLSRC) != RCC_PLLSOURCE_HSI_DIV2)
 80012fe:	69fb      	ldr	r3, [r7, #28]
 8001300:	f403 3380 	and.w	r3, r3, #65536	; 0x10000
 8001304:	2b00      	cmp	r3, #0
 8001306:	d013      	beq.n	8001330 <HAL_RCC_GetSysClockFreq+0x8c>
      {
#if defined(RCC_CFGR2_PREDIV1)
        prediv = aPredivFactorTable[(uint32_t)(RCC->CFGR2 & RCC_CFGR2_PREDIV1) >> RCC_CFGR2_PREDIV1_Pos];
#else
        prediv = aPredivFactorTable[(uint32_t)(RCC->CFGR & RCC_CFGR_PLLXTPRE) >> RCC_CFGR_PLLXTPRE_Pos];
 8001308:	4b14      	ldr	r3, [pc, #80]	; (800135c <HAL_RCC_GetSysClockFreq+0xb8>)
 800130a:	685b      	ldr	r3, [r3, #4]
 800130c:	0c5b      	lsrs	r3, r3, #17
 800130e:	f003 0301 	and.w	r3, r3, #1
 8001312:	f107 0228 	add.w	r2, r7, #40	; 0x28
 8001316:	4413      	add	r3, r2
 8001318:	f813 3c28 	ldrb.w	r3, [r3, #-40]
 800131c:	61bb      	str	r3, [r7, #24]
        {
          pllclk = pllclk / 2;
        }
#else
        /* HSE used as PLL clock source : PLLCLK = HSE/PREDIV1 * PLLMUL */
        pllclk = (uint32_t)((HSE_VALUE  * pllmul) / prediv);
 800131e:	697b      	ldr	r3, [r7, #20]
 8001320:	4a0f      	ldr	r2, [pc, #60]	; (8001360 <HAL_RCC_GetSysClockFreq+0xbc>)
 8001322:	fb02 f203 	mul.w	r2, r2, r3
 8001326:	69bb      	ldr	r3, [r7, #24]
 8001328:	fbb2 f3f3 	udiv	r3, r2, r3
 800132c:	627b      	str	r3, [r7, #36]	; 0x24
 800132e:	e004      	b.n	800133a <HAL_RCC_GetSysClockFreq+0x96>
#endif /*RCC_CFGR2_PREDIV1SRC*/
      }
      else
      {
        /* HSI used as PLL clock source : PLLCLK = HSI/2 * PLLMUL */
        pllclk = (uint32_t)((HSI_VALUE >> 1) * pllmul);
 8001330:	697b      	ldr	r3, [r7, #20]
 8001332:	4a0c      	ldr	r2, [pc, #48]	; (8001364 <HAL_RCC_GetSysClockFreq+0xc0>)
 8001334:	fb02 f303 	mul.w	r3, r2, r3
 8001338:	627b      	str	r3, [r7, #36]	; 0x24
      }
      sysclockfreq = pllclk;
 800133a:	6a7b      	ldr	r3, [r7, #36]	; 0x24
 800133c:	623b      	str	r3, [r7, #32]
      break;
 800133e:	e002      	b.n	8001346 <HAL_RCC_GetSysClockFreq+0xa2>
    }
    case RCC_SYSCLKSOURCE_STATUS_HSI:  /* HSI used as system clock source */
    default: /* HSI used as system clock */
    {
      sysclockfreq = HSI_VALUE;
 8001340:	4b07      	ldr	r3, [pc, #28]	; (8001360 <HAL_RCC_GetSysClockFreq+0xbc>)
 8001342:	623b      	str	r3, [r7, #32]
      break;
 8001344:	bf00      	nop
    }
  }
  return sysclockfreq;
 8001346:	6a3b      	ldr	r3, [r7, #32]
}
 8001348:	4618      	mov	r0, r3
 800134a:	3728      	adds	r7, #40	; 0x28
 800134c:	46bd      	mov	sp, r7
 800134e:	bc90      	pop	{r4, r7}
 8001350:	4770      	bx	lr
 8001352:	bf00      	nop
 8001354:	080019e8 	.word	0x080019e8
 8001358:	080019f8 	.word	0x080019f8
 800135c:	40021000 	.word	0x40021000
 8001360:	007a1200 	.word	0x007a1200
 8001364:	003d0900 	.word	0x003d0900

08001368 <HAL_RCC_GetHCLKFreq>:
  * @note   The SystemCoreClock CMSIS variable is used to store System Clock Frequency
  *         and updated within this function
  * @retval HCLK frequency
  */
uint32_t HAL_RCC_GetHCLKFreq(void)
{
 8001368:	b480      	push	{r7}
 800136a:	af00      	add	r7, sp, #0
  return SystemCoreClock;
 800136c:	4b02      	ldr	r3, [pc, #8]	; (8001378 <HAL_RCC_GetHCLKFreq+0x10>)
 800136e:	681b      	ldr	r3, [r3, #0]
}
 8001370:	4618      	mov	r0, r3
 8001372:	46bd      	mov	sp, r7
 8001374:	bc80      	pop	{r7}
 8001376:	4770      	bx	lr
 8001378:	20000000 	.word	0x20000000

0800137c <HAL_RCC_GetPCLK1Freq>:
  * @note   Each time PCLK1 changes, this function must be called to update the
  *         right PCLK1 value. Otherwise, any configuration based on this function will be incorrect.
  * @retval PCLK1 frequency
  */
uint32_t HAL_RCC_GetPCLK1Freq(void)
{
 800137c:	b580      	push	{r7, lr}
 800137e:	af00      	add	r7, sp, #0
  /* Get HCLK source and Compute PCLK1 frequency ---------------------------*/
  return (HAL_RCC_GetHCLKFreq() >> APBPrescTable[(RCC->CFGR & RCC_CFGR_PPRE1) >> RCC_CFGR_PPRE1_Pos]);
 8001380:	f7ff fff2 	bl	8001368 <HAL_RCC_GetHCLKFreq>
 8001384:	4601      	mov	r1, r0
 8001386:	4b05      	ldr	r3, [pc, #20]	; (800139c <HAL_RCC_GetPCLK1Freq+0x20>)
 8001388:	685b      	ldr	r3, [r3, #4]
 800138a:	0a1b      	lsrs	r3, r3, #8
 800138c:	f003 0307 	and.w	r3, r3, #7
 8001390:	4a03      	ldr	r2, [pc, #12]	; (80013a0 <HAL_RCC_GetPCLK1Freq+0x24>)
 8001392:	5cd3      	ldrb	r3, [r2, r3]
 8001394:	fa21 f303 	lsr.w	r3, r1, r3
}
 8001398:	4618      	mov	r0, r3
 800139a:	bd80      	pop	{r7, pc}
 800139c:	40021000 	.word	0x40021000
 80013a0:	08001a0c 	.word	0x08001a0c

080013a4 <HAL_RCC_GetPCLK2Freq>:
  * @note   Each time PCLK2 changes, this function must be called to update the
  *         right PCLK2 value. Otherwise, any configuration based on this function will be incorrect.
  * @retval PCLK2 frequency
  */
uint32_t HAL_RCC_GetPCLK2Freq(void)
{
 80013a4:	b580      	push	{r7, lr}
 80013a6:	af00      	add	r7, sp, #0
  /* Get HCLK source and Compute PCLK2 frequency ---------------------------*/
  return (HAL_RCC_GetHCLKFreq() >> APBPrescTable[(RCC->CFGR & RCC_CFGR_PPRE2) >> RCC_CFGR_PPRE2_Pos]);
 80013a8:	f7ff ffde 	bl	8001368 <HAL_RCC_GetHCLKFreq>
 80013ac:	4601      	mov	r1, r0
 80013ae:	4b05      	ldr	r3, [pc, #20]	; (80013c4 <HAL_RCC_GetPCLK2Freq+0x20>)
 80013b0:	685b      	ldr	r3, [r3, #4]
 80013b2:	0adb      	lsrs	r3, r3, #11
 80013b4:	f003 0307 	and.w	r3, r3, #7
 80013b8:	4a03      	ldr	r2, [pc, #12]	; (80013c8 <HAL_RCC_GetPCLK2Freq+0x24>)
 80013ba:	5cd3      	ldrb	r3, [r2, r3]
 80013bc:	fa21 f303 	lsr.w	r3, r1, r3
}
 80013c0:	4618      	mov	r0, r3
 80013c2:	bd80      	pop	{r7, pc}
 80013c4:	40021000 	.word	0x40021000
 80013c8:	08001a0c 	.word	0x08001a0c

080013cc <RCC_Delay>:
  * @brief  This function provides delay (in milliseconds) based on CPU cycles method.
  * @param  mdelay: specifies the delay time length, in milliseconds.
  * @retval None
  */
static void RCC_Delay(uint32_t mdelay)
{
 80013cc:	b480      	push	{r7}
 80013ce:	b085      	sub	sp, #20
 80013d0:	af00      	add	r7, sp, #0
 80013d2:	6078      	str	r0, [r7, #4]
  __IO uint32_t Delay = mdelay * (SystemCoreClock / 8U / 1000U);
 80013d4:	4b0a      	ldr	r3, [pc, #40]	; (8001400 <RCC_Delay+0x34>)
 80013d6:	681b      	ldr	r3, [r3, #0]
 80013d8:	4a0a      	ldr	r2, [pc, #40]	; (8001404 <RCC_Delay+0x38>)
 80013da:	fba2 2303 	umull	r2, r3, r2, r3
 80013de:	0a5b      	lsrs	r3, r3, #9
 80013e0:	687a      	ldr	r2, [r7, #4]
 80013e2:	fb02 f303 	mul.w	r3, r2, r3
 80013e6:	60fb      	str	r3, [r7, #12]
  do
  {
    __NOP();
 80013e8:	bf00      	nop
  }
  while (Delay --);
 80013ea:	68fb      	ldr	r3, [r7, #12]
 80013ec:	1e5a      	subs	r2, r3, #1
 80013ee:	60fa      	str	r2, [r7, #12]
 80013f0:	2b00      	cmp	r3, #0
 80013f2:	d1f9      	bne.n	80013e8 <RCC_Delay+0x1c>
}
 80013f4:	bf00      	nop
 80013f6:	3714      	adds	r7, #20
 80013f8:	46bd      	mov	sp, r7
 80013fa:	bc80      	pop	{r7}
 80013fc:	4770      	bx	lr
 80013fe:	bf00      	nop
 8001400:	20000000 	.word	0x20000000
 8001404:	10624dd3 	.word	0x10624dd3

08001408 <HAL_UART_Init>:
  * @param  huart  Pointer to a UART_HandleTypeDef structure that contains
  *                the configuration information for the specified UART module.
  * @retval HAL status
  */
HAL_StatusTypeDef HAL_UART_Init(UART_HandleTypeDef *huart)
{
 8001408:	b580      	push	{r7, lr}
 800140a:	b082      	sub	sp, #8
 800140c:	af00      	add	r7, sp, #0
 800140e:	6078      	str	r0, [r7, #4]
  /* Check the UART handle allocation */
  if (huart == NULL)
 8001410:	687b      	ldr	r3, [r7, #4]
 8001412:	2b00      	cmp	r3, #0
 8001414:	d101      	bne.n	800141a <HAL_UART_Init+0x12>
  {
    return HAL_ERROR;
 8001416:	2301      	movs	r3, #1
 8001418:	e03f      	b.n	800149a <HAL_UART_Init+0x92>
  assert_param(IS_UART_WORD_LENGTH(huart->Init.WordLength));
#if defined(USART_CR1_OVER8)
  assert_param(IS_UART_OVERSAMPLING(huart->Init.OverSampling));
#endif /* USART_CR1_OVER8 */

  if (huart->gState == HAL_UART_STATE_RESET)
 800141a:	687b      	ldr	r3, [r7, #4]
 800141c:	f893 3039 	ldrb.w	r3, [r3, #57]	; 0x39
 8001420:	b2db      	uxtb	r3, r3
 8001422:	2b00      	cmp	r3, #0
 8001424:	d106      	bne.n	8001434 <HAL_UART_Init+0x2c>
  {
    /* Allocate lock resource and initialize it */
    huart->Lock = HAL_UNLOCKED;
 8001426:	687b      	ldr	r3, [r7, #4]
 8001428:	2200      	movs	r2, #0
 800142a:	f883 2038 	strb.w	r2, [r3, #56]	; 0x38

    /* Init the low level hardware */
    huart->MspInitCallback(huart);
#else
    /* Init the low level hardware : GPIO, CLOCK */
    HAL_UART_MspInit(huart);
 800142e:	6878      	ldr	r0, [r7, #4]
 8001430:	f7fe fff4 	bl	800041c <HAL_UART_MspInit>
#endif /* (USE_HAL_UART_REGISTER_CALLBACKS) */
  }

  huart->gState = HAL_UART_STATE_BUSY;
 8001434:	687b      	ldr	r3, [r7, #4]
 8001436:	2224      	movs	r2, #36	; 0x24
 8001438:	f883 2039 	strb.w	r2, [r3, #57]	; 0x39

  /* Disable the peripheral */
  __HAL_UART_DISABLE(huart);
 800143c:	687b      	ldr	r3, [r7, #4]
 800143e:	681b      	ldr	r3, [r3, #0]
 8001440:	68da      	ldr	r2, [r3, #12]
 8001442:	687b      	ldr	r3, [r7, #4]
 8001444:	681b      	ldr	r3, [r3, #0]
 8001446:	f422 5200 	bic.w	r2, r2, #8192	; 0x2000
 800144a:	60da      	str	r2, [r3, #12]

  /* Set the UART Communication parameters */
  UART_SetConfig(huart);
 800144c:	6878      	ldr	r0, [r7, #4]
 800144e:	f000 f9b1 	bl	80017b4 <UART_SetConfig>

  /* In asynchronous mode, the following bits must be kept cleared:
     - LINEN and CLKEN bits in the USART_CR2 register,
     - SCEN, HDSEL and IREN  bits in the USART_CR3 register.*/
  CLEAR_BIT(huart->Instance->CR2, (USART_CR2_LINEN | USART_CR2_CLKEN));
 8001452:	687b      	ldr	r3, [r7, #4]
 8001454:	681b      	ldr	r3, [r3, #0]
 8001456:	691a      	ldr	r2, [r3, #16]
 8001458:	687b      	ldr	r3, [r7, #4]
 800145a:	681b      	ldr	r3, [r3, #0]
 800145c:	f422 4290 	bic.w	r2, r2, #18432	; 0x4800
 8001460:	611a      	str	r2, [r3, #16]
  CLEAR_BIT(huart->Instance->CR3, (USART_CR3_SCEN | USART_CR3_HDSEL | USART_CR3_IREN));
 8001462:	687b      	ldr	r3, [r7, #4]
 8001464:	681b      	ldr	r3, [r3, #0]
 8001466:	695a      	ldr	r2, [r3, #20]
 8001468:	687b      	ldr	r3, [r7, #4]
 800146a:	681b      	ldr	r3, [r3, #0]
 800146c:	f022 022a 	bic.w	r2, r2, #42	; 0x2a
 8001470:	615a      	str	r2, [r3, #20]

  /* Enable the peripheral */
  __HAL_UART_ENABLE(huart);
 8001472:	687b      	ldr	r3, [r7, #4]
 8001474:	681b      	ldr	r3, [r3, #0]
 8001476:	68da      	ldr	r2, [r3, #12]
 8001478:	687b      	ldr	r3, [r7, #4]
 800147a:	681b      	ldr	r3, [r3, #0]
 800147c:	f442 5200 	orr.w	r2, r2, #8192	; 0x2000
 8001480:	60da      	str	r2, [r3, #12]

  /* Initialize the UART state */
  huart->ErrorCode = HAL_UART_ERROR_NONE;
 8001482:	687b      	ldr	r3, [r7, #4]
 8001484:	2200      	movs	r2, #0
 8001486:	63da      	str	r2, [r3, #60]	; 0x3c
  huart->gState = HAL_UART_STATE_READY;
 8001488:	687b      	ldr	r3, [r7, #4]
 800148a:	2220      	movs	r2, #32
 800148c:	f883 2039 	strb.w	r2, [r3, #57]	; 0x39
  huart->RxState = HAL_UART_STATE_READY;
 8001490:	687b      	ldr	r3, [r7, #4]
 8001492:	2220      	movs	r2, #32
 8001494:	f883 203a 	strb.w	r2, [r3, #58]	; 0x3a

  return HAL_OK;
 8001498:	2300      	movs	r3, #0
}
 800149a:	4618      	mov	r0, r3
 800149c:	3708      	adds	r7, #8
 800149e:	46bd      	mov	sp, r7
 80014a0:	bd80      	pop	{r7, pc}

080014a2 <HAL_UART_Transmit>:
  * @param  Size  Amount of data elements (u8 or u16) to be sent
  * @param  Timeout Timeout duration
  * @retval HAL status
  */
HAL_StatusTypeDef HAL_UART_Transmit(UART_HandleTypeDef *huart, uint8_t *pData, uint16_t Size, uint32_t Timeout)
{
 80014a2:	b580      	push	{r7, lr}
 80014a4:	b088      	sub	sp, #32
 80014a6:	af02      	add	r7, sp, #8
 80014a8:	60f8      	str	r0, [r7, #12]
 80014aa:	60b9      	str	r1, [r7, #8]
 80014ac:	603b      	str	r3, [r7, #0]
 80014ae:	4613      	mov	r3, r2
 80014b0:	80fb      	strh	r3, [r7, #6]
  uint16_t *tmp;
  uint32_t tickstart = 0U;
 80014b2:	2300      	movs	r3, #0
 80014b4:	617b      	str	r3, [r7, #20]

  /* Check that a Tx process is not already ongoing */
  if (huart->gState == HAL_UART_STATE_READY)
 80014b6:	68fb      	ldr	r3, [r7, #12]
 80014b8:	f893 3039 	ldrb.w	r3, [r3, #57]	; 0x39
 80014bc:	b2db      	uxtb	r3, r3
 80014be:	2b20      	cmp	r3, #32
 80014c0:	f040 8083 	bne.w	80015ca <HAL_UART_Transmit+0x128>
  {
    if ((pData == NULL) || (Size == 0U))
 80014c4:	68bb      	ldr	r3, [r7, #8]
 80014c6:	2b00      	cmp	r3, #0
 80014c8:	d002      	beq.n	80014d0 <HAL_UART_Transmit+0x2e>
 80014ca:	88fb      	ldrh	r3, [r7, #6]
 80014cc:	2b00      	cmp	r3, #0
 80014ce:	d101      	bne.n	80014d4 <HAL_UART_Transmit+0x32>
    {
      return  HAL_ERROR;
 80014d0:	2301      	movs	r3, #1
 80014d2:	e07b      	b.n	80015cc <HAL_UART_Transmit+0x12a>
    }

    /* Process Locked */
    __HAL_LOCK(huart);
 80014d4:	68fb      	ldr	r3, [r7, #12]
 80014d6:	f893 3038 	ldrb.w	r3, [r3, #56]	; 0x38
 80014da:	2b01      	cmp	r3, #1
 80014dc:	d101      	bne.n	80014e2 <HAL_UART_Transmit+0x40>
 80014de:	2302      	movs	r3, #2
 80014e0:	e074      	b.n	80015cc <HAL_UART_Transmit+0x12a>
 80014e2:	68fb      	ldr	r3, [r7, #12]
 80014e4:	2201      	movs	r2, #1
 80014e6:	f883 2038 	strb.w	r2, [r3, #56]	; 0x38

    huart->ErrorCode = HAL_UART_ERROR_NONE;
 80014ea:	68fb      	ldr	r3, [r7, #12]
 80014ec:	2200      	movs	r2, #0
 80014ee:	63da      	str	r2, [r3, #60]	; 0x3c
    huart->gState = HAL_UART_STATE_BUSY_TX;
 80014f0:	68fb      	ldr	r3, [r7, #12]
 80014f2:	2221      	movs	r2, #33	; 0x21
 80014f4:	f883 2039 	strb.w	r2, [r3, #57]	; 0x39

    /* Init tickstart for timeout managment */
    tickstart = HAL_GetTick();
 80014f8:	f7ff f8b8 	bl	800066c <HAL_GetTick>
 80014fc:	6178      	str	r0, [r7, #20]

    huart->TxXferSize = Size;
 80014fe:	68fb      	ldr	r3, [r7, #12]
 8001500:	88fa      	ldrh	r2, [r7, #6]
 8001502:	849a      	strh	r2, [r3, #36]	; 0x24
    huart->TxXferCount = Size;
 8001504:	68fb      	ldr	r3, [r7, #12]
 8001506:	88fa      	ldrh	r2, [r7, #6]
 8001508:	84da      	strh	r2, [r3, #38]	; 0x26
    while (huart->TxXferCount > 0U)
 800150a:	e042      	b.n	8001592 <HAL_UART_Transmit+0xf0>
    {
      huart->TxXferCount--;
 800150c:	68fb      	ldr	r3, [r7, #12]
 800150e:	8cdb      	ldrh	r3, [r3, #38]	; 0x26
 8001510:	b29b      	uxth	r3, r3
 8001512:	3b01      	subs	r3, #1
 8001514:	b29a      	uxth	r2, r3
 8001516:	68fb      	ldr	r3, [r7, #12]
 8001518:	84da      	strh	r2, [r3, #38]	; 0x26
      if (huart->Init.WordLength == UART_WORDLENGTH_9B)
 800151a:	68fb      	ldr	r3, [r7, #12]
 800151c:	689b      	ldr	r3, [r3, #8]
 800151e:	f5b3 5f80 	cmp.w	r3, #4096	; 0x1000
 8001522:	d122      	bne.n	800156a <HAL_UART_Transmit+0xc8>
      {
        if (UART_WaitOnFlagUntilTimeout(huart, UART_FLAG_TXE, RESET, tickstart, Timeout) != HAL_OK)
 8001524:	683b      	ldr	r3, [r7, #0]
 8001526:	9300      	str	r3, [sp, #0]
 8001528:	697b      	ldr	r3, [r7, #20]
 800152a:	2200      	movs	r2, #0
 800152c:	2180      	movs	r1, #128	; 0x80
 800152e:	68f8      	ldr	r0, [r7, #12]
 8001530:	f000 f8f6 	bl	8001720 <UART_WaitOnFlagUntilTimeout>
 8001534:	4603      	mov	r3, r0
 8001536:	2b00      	cmp	r3, #0
 8001538:	d001      	beq.n	800153e <HAL_UART_Transmit+0x9c>
        {
          return HAL_TIMEOUT;
 800153a:	2303      	movs	r3, #3
 800153c:	e046      	b.n	80015cc <HAL_UART_Transmit+0x12a>
        }
        tmp = (uint16_t *) pData;
 800153e:	68bb      	ldr	r3, [r7, #8]
 8001540:	613b      	str	r3, [r7, #16]
        huart->Instance->DR = (*tmp & (uint16_t)0x01FF);
 8001542:	693b      	ldr	r3, [r7, #16]
 8001544:	881b      	ldrh	r3, [r3, #0]
 8001546:	461a      	mov	r2, r3
 8001548:	68fb      	ldr	r3, [r7, #12]
 800154a:	681b      	ldr	r3, [r3, #0]
 800154c:	f3c2 0208 	ubfx	r2, r2, #0, #9
 8001550:	605a      	str	r2, [r3, #4]
        if (huart->Init.Parity == UART_PARITY_NONE)
 8001552:	68fb      	ldr	r3, [r7, #12]
 8001554:	691b      	ldr	r3, [r3, #16]
 8001556:	2b00      	cmp	r3, #0
 8001558:	d103      	bne.n	8001562 <HAL_UART_Transmit+0xc0>
        {
          pData += 2U;
 800155a:	68bb      	ldr	r3, [r7, #8]
 800155c:	3302      	adds	r3, #2
 800155e:	60bb      	str	r3, [r7, #8]
 8001560:	e017      	b.n	8001592 <HAL_UART_Transmit+0xf0>
        }
        else
        {
          pData += 1U;
 8001562:	68bb      	ldr	r3, [r7, #8]
 8001564:	3301      	adds	r3, #1
 8001566:	60bb      	str	r3, [r7, #8]
 8001568:	e013      	b.n	8001592 <HAL_UART_Transmit+0xf0>
        }
      }
      else
      {
        if (UART_WaitOnFlagUntilTimeout(huart, UART_FLAG_TXE, RESET, tickstart, Timeout) != HAL_OK)
 800156a:	683b      	ldr	r3, [r7, #0]
 800156c:	9300      	str	r3, [sp, #0]
 800156e:	697b      	ldr	r3, [r7, #20]
 8001570:	2200      	movs	r2, #0
 8001572:	2180      	movs	r1, #128	; 0x80
 8001574:	68f8      	ldr	r0, [r7, #12]
 8001576:	f000 f8d3 	bl	8001720 <UART_WaitOnFlagUntilTimeout>
 800157a:	4603      	mov	r3, r0
 800157c:	2b00      	cmp	r3, #0
 800157e:	d001      	beq.n	8001584 <HAL_UART_Transmit+0xe2>
        {
          return HAL_TIMEOUT;
 8001580:	2303      	movs	r3, #3
 8001582:	e023      	b.n	80015cc <HAL_UART_Transmit+0x12a>
        }
        huart->Instance->DR = (*pData++ & (uint8_t)0xFF);
 8001584:	68bb      	ldr	r3, [r7, #8]
 8001586:	1c5a      	adds	r2, r3, #1
 8001588:	60ba      	str	r2, [r7, #8]
 800158a:	781a      	ldrb	r2, [r3, #0]
 800158c:	68fb      	ldr	r3, [r7, #12]
 800158e:	681b      	ldr	r3, [r3, #0]
 8001590:	605a      	str	r2, [r3, #4]
    while (huart->TxXferCount > 0U)
 8001592:	68fb      	ldr	r3, [r7, #12]
 8001594:	8cdb      	ldrh	r3, [r3, #38]	; 0x26
 8001596:	b29b      	uxth	r3, r3
 8001598:	2b00      	cmp	r3, #0
 800159a:	d1b7      	bne.n	800150c <HAL_UART_Transmit+0x6a>
      }
    }

    if (UART_WaitOnFlagUntilTimeout(huart, UART_FLAG_TC, RESET, tickstart, Timeout) != HAL_OK)
 800159c:	683b      	ldr	r3, [r7, #0]
 800159e:	9300      	str	r3, [sp, #0]
 80015a0:	697b      	ldr	r3, [r7, #20]
 80015a2:	2200      	movs	r2, #0
 80015a4:	2140      	movs	r1, #64	; 0x40
 80015a6:	68f8      	ldr	r0, [r7, #12]
 80015a8:	f000 f8ba 	bl	8001720 <UART_WaitOnFlagUntilTimeout>
 80015ac:	4603      	mov	r3, r0
 80015ae:	2b00      	cmp	r3, #0
 80015b0:	d001      	beq.n	80015b6 <HAL_UART_Transmit+0x114>
    {
      return HAL_TIMEOUT;
 80015b2:	2303      	movs	r3, #3
 80015b4:	e00a      	b.n	80015cc <HAL_UART_Transmit+0x12a>
    }

    /* At end of Tx process, restore huart->gState to Ready */
    huart->gState = HAL_UART_STATE_READY;
 80015b6:	68fb      	ldr	r3, [r7, #12]
 80015b8:	2220      	movs	r2, #32
 80015ba:	f883 2039 	strb.w	r2, [r3, #57]	; 0x39

    /* Process Unlocked */
    __HAL_UNLOCK(huart);
 80015be:	68fb      	ldr	r3, [r7, #12]
 80015c0:	2200      	movs	r2, #0
 80015c2:	f883 2038 	strb.w	r2, [r3, #56]	; 0x38

    return HAL_OK;
 80015c6:	2300      	movs	r3, #0
 80015c8:	e000      	b.n	80015cc <HAL_UART_Transmit+0x12a>
  }
  else
  {
    return HAL_BUSY;
 80015ca:	2302      	movs	r3, #2
  }
}
 80015cc:	4618      	mov	r0, r3
 80015ce:	3718      	adds	r7, #24
 80015d0:	46bd      	mov	sp, r7
 80015d2:	bd80      	pop	{r7, pc}

080015d4 <HAL_UART_Receive>:
  * @param  Size  Amount of data elements (u8 or u16) to be received.
  * @param  Timeout Timeout duration
  * @retval HAL status
  */
HAL_StatusTypeDef HAL_UART_Receive(UART_HandleTypeDef *huart, uint8_t *pData, uint16_t Size, uint32_t Timeout)
{
 80015d4:	b580      	push	{r7, lr}
 80015d6:	b088      	sub	sp, #32
 80015d8:	af02      	add	r7, sp, #8
 80015da:	60f8      	str	r0, [r7, #12]
 80015dc:	60b9      	str	r1, [r7, #8]
 80015de:	603b      	str	r3, [r7, #0]
 80015e0:	4613      	mov	r3, r2
 80015e2:	80fb      	strh	r3, [r7, #6]
  uint16_t *tmp;
  uint32_t tickstart = 0U;
 80015e4:	2300      	movs	r3, #0
 80015e6:	617b      	str	r3, [r7, #20]

  /* Check that a Rx process is not already ongoing */
  if (huart->RxState == HAL_UART_STATE_READY)
 80015e8:	68fb      	ldr	r3, [r7, #12]
 80015ea:	f893 303a 	ldrb.w	r3, [r3, #58]	; 0x3a
 80015ee:	b2db      	uxtb	r3, r3
 80015f0:	2b20      	cmp	r3, #32
 80015f2:	f040 8090 	bne.w	8001716 <HAL_UART_Receive+0x142>
  {
    if ((pData == NULL) || (Size == 0U))
 80015f6:	68bb      	ldr	r3, [r7, #8]
 80015f8:	2b00      	cmp	r3, #0
 80015fa:	d002      	beq.n	8001602 <HAL_UART_Receive+0x2e>
 80015fc:	88fb      	ldrh	r3, [r7, #6]
 80015fe:	2b00      	cmp	r3, #0
 8001600:	d101      	bne.n	8001606 <HAL_UART_Receive+0x32>
    {
      return  HAL_ERROR;
 8001602:	2301      	movs	r3, #1
 8001604:	e088      	b.n	8001718 <HAL_UART_Receive+0x144>
    }

    /* Process Locked */
    __HAL_LOCK(huart);
 8001606:	68fb      	ldr	r3, [r7, #12]
 8001608:	f893 3038 	ldrb.w	r3, [r3, #56]	; 0x38
 800160c:	2b01      	cmp	r3, #1
 800160e:	d101      	bne.n	8001614 <HAL_UART_Receive+0x40>
 8001610:	2302      	movs	r3, #2
 8001612:	e081      	b.n	8001718 <HAL_UART_Receive+0x144>
 8001614:	68fb      	ldr	r3, [r7, #12]
 8001616:	2201      	movs	r2, #1
 8001618:	f883 2038 	strb.w	r2, [r3, #56]	; 0x38

    huart->ErrorCode = HAL_UART_ERROR_NONE;
 800161c:	68fb      	ldr	r3, [r7, #12]
 800161e:	2200      	movs	r2, #0
 8001620:	63da      	str	r2, [r3, #60]	; 0x3c
    huart->RxState = HAL_UART_STATE_BUSY_RX;
 8001622:	68fb      	ldr	r3, [r7, #12]
 8001624:	2222      	movs	r2, #34	; 0x22
 8001626:	f883 203a 	strb.w	r2, [r3, #58]	; 0x3a

    /* Init tickstart for timeout managment */
    tickstart = HAL_GetTick();
 800162a:	f7ff f81f 	bl	800066c <HAL_GetTick>
 800162e:	6178      	str	r0, [r7, #20]

    huart->RxXferSize = Size;
 8001630:	68fb      	ldr	r3, [r7, #12]
 8001632:	88fa      	ldrh	r2, [r7, #6]
 8001634:	859a      	strh	r2, [r3, #44]	; 0x2c
    huart->RxXferCount = Size;
 8001636:	68fb      	ldr	r3, [r7, #12]
 8001638:	88fa      	ldrh	r2, [r7, #6]
 800163a:	85da      	strh	r2, [r3, #46]	; 0x2e

    /* Check the remain data to be received */
    while (huart->RxXferCount > 0U)
 800163c:	e05c      	b.n	80016f8 <HAL_UART_Receive+0x124>
    {
      huart->RxXferCount--;
 800163e:	68fb      	ldr	r3, [r7, #12]
 8001640:	8ddb      	ldrh	r3, [r3, #46]	; 0x2e
 8001642:	b29b      	uxth	r3, r3
 8001644:	3b01      	subs	r3, #1
 8001646:	b29a      	uxth	r2, r3
 8001648:	68fb      	ldr	r3, [r7, #12]
 800164a:	85da      	strh	r2, [r3, #46]	; 0x2e
      if (huart->Init.WordLength == UART_WORDLENGTH_9B)
 800164c:	68fb      	ldr	r3, [r7, #12]
 800164e:	689b      	ldr	r3, [r3, #8]
 8001650:	f5b3 5f80 	cmp.w	r3, #4096	; 0x1000
 8001654:	d12b      	bne.n	80016ae <HAL_UART_Receive+0xda>
      {
        if (UART_WaitOnFlagUntilTimeout(huart, UART_FLAG_RXNE, RESET, tickstart, Timeout) != HAL_OK)
 8001656:	683b      	ldr	r3, [r7, #0]
 8001658:	9300      	str	r3, [sp, #0]
 800165a:	697b      	ldr	r3, [r7, #20]
 800165c:	2200      	movs	r2, #0
 800165e:	2120      	movs	r1, #32
 8001660:	68f8      	ldr	r0, [r7, #12]
 8001662:	f000 f85d 	bl	8001720 <UART_WaitOnFlagUntilTimeout>
 8001666:	4603      	mov	r3, r0
 8001668:	2b00      	cmp	r3, #0
 800166a:	d001      	beq.n	8001670 <HAL_UART_Receive+0x9c>
        {
          return HAL_TIMEOUT;
 800166c:	2303      	movs	r3, #3
 800166e:	e053      	b.n	8001718 <HAL_UART_Receive+0x144>
        }
        tmp = (uint16_t *) pData;
 8001670:	68bb      	ldr	r3, [r7, #8]
 8001672:	613b      	str	r3, [r7, #16]
        if (huart->Init.Parity == UART_PARITY_NONE)
 8001674:	68fb      	ldr	r3, [r7, #12]
 8001676:	691b      	ldr	r3, [r3, #16]
 8001678:	2b00      	cmp	r3, #0
 800167a:	d10c      	bne.n	8001696 <HAL_UART_Receive+0xc2>
        {
          *tmp = (uint16_t)(huart->Instance->DR & (uint16_t)0x01FF);
 800167c:	68fb      	ldr	r3, [r7, #12]
 800167e:	681b      	ldr	r3, [r3, #0]
 8001680:	685b      	ldr	r3, [r3, #4]
 8001682:	b29b      	uxth	r3, r3
 8001684:	f3c3 0308 	ubfx	r3, r3, #0, #9
 8001688:	b29a      	uxth	r2, r3
 800168a:	693b      	ldr	r3, [r7, #16]
 800168c:	801a      	strh	r2, [r3, #0]
          pData += 2U;
 800168e:	68bb      	ldr	r3, [r7, #8]
 8001690:	3302      	adds	r3, #2
 8001692:	60bb      	str	r3, [r7, #8]
 8001694:	e030      	b.n	80016f8 <HAL_UART_Receive+0x124>
        }
        else
        {
          *tmp = (uint16_t)(huart->Instance->DR & (uint16_t)0x00FF);
 8001696:	68fb      	ldr	r3, [r7, #12]
 8001698:	681b      	ldr	r3, [r3, #0]
 800169a:	685b      	ldr	r3, [r3, #4]
 800169c:	b29b      	uxth	r3, r3
 800169e:	b2db      	uxtb	r3, r3
 80016a0:	b29a      	uxth	r2, r3
 80016a2:	693b      	ldr	r3, [r7, #16]
 80016a4:	801a      	strh	r2, [r3, #0]
          pData += 1U;
 80016a6:	68bb      	ldr	r3, [r7, #8]
 80016a8:	3301      	adds	r3, #1
 80016aa:	60bb      	str	r3, [r7, #8]
 80016ac:	e024      	b.n	80016f8 <HAL_UART_Receive+0x124>
        }

      }
      else
      {
        if (UART_WaitOnFlagUntilTimeout(huart, UART_FLAG_RXNE, RESET, tickstart, Timeout) != HAL_OK)
 80016ae:	683b      	ldr	r3, [r7, #0]
 80016b0:	9300      	str	r3, [sp, #0]
 80016b2:	697b      	ldr	r3, [r7, #20]
 80016b4:	2200      	movs	r2, #0
 80016b6:	2120      	movs	r1, #32
 80016b8:	68f8      	ldr	r0, [r7, #12]
 80016ba:	f000 f831 	bl	8001720 <UART_WaitOnFlagUntilTimeout>
 80016be:	4603      	mov	r3, r0
 80016c0:	2b00      	cmp	r3, #0
 80016c2:	d001      	beq.n	80016c8 <HAL_UART_Receive+0xf4>
        {
          return HAL_TIMEOUT;
 80016c4:	2303      	movs	r3, #3
 80016c6:	e027      	b.n	8001718 <HAL_UART_Receive+0x144>
        }
        if (huart->Init.Parity == UART_PARITY_NONE)
 80016c8:	68fb      	ldr	r3, [r7, #12]
 80016ca:	691b      	ldr	r3, [r3, #16]
 80016cc:	2b00      	cmp	r3, #0
 80016ce:	d108      	bne.n	80016e2 <HAL_UART_Receive+0x10e>
        {
          *pData++ = (uint8_t)(huart->Instance->DR & (uint8_t)0x00FF);
 80016d0:	68fb      	ldr	r3, [r7, #12]
 80016d2:	681b      	ldr	r3, [r3, #0]
 80016d4:	6859      	ldr	r1, [r3, #4]
 80016d6:	68bb      	ldr	r3, [r7, #8]
 80016d8:	1c5a      	adds	r2, r3, #1
 80016da:	60ba      	str	r2, [r7, #8]
 80016dc:	b2ca      	uxtb	r2, r1
 80016de:	701a      	strb	r2, [r3, #0]
 80016e0:	e00a      	b.n	80016f8 <HAL_UART_Receive+0x124>
        }
        else
        {
          *pData++ = (uint8_t)(huart->Instance->DR & (uint8_t)0x007F);
 80016e2:	68fb      	ldr	r3, [r7, #12]
 80016e4:	681b      	ldr	r3, [r3, #0]
 80016e6:	685b      	ldr	r3, [r3, #4]
 80016e8:	b2da      	uxtb	r2, r3
 80016ea:	68bb      	ldr	r3, [r7, #8]
 80016ec:	1c59      	adds	r1, r3, #1
 80016ee:	60b9      	str	r1, [r7, #8]
 80016f0:	f002 027f 	and.w	r2, r2, #127	; 0x7f
 80016f4:	b2d2      	uxtb	r2, r2
 80016f6:	701a      	strb	r2, [r3, #0]
    while (huart->RxXferCount > 0U)
 80016f8:	68fb      	ldr	r3, [r7, #12]
 80016fa:	8ddb      	ldrh	r3, [r3, #46]	; 0x2e
 80016fc:	b29b      	uxth	r3, r3
 80016fe:	2b00      	cmp	r3, #0
 8001700:	d19d      	bne.n	800163e <HAL_UART_Receive+0x6a>

      }
    }

    /* At end of Rx process, restore huart->RxState to Ready */
    huart->RxState = HAL_UART_STATE_READY;
 8001702:	68fb      	ldr	r3, [r7, #12]
 8001704:	2220      	movs	r2, #32
 8001706:	f883 203a 	strb.w	r2, [r3, #58]	; 0x3a

    /* Process Unlocked */
    __HAL_UNLOCK(huart);
 800170a:	68fb      	ldr	r3, [r7, #12]
 800170c:	2200      	movs	r2, #0
 800170e:	f883 2038 	strb.w	r2, [r3, #56]	; 0x38

    return HAL_OK;
 8001712:	2300      	movs	r3, #0
 8001714:	e000      	b.n	8001718 <HAL_UART_Receive+0x144>
  }
  else
  {
    return HAL_BUSY;
 8001716:	2302      	movs	r3, #2
  }
}
 8001718:	4618      	mov	r0, r3
 800171a:	3718      	adds	r7, #24
 800171c:	46bd      	mov	sp, r7
 800171e:	bd80      	pop	{r7, pc}

08001720 <UART_WaitOnFlagUntilTimeout>:
  * @param  Tickstart Tick start value
  * @param  Timeout Timeout duration
  * @retval HAL status
  */
static HAL_StatusTypeDef UART_WaitOnFlagUntilTimeout(UART_HandleTypeDef *huart, uint32_t Flag, FlagStatus Status, uint32_t Tickstart, uint32_t Timeout)
{
 8001720:	b580      	push	{r7, lr}
 8001722:	b084      	sub	sp, #16
 8001724:	af00      	add	r7, sp, #0
 8001726:	60f8      	str	r0, [r7, #12]
 8001728:	60b9      	str	r1, [r7, #8]
 800172a:	603b      	str	r3, [r7, #0]
 800172c:	4613      	mov	r3, r2
 800172e:	71fb      	strb	r3, [r7, #7]
  /* Wait until flag is set */
  while ((__HAL_UART_GET_FLAG(huart, Flag) ? SET : RESET) == Status)
 8001730:	e02c      	b.n	800178c <UART_WaitOnFlagUntilTimeout+0x6c>
  {
    /* Check for the Timeout */
    if (Timeout != HAL_MAX_DELAY)
 8001732:	69bb      	ldr	r3, [r7, #24]
 8001734:	f1b3 3fff 	cmp.w	r3, #4294967295	; 0xffffffff
 8001738:	d028      	beq.n	800178c <UART_WaitOnFlagUntilTimeout+0x6c>
    {
      if ((Timeout == 0U) || ((HAL_GetTick() - Tickstart) > Timeout))
 800173a:	69bb      	ldr	r3, [r7, #24]
 800173c:	2b00      	cmp	r3, #0
 800173e:	d007      	beq.n	8001750 <UART_WaitOnFlagUntilTimeout+0x30>
 8001740:	f7fe ff94 	bl	800066c <HAL_GetTick>
 8001744:	4602      	mov	r2, r0
 8001746:	683b      	ldr	r3, [r7, #0]
 8001748:	1ad3      	subs	r3, r2, r3
 800174a:	69ba      	ldr	r2, [r7, #24]
 800174c:	429a      	cmp	r2, r3
 800174e:	d21d      	bcs.n	800178c <UART_WaitOnFlagUntilTimeout+0x6c>
      {
        /* Disable TXE, RXNE, PE and ERR (Frame error, noise error, overrun error) interrupts for the interrupt process */
        CLEAR_BIT(huart->Instance->CR1, (USART_CR1_RXNEIE | USART_CR1_PEIE | USART_CR1_TXEIE));
 8001750:	68fb      	ldr	r3, [r7, #12]
 8001752:	681b      	ldr	r3, [r3, #0]
 8001754:	68da      	ldr	r2, [r3, #12]
 8001756:	68fb      	ldr	r3, [r7, #12]
 8001758:	681b      	ldr	r3, [r3, #0]
 800175a:	f422 72d0 	bic.w	r2, r2, #416	; 0x1a0
 800175e:	60da      	str	r2, [r3, #12]
        CLEAR_BIT(huart->Instance->CR3, USART_CR3_EIE);
 8001760:	68fb      	ldr	r3, [r7, #12]
 8001762:	681b      	ldr	r3, [r3, #0]
 8001764:	695a      	ldr	r2, [r3, #20]
 8001766:	68fb      	ldr	r3, [r7, #12]
 8001768:	681b      	ldr	r3, [r3, #0]
 800176a:	f022 0201 	bic.w	r2, r2, #1
 800176e:	615a      	str	r2, [r3, #20]

        huart->gState  = HAL_UART_STATE_READY;
 8001770:	68fb      	ldr	r3, [r7, #12]
 8001772:	2220      	movs	r2, #32
 8001774:	f883 2039 	strb.w	r2, [r3, #57]	; 0x39
        huart->RxState = HAL_UART_STATE_READY;
 8001778:	68fb      	ldr	r3, [r7, #12]
 800177a:	2220      	movs	r2, #32
 800177c:	f883 203a 	strb.w	r2, [r3, #58]	; 0x3a

        /* Process Unlocked */
        __HAL_UNLOCK(huart);
 8001780:	68fb      	ldr	r3, [r7, #12]
 8001782:	2200      	movs	r2, #0
 8001784:	f883 2038 	strb.w	r2, [r3, #56]	; 0x38

        return HAL_TIMEOUT;
 8001788:	2303      	movs	r3, #3
 800178a:	e00f      	b.n	80017ac <UART_WaitOnFlagUntilTimeout+0x8c>
  while ((__HAL_UART_GET_FLAG(huart, Flag) ? SET : RESET) == Status)
 800178c:	68fb      	ldr	r3, [r7, #12]
 800178e:	681b      	ldr	r3, [r3, #0]
 8001790:	681a      	ldr	r2, [r3, #0]
 8001792:	68bb      	ldr	r3, [r7, #8]
 8001794:	4013      	ands	r3, r2
 8001796:	68ba      	ldr	r2, [r7, #8]
 8001798:	429a      	cmp	r2, r3
 800179a:	bf0c      	ite	eq
 800179c:	2301      	moveq	r3, #1
 800179e:	2300      	movne	r3, #0
 80017a0:	b2db      	uxtb	r3, r3
 80017a2:	461a      	mov	r2, r3
 80017a4:	79fb      	ldrb	r3, [r7, #7]
 80017a6:	429a      	cmp	r2, r3
 80017a8:	d0c3      	beq.n	8001732 <UART_WaitOnFlagUntilTimeout+0x12>
      }
    }
  }
  return HAL_OK;
 80017aa:	2300      	movs	r3, #0
}
 80017ac:	4618      	mov	r0, r3
 80017ae:	3710      	adds	r7, #16
 80017b0:	46bd      	mov	sp, r7
 80017b2:	bd80      	pop	{r7, pc}

080017b4 <UART_SetConfig>:
  * @param  huart  Pointer to a UART_HandleTypeDef structure that contains
  *                the configuration information for the specified UART module.
  * @retval None
  */
static void UART_SetConfig(UART_HandleTypeDef *huart)
{
 80017b4:	b580      	push	{r7, lr}
 80017b6:	b084      	sub	sp, #16
 80017b8:	af00      	add	r7, sp, #0
 80017ba:	6078      	str	r0, [r7, #4]
  assert_param(IS_UART_MODE(huart->Init.Mode));

  /*-------------------------- USART CR2 Configuration -----------------------*/
  /* Configure the UART Stop Bits: Set STOP[13:12] bits
     according to huart->Init.StopBits value */
  MODIFY_REG(huart->Instance->CR2, USART_CR2_STOP, huart->Init.StopBits);
 80017bc:	687b      	ldr	r3, [r7, #4]
 80017be:	681b      	ldr	r3, [r3, #0]
 80017c0:	691b      	ldr	r3, [r3, #16]
 80017c2:	f423 5140 	bic.w	r1, r3, #12288	; 0x3000
 80017c6:	687b      	ldr	r3, [r7, #4]
 80017c8:	68da      	ldr	r2, [r3, #12]
 80017ca:	687b      	ldr	r3, [r7, #4]
 80017cc:	681b      	ldr	r3, [r3, #0]
 80017ce:	430a      	orrs	r2, r1
 80017d0:	611a      	str	r2, [r3, #16]
  tmpreg = (uint32_t)huart->Init.WordLength | huart->Init.Parity | huart->Init.Mode | huart->Init.OverSampling;
  MODIFY_REG(huart->Instance->CR1,
             (uint32_t)(USART_CR1_M | USART_CR1_PCE | USART_CR1_PS | USART_CR1_TE | USART_CR1_RE | USART_CR1_OVER8),
             tmpreg);
#else
  tmpreg = (uint32_t)huart->Init.WordLength | huart->Init.Parity | huart->Init.Mode;
 80017d2:	687b      	ldr	r3, [r7, #4]
 80017d4:	689a      	ldr	r2, [r3, #8]
 80017d6:	687b      	ldr	r3, [r7, #4]
 80017d8:	691b      	ldr	r3, [r3, #16]
 80017da:	431a      	orrs	r2, r3
 80017dc:	687b      	ldr	r3, [r7, #4]
 80017de:	695b      	ldr	r3, [r3, #20]
 80017e0:	4313      	orrs	r3, r2
 80017e2:	60fb      	str	r3, [r7, #12]
  MODIFY_REG(huart->Instance->CR1,
 80017e4:	687b      	ldr	r3, [r7, #4]
 80017e6:	681b      	ldr	r3, [r3, #0]
 80017e8:	68db      	ldr	r3, [r3, #12]
 80017ea:	f423 53b0 	bic.w	r3, r3, #5632	; 0x1600
 80017ee:	f023 030c 	bic.w	r3, r3, #12
 80017f2:	687a      	ldr	r2, [r7, #4]
 80017f4:	6812      	ldr	r2, [r2, #0]
 80017f6:	68f9      	ldr	r1, [r7, #12]
 80017f8:	430b      	orrs	r3, r1
 80017fa:	60d3      	str	r3, [r2, #12]
             tmpreg);
#endif /* USART_CR1_OVER8 */

  /*-------------------------- USART CR3 Configuration -----------------------*/
  /* Configure the UART HFC: Set CTSE and RTSE bits according to huart->Init.HwFlowCtl value */
  MODIFY_REG(huart->Instance->CR3, (USART_CR3_RTSE | USART_CR3_CTSE), huart->Init.HwFlowCtl);
 80017fc:	687b      	ldr	r3, [r7, #4]
 80017fe:	681b      	ldr	r3, [r3, #0]
 8001800:	695b      	ldr	r3, [r3, #20]
 8001802:	f423 7140 	bic.w	r1, r3, #768	; 0x300
 8001806:	687b      	ldr	r3, [r7, #4]
 8001808:	699a      	ldr	r2, [r3, #24]
 800180a:	687b      	ldr	r3, [r7, #4]
 800180c:	681b      	ldr	r3, [r3, #0]
 800180e:	430a      	orrs	r2, r1
 8001810:	615a      	str	r2, [r3, #20]
      huart->Instance->BRR = UART_BRR_SAMPLING16(pclk, huart->Init.BaudRate);
    }
  }
#else
  /*-------------------------- USART BRR Configuration ---------------------*/
  if(huart->Instance == USART1)
 8001812:	687b      	ldr	r3, [r7, #4]
 8001814:	681b      	ldr	r3, [r3, #0]
 8001816:	4a52      	ldr	r2, [pc, #328]	; (8001960 <UART_SetConfig+0x1ac>)
 8001818:	4293      	cmp	r3, r2
 800181a:	d14e      	bne.n	80018ba <UART_SetConfig+0x106>
  {
    pclk = HAL_RCC_GetPCLK2Freq();
 800181c:	f7ff fdc2 	bl	80013a4 <HAL_RCC_GetPCLK2Freq>
 8001820:	60b8      	str	r0, [r7, #8]
    huart->Instance->BRR = UART_BRR_SAMPLING16(pclk, huart->Init.BaudRate);
 8001822:	68ba      	ldr	r2, [r7, #8]
 8001824:	4613      	mov	r3, r2
 8001826:	009b      	lsls	r3, r3, #2
 8001828:	4413      	add	r3, r2
 800182a:	009a      	lsls	r2, r3, #2
 800182c:	441a      	add	r2, r3
 800182e:	687b      	ldr	r3, [r7, #4]
 8001830:	685b      	ldr	r3, [r3, #4]
 8001832:	009b      	lsls	r3, r3, #2
 8001834:	fbb2 f3f3 	udiv	r3, r2, r3
 8001838:	4a4a      	ldr	r2, [pc, #296]	; (8001964 <UART_SetConfig+0x1b0>)
 800183a:	fba2 2303 	umull	r2, r3, r2, r3
 800183e:	095b      	lsrs	r3, r3, #5
 8001840:	0119      	lsls	r1, r3, #4
 8001842:	68ba      	ldr	r2, [r7, #8]
 8001844:	4613      	mov	r3, r2
 8001846:	009b      	lsls	r3, r3, #2
 8001848:	4413      	add	r3, r2
 800184a:	009a      	lsls	r2, r3, #2
 800184c:	441a      	add	r2, r3
 800184e:	687b      	ldr	r3, [r7, #4]
 8001850:	685b      	ldr	r3, [r3, #4]
 8001852:	009b      	lsls	r3, r3, #2
 8001854:	fbb2 f2f3 	udiv	r2, r2, r3
 8001858:	4b42      	ldr	r3, [pc, #264]	; (8001964 <UART_SetConfig+0x1b0>)
 800185a:	fba3 0302 	umull	r0, r3, r3, r2
 800185e:	095b      	lsrs	r3, r3, #5
 8001860:	2064      	movs	r0, #100	; 0x64
 8001862:	fb00 f303 	mul.w	r3, r0, r3
 8001866:	1ad3      	subs	r3, r2, r3
 8001868:	011b      	lsls	r3, r3, #4
 800186a:	3332      	adds	r3, #50	; 0x32
 800186c:	4a3d      	ldr	r2, [pc, #244]	; (8001964 <UART_SetConfig+0x1b0>)
 800186e:	fba2 2303 	umull	r2, r3, r2, r3
 8001872:	095b      	lsrs	r3, r3, #5
 8001874:	f003 03f0 	and.w	r3, r3, #240	; 0xf0
 8001878:	4419      	add	r1, r3
 800187a:	68ba      	ldr	r2, [r7, #8]
 800187c:	4613      	mov	r3, r2
 800187e:	009b      	lsls	r3, r3, #2
 8001880:	4413      	add	r3, r2
 8001882:	009a      	lsls	r2, r3, #2
 8001884:	441a      	add	r2, r3
 8001886:	687b      	ldr	r3, [r7, #4]
 8001888:	685b      	ldr	r3, [r3, #4]
 800188a:	009b      	lsls	r3, r3, #2
 800188c:	fbb2 f2f3 	udiv	r2, r2, r3
 8001890:	4b34      	ldr	r3, [pc, #208]	; (8001964 <UART_SetConfig+0x1b0>)
 8001892:	fba3 0302 	umull	r0, r3, r3, r2
 8001896:	095b      	lsrs	r3, r3, #5
 8001898:	2064      	movs	r0, #100	; 0x64
 800189a:	fb00 f303 	mul.w	r3, r0, r3
 800189e:	1ad3      	subs	r3, r2, r3
 80018a0:	011b      	lsls	r3, r3, #4
 80018a2:	3332      	adds	r3, #50	; 0x32
 80018a4:	4a2f      	ldr	r2, [pc, #188]	; (8001964 <UART_SetConfig+0x1b0>)
 80018a6:	fba2 2303 	umull	r2, r3, r2, r3
 80018aa:	095b      	lsrs	r3, r3, #5
 80018ac:	f003 020f 	and.w	r2, r3, #15
 80018b0:	687b      	ldr	r3, [r7, #4]
 80018b2:	681b      	ldr	r3, [r3, #0]
 80018b4:	440a      	add	r2, r1
 80018b6:	609a      	str	r2, [r3, #8]
  {
    pclk = HAL_RCC_GetPCLK1Freq();
    huart->Instance->BRR = UART_BRR_SAMPLING16(pclk, huart->Init.BaudRate);
  }
#endif /* USART_CR1_OVER8 */
}
 80018b8:	e04d      	b.n	8001956 <UART_SetConfig+0x1a2>
    pclk = HAL_RCC_GetPCLK1Freq();
 80018ba:	f7ff fd5f 	bl	800137c <HAL_RCC_GetPCLK1Freq>
 80018be:	60b8      	str	r0, [r7, #8]
    huart->Instance->BRR = UART_BRR_SAMPLING16(pclk, huart->Init.BaudRate);
 80018c0:	68ba      	ldr	r2, [r7, #8]
 80018c2:	4613      	mov	r3, r2
 80018c4:	009b      	lsls	r3, r3, #2
 80018c6:	4413      	add	r3, r2
 80018c8:	009a      	lsls	r2, r3, #2
 80018ca:	441a      	add	r2, r3
 80018cc:	687b      	ldr	r3, [r7, #4]
 80018ce:	685b      	ldr	r3, [r3, #4]
 80018d0:	009b      	lsls	r3, r3, #2
 80018d2:	fbb2 f3f3 	udiv	r3, r2, r3
 80018d6:	4a23      	ldr	r2, [pc, #140]	; (8001964 <UART_SetConfig+0x1b0>)
 80018d8:	fba2 2303 	umull	r2, r3, r2, r3
 80018dc:	095b      	lsrs	r3, r3, #5
 80018de:	0119      	lsls	r1, r3, #4
 80018e0:	68ba      	ldr	r2, [r7, #8]
 80018e2:	4613      	mov	r3, r2
 80018e4:	009b      	lsls	r3, r3, #2
 80018e6:	4413      	add	r3, r2
 80018e8:	009a      	lsls	r2, r3, #2
 80018ea:	441a      	add	r2, r3
 80018ec:	687b      	ldr	r3, [r7, #4]
 80018ee:	685b      	ldr	r3, [r3, #4]
 80018f0:	009b      	lsls	r3, r3, #2
 80018f2:	fbb2 f2f3 	udiv	r2, r2, r3
 80018f6:	4b1b      	ldr	r3, [pc, #108]	; (8001964 <UART_SetConfig+0x1b0>)
 80018f8:	fba3 0302 	umull	r0, r3, r3, r2
 80018fc:	095b      	lsrs	r3, r3, #5
 80018fe:	2064      	movs	r0, #100	; 0x64
 8001900:	fb00 f303 	mul.w	r3, r0, r3
 8001904:	1ad3      	subs	r3, r2, r3
 8001906:	011b      	lsls	r3, r3, #4
 8001908:	3332      	adds	r3, #50	; 0x32
 800190a:	4a16      	ldr	r2, [pc, #88]	; (8001964 <UART_SetConfig+0x1b0>)
 800190c:	fba2 2303 	umull	r2, r3, r2, r3
 8001910:	095b      	lsrs	r3, r3, #5
 8001912:	f003 03f0 	and.w	r3, r3, #240	; 0xf0
 8001916:	4419      	add	r1, r3
 8001918:	68ba      	ldr	r2, [r7, #8]
 800191a:	4613      	mov	r3, r2
 800191c:	009b      	lsls	r3, r3, #2
 800191e:	4413      	add	r3, r2
 8001920:	009a      	lsls	r2, r3, #2
 8001922:	441a      	add	r2, r3
 8001924:	687b      	ldr	r3, [r7, #4]
 8001926:	685b      	ldr	r3, [r3, #4]
 8001928:	009b      	lsls	r3, r3, #2
 800192a:	fbb2 f2f3 	udiv	r2, r2, r3
 800192e:	4b0d      	ldr	r3, [pc, #52]	; (8001964 <UART_SetConfig+0x1b0>)
 8001930:	fba3 0302 	umull	r0, r3, r3, r2
 8001934:	095b      	lsrs	r3, r3, #5
 8001936:	2064      	movs	r0, #100	; 0x64
 8001938:	fb00 f303 	mul.w	r3, r0, r3
 800193c:	1ad3      	subs	r3, r2, r3
 800193e:	011b      	lsls	r3, r3, #4
 8001940:	3332      	adds	r3, #50	; 0x32
 8001942:	4a08      	ldr	r2, [pc, #32]	; (8001964 <UART_SetConfig+0x1b0>)
 8001944:	fba2 2303 	umull	r2, r3, r2, r3
 8001948:	095b      	lsrs	r3, r3, #5
 800194a:	f003 020f 	and.w	r2, r3, #15
 800194e:	687b      	ldr	r3, [r7, #4]
 8001950:	681b      	ldr	r3, [r3, #0]
 8001952:	440a      	add	r2, r1
 8001954:	609a      	str	r2, [r3, #8]
}
 8001956:	bf00      	nop
 8001958:	3710      	adds	r7, #16
 800195a:	46bd      	mov	sp, r7
 800195c:	bd80      	pop	{r7, pc}
 800195e:	bf00      	nop
 8001960:	40013800 	.word	0x40013800
 8001964:	51eb851f 	.word	0x51eb851f

08001968 <bzero>:
 8001968:	460a      	mov	r2, r1
 800196a:	2100      	movs	r1, #0
 800196c:	f000 b824 	b.w	80019b8 <memset>

08001970 <__libc_init_array>:
 8001970:	b570      	push	{r4, r5, r6, lr}
 8001972:	2500      	movs	r5, #0
 8001974:	4e0c      	ldr	r6, [pc, #48]	; (80019a8 <__libc_init_array+0x38>)
 8001976:	4c0d      	ldr	r4, [pc, #52]	; (80019ac <__libc_init_array+0x3c>)
 8001978:	1ba4      	subs	r4, r4, r6
 800197a:	10a4      	asrs	r4, r4, #2
 800197c:	42a5      	cmp	r5, r4
 800197e:	d109      	bne.n	8001994 <__libc_init_array+0x24>
 8001980:	f000 f822 	bl	80019c8 <_init>
 8001984:	2500      	movs	r5, #0
 8001986:	4e0a      	ldr	r6, [pc, #40]	; (80019b0 <__libc_init_array+0x40>)
 8001988:	4c0a      	ldr	r4, [pc, #40]	; (80019b4 <__libc_init_array+0x44>)
 800198a:	1ba4      	subs	r4, r4, r6
 800198c:	10a4      	asrs	r4, r4, #2
 800198e:	42a5      	cmp	r5, r4
 8001990:	d105      	bne.n	800199e <__libc_init_array+0x2e>
 8001992:	bd70      	pop	{r4, r5, r6, pc}
 8001994:	f856 3025 	ldr.w	r3, [r6, r5, lsl #2]
 8001998:	4798      	blx	r3
 800199a:	3501      	adds	r5, #1
 800199c:	e7ee      	b.n	800197c <__libc_init_array+0xc>
 800199e:	f856 3025 	ldr.w	r3, [r6, r5, lsl #2]
 80019a2:	4798      	blx	r3
 80019a4:	3501      	adds	r5, #1
 80019a6:	e7f2      	b.n	800198e <__libc_init_array+0x1e>
 80019a8:	08001a14 	.word	0x08001a14
 80019ac:	08001a14 	.word	0x08001a14
 80019b0:	08001a14 	.word	0x08001a14
 80019b4:	08001a18 	.word	0x08001a18

080019b8 <memset>:
 80019b8:	4603      	mov	r3, r0
 80019ba:	4402      	add	r2, r0
 80019bc:	4293      	cmp	r3, r2
 80019be:	d100      	bne.n	80019c2 <memset+0xa>
 80019c0:	4770      	bx	lr
 80019c2:	f803 1b01 	strb.w	r1, [r3], #1
 80019c6:	e7f9      	b.n	80019bc <memset+0x4>

080019c8 <_init>:
 80019c8:	b5f8      	push	{r3, r4, r5, r6, r7, lr}
 80019ca:	bf00      	nop
 80019cc:	bcf8      	pop	{r3, r4, r5, r6, r7}
 80019ce:	bc08      	pop	{r3}
 80019d0:	469e      	mov	lr, r3
 80019d2:	4770      	bx	lr

080019d4 <_fini>:
 80019d4:	b5f8      	push	{r3, r4, r5, r6, r7, lr}
 80019d6:	bf00      	nop
 80019d8:	bcf8      	pop	{r3, r4, r5, r6, r7}
 80019da:	bc08      	pop	{r3}
 80019dc:	469e      	mov	lr, r3
 80019de:	4770      	bx	lr
